:020000040800F2
:10000000A0060020CD010008F5040008A5040008A2
:10001000F104000887020008B70D00080000000086
:10002000000000000000000000000000710900084E
:100030008B0200080000000079080008650B00082A
:10004000E7010008E7010008E7010008E7010008F0
:10005000E7010008E7010008E7010008E7010008E0
:10006000E7010008E7010008E7010008E7010008D0
:10007000E7010008E7010008E7010008E7010008C0
:10008000E7010008E7010008E7010008E7010008B0
:10009000E7010008E7010008E7010008E7010008A0
:1000A000E7010008E7010008E7010008E701000890
:1000B000E7010008E7010008E7010008E701000880
:1000C000E7010008E7010008E7010008E701000870
:1000D000E7010008C90B0008E7010008E701000874
:1000E000E7010008E7010008E7010008E701000850
:1000F000E7010008E7010008E7010008E701000840
:10010000E7010008E7010008E7010008E70100082F
:10011000E7010008E7010008E7010008E70100081F
:10012000E7010008E7010008E7010008E70100080F
:1001300000F002F800F03AF80AA090E8000C8244BF
:100140008344AAF10107DA4501D100F02FF8AFF29C
:10015000090EBAE80F0013F0010F18BFFB1A43F0A5
:1001600001031847E418000004190000103A24BFE6
:1001700078C878C1FAD8520724BF30C830C144BF0C
:1001800004680C607047000000230024002500264E
:10019000103A28BF78C1FBD8520728BF30C148BFEA
:1001A0000B6070471FB51FBD10B510BD00F031F8D2
:1001B0001146FFF7F7FF00F06FFE00F04FF803B4B1
:1001C000FFF7F2FF03BC00F057F800000948804732
:1001D00009480047FEE7FEE7FEE7FEE7FEE7FEE729
:1001E000FEE7FEE7FEE7FEE704480549054A064B41
:1001F00070470000690B000831010008A0000020D2
:10020000A0060020A0020020A00200207047704736
:100210007047754600F02CF8AE4605006946534617
:1002200020F00700854618B020B5FFF7DDFFBDE8D8
:1002300020404FF000064FF000074FF000084FF04D
:10024000000B21F00701AC46ACE8C009ACE8C009DE
:10025000ACE8C009ACE8C0098D46704710B504464B
:10026000AFF300802046BDE81040FFF7A8BF0000B4
:10027000004870473C00002001491820ABBEFEE753
:1002800026000200704700BFFEE770472DE9F041ED
:10029000024600250026002000230024002791F8B4
:1002A00003C00CF00F0591F803C00CF0100CBCF16A
:1002B000000F03D091F802C04CEA050591F800C088
:1002C000BCF1000F31D0146800202BE04FF0010C7E
:1002D0000CFA00F3B1F800C00CEA03069E4220D1EC
:1002E00083004FF00F0C0CFA03F7BC4305FA03FC34
:1002F0004CEA040491F803C0BCF1280F06D14FF07A
:10030000010C0CFA00FCC2F814C00AE091F803C01A
:10031000BCF1480F05D14FF0010C0CFA00FCC2F8FB
:1003200010C0401C0828D1D31460B1F800C0BCF143
:10033000FF0F34DD546800202EE000F1080C4FF070
:10034000010808FA0CF3B1F800C00CEA03069E425B
:1003500021D183004FF00F0C0CFA03F7BC4305FAD0
:1003600003FC4CEA040491F803C0BCF1280F05D14A
:1003700000F1080C08FA0CF8C2F8148091F803C0D8
:10038000BCF1480F07D100F1080C4FF0010808FA42
:100390000CF8C2F81080401C0828CED35460BDE889
:1003A000F081016170470AB1016100E0416170476D
:1003B00010B500F03DF80149086010BD04000020B0
:1003C0002DE9F04100F034F815490860084600684E
:1003D00014490968884221D9114800681249086007
:1003E000084600680F490968401A0F490860084626
:1003F000006800F0D3FF804600F0A4FF064600220C
:100400000A4B00F0C3FD044600F018FF06490860DF
:100410000846006800EB800040000860BDE8F081FD
:100420000000002004000020080000200040474099
:1004300070B501201949086000F008FD0020184936
:10044000C1F88001002400BF144800680028FBD1D7
:10045000002513E0012011497C310860640000F0A0
:10046000F5FC00200E49C1F880010C48006800B17D
:10047000641C012000F0EAFC681CC5B2182DE9DB01
:10048000012006497C31086084F4000400F0DEFCA1
:1004900000200349C1F88001204670BD048121423B
:1004A0000080214200BFFEE708B50121082000F0CE
:1004B000E5F90120ADF8000010208DF803000320BD
:1004C0008DF8020069460948FFF7E0FE0220ADF80A
:1004D000000048208DF8030069460448FFF7D6FE67
:1004E00001210248FFF75DFF08BD0000000C01403C
:1004F00000BFFEE77047000070B5002100230F2207
:10050000C47804B3154C246804F4E064C4F5E064D2
:10051000210AC1F10403CA40447804FA03F1847843
:100520001440214309010E4C0678A155047804F0CB
:100530001F050124AC4005786D11AD0005F1E025E3
:10054000C5F8004109E0047804F01F050124AC401F
:10055000044D0678761145F8264070BD0CED00E09C
:1005600000E400E080E100E002490143024A11603A
:10057000704700000000FA050CED00E070B50024A3
:100580000EE00021204600F0EAF8002504E00020FB
:1005900000F062F9681CC5B2802DF8DB601CC4B2A3
:1005A000082CEEDB70BD000008B50121042000F02E
:1005B00065F914208DF8030003208DF80200012056
:1005C000ADF8000069460A48FFF760FE0220ADF86A
:1005D000000069460648FFF759FE0122114604480B
:1005E000FFF7E1FE012202210148FFF7DCFE08BD12
:1005F0000008014070B50546002413E0802020412A
:1006000000EA050202210E48FFF7CDFE0122114645
:100610000B48FFF7C8FE002201210948FFF7C3FE7F
:10062000601CC4B2082CE9DB012211460448FFF724
:10063000BAFE002201210248FFF7B5FE70BD00009E
:100640000008014010B5012202210948FFF7ABFE66
:10065000012211460648FFF7A6FE002202210448A7
:10066000FFF7A1FE002201210148FFF79CFE10BD0B
:100670000008014010B5002202210748FFF793FE51
:10068000012211460448FFF78EFE01220221024892
:10069000FFF789FE10BD00000008014070B500247E
:1006A00006E0002500E06D1CB5F57A7FFBD3641CE5
:1006B000B4F57A7FF5D3FFF777FFAE2000F0BCF8F2
:1006C000D52000F0B9F8802000F0B6F8A82000F09E
:1006D000B3F83F2000F0B0F8D32000F0ADF80020D0
:1006E00000F0AAF8402000F0A7F8A12000F0A4F83C
:1006F000C82000F0A1F8DA2000F09EF8122000F0E7
:100700009BF8812000F098F8CF2000F095F8D920D0
:1007100000F092F8F12000F08FF8DB2000F08CF868
:10072000302000F089F8A42000F086F8A62000F020
:1007300083F88D2000F080F8142000F07DF8AF20C1
:1007400000F07AF8FFF71AFF70BD10B502460120DD
:1007500000E050430B1EA1F10101FAD110BD70B5AC
:1007600005460C4645F0B00000F066F8102141EA5D
:10077000141000F061F804F00F0000F05DF870BD97
:100780002DE9F04105460E461746721ED206110E9F
:100790006A1E5206100EFFF7E2FF002409E0A7F1DF
:1007A0002001134A02EB0111085D00F055F8601CAE
:1007B000C4B2082CF3DB721ED206110E6A1E01238E
:1007C00003EB4202D0B2FFF7CAFF00240BE0A7F10F
:1007D0002001074A02EB011204F10801505C00F00D
:1007E0003BF8601CC4B2082CF1DBBDE8F0810000CE
:1007F000581400082DE9F04780460E4617461D465E
:10080000002415E0281B411E0A20FFF79EFFB7FBBE
:10081000F0F00A21B0FBF1F201FB120000F1300907
:100820003019C1B24A464046FFF7AAFF601CC4B265
:10083000AC42E7DBBDE8F08710B50446FFF702FFE6
:100840007820FFF7D7FE0020FFF7D4FE2046FFF701
:10085000D1FEFFF70FFF10BD10B50446FFF7F2FE03
:100860007820FFF7C7FE4020FFF7C4FE2046FFF7C1
:10087000C1FEFFF7FFFE10BD7047000029B1064A18
:1008800092690243044B9A6104E0034A92698243ED
:10089000014B9A61704700000010024030B5002102
:1008A0000022002400232D4D6D6805F00C0121B1BC
:1008B000042905D0082923D105E0294D056022E04F
:1008C000274D05601FE0254D6D6805F47012234D1E
:1008D0006D6805F48034022505EB92421CB9214D68
:1008E000554305600BE01D4D6D6805F400351DB1E5
:1008F0001C4D5543056002E0194D5543056002E06B
:10090000174D056000BF00BF144D6D6805F0F00184
:100910000909154D6B5C0568DD4045600F4D6D683C
:1009200005F4E061090A104D6B5C4568DD408560A7
:100930000A4D6D6805F46051C90A0B4D6B5C456842
:10094000DD40C560054D6D6805F44041890B074DDC
:100950006B5CC568B5FBF3F5056130BD0010024066
:1009600000127A0000093D000F0000201F00002047
:100970007047000001480078704700000D0000201B
:1009800005480078012804D100200349087001209F
:1009900070470020FCE700000E00002000B587B083
:1009A00001218803FFF76AFF01210420FFF766FF9A
:1009B00018208DF81B004FF40070ADF818000320CC
:1009C0008DF81A0006A92148FFF760FC48208DF831
:1009D0001B004FF48060ADF8180003208DF81A005A
:1009E00006A91A48FFF752FC4FF4E13002900020AC
:1009F000ADF814000C20ADF812000020ADF8100086
:100A0000ADF80E00ADF80C0002A9114800F062F933
:100A1000012240F225510E4800F037F94FF4A06052
:100A2000FFF7A2FD25208DF8040001208DF80700B6
:100A30008DF805008DF8060001A8FFF75DFD012186
:100A4000034800F0ECF807B000BD000000080140CA
:100A50000038014010B500F001F810BD0CB50020C1
:100A6000019000903348006840F4803031490860BC
:100A700000BF3048006800F4003000900198401C2E
:100A80000190009818B90198B0F5A06FF1D12948EC
:100A9000006800F4003010B10120009001E0002057
:100AA00000900098012843D12348006840F01000CE
:100AB000214908600846006820F0030008600846E5
:100AC000006840F0020008601A4840681949486010
:100AD0000846406848600846406840F480604860C6
:100AE0000846406820F47C1048600846406840F49E
:100AF000E81048600846006840F08070086000BF59
:100B00000C48006800F000700028F9D009484068DF
:100B100020F00300074948600846406840F00200A2
:100B2000486000BF0348406800F00C000828F9D175
:100B30000CBD00000010024000200240042808D133
:100B40004FF0E021096941F004014FF0E02211610A
:100B500007E04FF0E021096921F004014FF0E022A5
:100B6000116170477047000010B51348006840F0ED
:100B700001001149086008464068104908400E49C4
:100B80004860084600680E4908400B49086008465E
:100B9000006820F4802008600846406820F4FE00C9
:100BA00048604FF41F008860FFF754FF4FF000606B
:100BB0000449086010BD0000001002400000FFF86A
:100BC000FFFFF6FE08ED00E010B540F225510948A0
:100BD00000F031F801280CD1064800F0E7F806498A
:100BE000087001200549087040F22551014800F0C5
:100BF00007F810BD003801400D0000200E00002055
:100C000010B50022002340F66A14A14200D100BFB3
:100C10000A1201249440A3B2DC43048010BD21B128
:100C2000828942F40052828104E082894DF6FF738A
:100C30001A408281704770B50246002400230025C7
:100C4000002040F66A16B14200D100BFC1F3421540
:100C500001F01F03012606FA03F3012D02D1968944
:100C6000334006E0022D02D1168A334001E0968A15
:100C700033400C12012606FA04F41688344013B1EE
:100C80000CB1012000E0002070BDF0B50346002447
:100C900000260025002040F66A17B94200D100BFA7
:100CA0001846C1F3421401F01F06012707FA06F5A2
:100CB000012C01D10C3004E0022C01D1103000E0F5
:100CC00014301AB107682F43076002E00768AF438A
:100CD0000760F0BD2DE9F04786B005460E460024BA
:100CE000A24600BFA1460027B08900B100BF2F4631
:100CF0002C8A4CF6FF700440F08804432C82AC89A7
:100D00004EF6F3100440B0883189084371890843D6
:100D10000443AC81AC8A4FF6FF400440B0890443E1
:100D2000AC8201A8FFF7BAFD1F48874202D1DDF867
:100D300010A001E0DDF80CA0A88900F4004040B14B
:100D40000AEBCA0000EB0A1031684900B0FBF1F869
:100D500007E00AEBCA0000EB0A1031688900B0FB1B
:100D6000F1F86420B8FBF0F004012009642101FBD4
:100D70001089A88900F4004040B1322000EBC9007E
:100D8000B0FBF1F000F00700044308E0322000EB74
:100D900009106421B0FBF1F000F00F0004432C8136
:100DA00006B0BDE8F08700000038014001468888A1
:100DB000C0F30800704700BFFEE7000010B56FF0F9
:100DC0000400FFF7BBFE0A4800680A49B0FBF1F0D7
:100DD000094908700846007800EB4001C1EBC010DB
:100DE0004FF6FF7101EAC0000449088010BD000001
:100DF0002800002000127A00240000202600002095
:100E00000146114A12884A434FF0E0235A610022FA
:100E10009A611A46126942F001021A6100BF4FF04E
:100E2000E022106900F001021AB100F48032002AB9
:100E3000F5D04FF0E022126922F001024FF0E023DA
:100E40001A6100229A617047260000200146114A6B
:100E500012784A434FF0E0235A6100229A611A4601
:100E6000126942F001021A6100BF4FF0E0221069DE
:100E700000F001021AB100F48032002AF5D04FF0E0
:100E8000E022126922F001024FF0E0231A610022F1
:100E90009A6170472400002008B54FF00009002433
:100EA000A246A3464FF4487800200090FFF786FF43
:100EB000FFF7F4FBFFF772FD4FF4A060FFF754FB60
:100EC000FFF75CFBFFF7F0FAFFF772FA4FF4FA60F6
:100ED000FFF796FFFFF76CFA4FF4FA60FFF790FF09
:100EE000FFF766FAFFF764FAFFF762FA4FF4FA6069
:100EF000FFF786FFFFF75CFAFFF75AFAFFF73EFBB2
:100F000041E0FFF75DFA20490968A1EB09000028DC
:100F100001DB014600E041420D4606231A4801214B
:100F200002680846FFF766FC454505DA00BF761CF7
:100F300015480068074405E0454503DB00BF00266F
:100F4000002700241048D0F800901E2E04D11E2047
:100F500097FBF0F40AF1010A5C4500DDA346FFF7B8
:100F60000FFD01280FD1FFF705FD0090022301219D
:100F70000320009AFFF73EFC0623224601210220AF
:100F8000FFF738FC00BFBCE7080000202DE9C04196
:100F900030B4DFF8A0C23CEA111418BF3CEA1314C5
:100FA00000F0EC8081EA03051CEA111444EAD574D0
:100FB00018BF1CEA131500F0C780A4EB05044FF01E
:100FC000004545EAC12145EAC32341EA505143EABD
:100FD000525304F17F74994204F500344FEAC02063
:100FE0004FEAC22208BF904200F09C804FEA13658E
:100FF0000FF24016765D4FEA134506FB05F7C7F181
:10100000807706FB07F74FEAD737A7FB03687642DE
:10101000C8F58038A7FB06CE38BFA8F1010807FB4A
:1010200008E64FF0000EA6FB028CE6FB03CEDCF1D7
:10103000000CCEF1004E38BFAEF1010EA6FB0C58ED
:101040004FF000074FF00005E6FB0E87A1FB08C636
:10105000A0FB07CE16EB0E0645F10005E1FB076588
:1010600015F1E04E7EBFA4F580345FEA46066D417F
:1010700016F1800745F100054FEA17274FEA06668B
:1010800047EA0567A6F1DE46B6F1805F4FEA15250F
:101090001FD9384624F0010C05EBC471BCF1FE6F7A
:1010A00001EB0C1102D8F0BCBDE8008124425CBF0A
:1010B00001F5801E9EEAC47F02D4F0BCBDE8008129
:1010C000244238D4F0BCA1F1C041BDE8004100F099
:1010D00032B94FEAD22242EA43524FEAD323A7FB66
:1010E00002864FEAD02040EA415007FB03661EEA21
:1010F0000E0F4FEAD12105FB026658BFA6EB005642
:10110000B6EB00564FEA520E4EEAC37E18EB0E0EB7
:1011100056EB530EBDD518EB02085E417F1C55F10E
:101120000005B6E74FF480154FF000074FF00006BA
:101130004FF00008ADE7F0BC4FF0000001F1C041F6
:1011400001F00041BDE8008111EA0C1F0CEA131503
:1011500000D00CE013EA0C1F00F025804FF00000D7
:10116000F0BC81EA030101F00041BDE80081F0BC60
:10117000BDE8004181EA030100F0DDB8F0BCBDE844
:10118000004170B500F089F8097EFC3E00F007B818
:1011900081EA03014FF0000001F00041704781EA4D
:1011A000030100F0C8B8F0BCBDE800414FF00000FA
:1011B00021497047FFFDFBF9F7F5F4F2F0EEEDEB96
:1011C000E9E8E6E4E3E1E0DEDDDBDAD8D7D5D4D345
:1011D000D1D0CFCDCCCBCAC8C7C6C5C4C2C1C0BF91
:1011E000BEBDBCBBBAB9B8B7B6B5B4B3B2B1B0AF97
:1011F000AEADACABAAA9A8A8A7A6A5A4A3A3A2A17B
:10120000A09F9F9E9D9C9C9B9A9999989797969535
:1012100095949393929191908F8F8E8E8D8C8C8BD1
:101220008B8A898988888787868585848483838259
:10123000828181800000FF070000F87F4FEA4103B0
:101240004FEA5353A3F58063D3F11E03C8BFD3F114
:10125000210C0CDD4FF0004242EAC12242EA50521A
:1012600032FA03FC8CEAE17CACEBE1707047102BA6
:10127000C4BF0020704703F5787CBCF1FF3F04D069
:101280006FF0004282EA2100704770B500F005F867
:101290004992248000207047F2E70EF1020E2EF0F2
:1012A000030E5EF8046B364205D4012A43EB0305B6
:1012B00015F5001F12D8012841EB010C1CF5001F89
:1012C0000CD80ED14FEAD17C15F5001F0CEB4C0C5D
:1012D0000CF1020C08BF4CEBD37C04E04FF0080C7F
:1012E00001E04FEAD37C0CEB4C0526FA05F606F03C
:1012F0000706B6F1040C06D20EEB860CBDE8704072
:101300004CF0010C6047DFE80CF0090B02024FF0D3
:1013100000414FF00000A1F5002170BD19461046B4
:10132000012851EB010418BFD4F5001484BF00203C
:1013300001F0004170BD0808A0F500114FEA31012D
:101340007047000043004FEAD30C4FEA3C0C434087
:101350001FBF40070CF1605113F0FE4F70471CF0A7
:10136000006F03D100200CF0004170470CF00043E7
:1013700043EA507010B540EACC0000F027F800BFF7
:10138000000000924FEA0001FFF7D5BF4FF0004187
:101390004FF00000A1F500217047000010F000415F
:1013A00048BF4042B0FA80F310FA03F2C3F19D0344
:1013B0000BD051EAC35101EB1220530638BF7047DE
:1013C00000F1010008BF20F0010070470EF1020E8D
:1013D0002EF0030E5EF8044B244204D44FEA41027F
:1013E000B2F17F4F11D84FEA4003B3F17F4F0CD8D1
:1013F0000ED14FEAD07CB2F17F4F0CEB4C0C0CF1CC
:10140000020C08BF4CEBD17C04E04FF0080C01E06B
:101410004FEAD17C0CEB4C0324FA03F404F00704EC
:10142000B4F1040C06D20EEB840CBDE810404CF075
:10143000010C6047DFE80CF0070802024FF00040A3
:10144000A0F5800010BD0846420018BFD2F180729E
:1014500088BF00F0004010BD000000000000000048
:101460000000000000000000000000F80000000084
:10147000000000333000000000100C06100C0600C5
:10148000000000000000000040C07840C07840002C
:10149000043F04043F040400007088FC083000008E
:1014A000001820FF211E0000F008F000E0180000E6
:1014B00000211C031E211E0000F00888700000009F
:1014C0001E2123241927211010160E0000000000F1
:1014D0000000000000000000000000E0180402000E
:1014E000000000071820400000020418E00000007F
:1014F0000040201807000000404080F0804040007D
:101500000202010F01020200000000F000000000D2
:101510000101011F010101000000000000000000A6
:1015200080B070000000000000000000000000001B
:1015300000010101010101010000000000000000A4
:10154000003030000000000000000000806018043F
:10155000006018060100000000E010080810E0001C
:10156000000F102020100F00001010F800000000E5
:101570000020203F2020000000700808088870002C
:1015800000302824222130000030088888483000AC
:101590000018202020110E000000C02010F80000CC
:1015A00000070424243F240000F808888808080065
:1015B0000019212020110E0000E01088881800007A
:1015C000000F112020110E0000380808C83808004C
:1015D0000000003F000000000070880808887000CC
:1015E000001C222121221C0000E010080810E0004D
:1015F0000000312222110F00000000C0C0000000D6
:1016000000000030300000000000008000000000FA
:1016100000008060000000000000804020100800F2
:1016200000010204081020004040404040404000BB
:101630000404040404040400000810204080000096
:101640000020100804020100007048080808F0009B
:101650000000003036010000C030C828E810E0006B
:101660000718272423140B000000C038E0000000F6
:10167000203C23020227382008F888888870000060
:10168000203F202020110E00C03008080808380034
:10169000071820202010080008F808080810E000AB
:1016A000203F202020100F0008F88888E80810004C
:1016B000203F20202320180008F88888E808100020
:1016C000203F200003000000C03008080838000058
:1016D00007182020221E020008F808000008F80859
:1016E000203F210101213F20000808F808080000E0
:1016F0000020203F2020000000000808F808080013
:10170000C08080807F00000008F888C0281808008A
:10171000203F20012638200008F8080000000000C3
:10172000203F20202020300008F8F800F8F80800BA
:10173000203F003F003F200008F830C00008F808B4
:10174000203F200007183F00E01008080810E000C4
:101750000F10202020100F0008F808080808F000DB
:10176000203F210101010000E01008080810E000FE
:101770000F18242438504F0008F888888888700093
:10178000203F2000030C3020007088080808380033
:101790000038202121221C00180808F80808180029
:1017A0000000203F2000000008F808000008F808AA
:1017B000001F202020201F000878880000C838085B
:1017C000000007380E010000F80800F80008F800D3
:1017D000033C0700073C030008186880806818086D
:1017E00020302C03032C30200838C800C8380800EB
:1017F0000000203F2000000010080808C83808003A
:101800002038262120201800000000FE02020200DD
:101810000000007F40404000000C30C0000000008D
:10182000000000010638C00000020202FE000000B5
:10183000004040407F00000000000402020204005B
:101840000000000000000000000000000000000098
:101850008080808080808080000202040000000080
:101860000000000000000000000080808080000078
:101870000019242222223F2008F800808000000066
:10188000003F112020110E00000000808080000029
:10189000000E112020201100000000808088F80038
:1018A000000E112020103F2000008080808000006A
:1018B000001F222222221300008080F088888818CE
:1018C0000020203F202000000000808080808000D9
:1018D000006B94949493600008F80080808000006E
:1018E000203F210000203F20008098980000000049
:1018F0000020203F20200000000000809898000079
:1019000000C08080807F000008F800008080800098
:10191000203F24022D302000000808F800000000BD
:101920000020203F20200000808080808080800078
:10193000203F20003F20003F80800080808000000A
:10194000203F210000203F20000080808080000098
:10195000001F202020201F008080008080000000C9
:1019600080FFA12020110E000000008080808000F8
:10197000000E112020A0FF808080800080808000E9
:1019800020203F2120000100000080808080800016
:101990000033242424241900008080E0808000008B
:1019A0000000001F202000008080000000808000D8
:1019B000001F202020103F20808080000080808039
:1019C00000010E30080601008080008000808080C9
:1019D0000F300C030C300F000080800080808000EE
:1019E0000020312E0E312000808080000080808019
:1019F00080818E70180601000080808080808000C9
:101A00000021302C2221300000000000807C0202E6
:101A100000000000003F404000000000FF00000008
:101A200000000000FF0000000002027C80000000B7
:101A30000040403F000000000006010102020404D3
:101A40000000000000000000681A000800000020EC
:101A50003C0000006C010008A41A00083C000020B3
:101A6000640600008801000800000000000000007B
:101A7000000000000000000000000001020304015B
:101A8000020304060708090204060800000000001B
:101A900000A24A040000000000000000010203044C
:041AA0000607080924
:0400000508000131BD
:00000001FF
