:020000040800F2
:10000000C80A0020C91E0008C7010008C90100086D
:10001000CD010008D1010008D50100080000000052
:10002000000000000000000000000000D9010008EE
:10003000DB01000800000000DD010008DF0100080E
:10004000E31E0008E31E0008E31E0008E31E00088C
:10005000E31E0008E31E0008E31E0008E31E00087C
:100060000F110008E31E0008E31E0008E31E00084D
:10007000E31E0008E31E0008E31E0008E31E00085C
:10008000E31E0008E31E0008E31E0008E31E00084C
:10009000E31E0008E31E0008E31E0008E31E00083C
:1000A000E31E0008E31E0008E31E0008E31E00082C
:1000B000D90B000853090008C10B0008E31E000813
:1000C000E31E0008E31E0008E31E0008E31E00080C
:1000D000E31E000823060008270F0008D10E0008C1
:1000E000E31E0008E31E0008E31E000800F002F80B
:1000F00000F05AF80AA090E8000C82448344AAF168
:100100000107DA4501D100F04FF8AFF2090EBAE865
:100110000F0013F0010F18BFFB1A43F0010318473B
:1001200038560000585600000A444FF0000C10F8F2
:10013000013B13F0070408BF10F8014B1D1108BF65
:1001400010F8015B641E05D010F8016B641E01F805
:10015000016BF9D113F0080F1EBF10F8014BAD1C55
:100160000C1B09D16D1E58BF01F801CBFAD505E073
:1001700014F8016B01F8016B6D1EF9D59142D6D3CD
:10018000704700000023002400250026103A28BFF5
:1001900078C1FBD8520728BF30C148BF0B607047F9
:1001A0001FB51FBD10B510BD03F069FE1146FFF766
:1001B000F7FF00F015F803F087FE03B4FFF7F2FF36
:1001C00003BC00F0E1F9704700BFFEE700BFFEE7A7
:1001D00000BFFEE700BFFEE77047704770477047FB
:1001E00000F064FA00F094FA00F026F94FF4FA30C7
:1001F00000F0D9F94FF4E13000F029FE4FF4E1307E
:1002000000F0E6FD00F082F900F0D0FE00F01CFCEA
:1002100000F067FC002141F61F4000F085FD4FF41F
:100220007A7000F046F901F050FD01F0D6F801F0C7
:10023000DFFD4FF47A7000F03CF900F0E1FC41F68C
:100240001F41642000F0AAFF04E001F0F7FD322016
:1002500000F02FF9F9E700000CB5002001900090A4
:100260006C48006840F480306A49086000BF694803
:10027000006800F4003000900198401C0190009844
:1002800018B90198B0F5A06FF1D16248006800F488
:10029000003010B10120009001E000200090009893
:1002A000012843D15C48006840F010005A490860BA
:1002B0000846006820F0030008600846006840F027
:1002C0000200086053484068524948600846406848
:1002D00048600846406840F48060486008464068CE
:1002E00020F47C1048600846406840F4E8104860FC
:1002F0000846006840F08070086000BF454800680C
:1003000000F000700028F9D04248406820F0030057
:10031000404948600846406840F00200486000BF1D
:100320003C48406800F00C000828F9D10CBD10B51D
:10033000FFF792FF10BD10B53648006840F001008D
:1003400034490860084640683449084031494860EB
:1003500008460068324908402E490860084600688F
:1003600020F4802008600846406820F4FE004860C1
:100370004FF41F008860FFF7DAFF4FF00060294953
:10038000086010BD10B5002100200022214B5B68E1
:1003900003F00C0121B1042906D0082928D107E077
:1003A000214B224C236027E01F4B204C236023E08D
:1003B000184B5B6803F47010164B5B6803F48032D3
:1003C000022303EB904022B9194B4343174C23609F
:1003D0000DE0104B5B6803F4003323B1144B43432F
:1003E000124C236003E0104B4343104C236003E0A6
:1003F0000D4B0E4C236000BF00BF064B5B68C3F380
:1004000003130C4CE15C094B1B68CB40074C236089
:1004100010BD000000100240002002400000FFF864
:10042000FFFFF6FE08ED00E000127A004400002015
:1004300000093D004800002010B56FF0040001F0F5
:10044000B2FD2E4800682E49B0FBF1F02D4908702E
:100450000846007800EB4001C1EBC0104FF6FF7179
:1004600001EAC0002849088010BD0146254A1278DB
:100470004A434FF0E0235A6100229A611A461269FA
:1004800042F001021A6100BF4FF0E022106900F053
:1004900001021AB100F48032002AF5D04FF0E022B8
:1004A000126922F001024FF0E0231A6100229A61E2
:1004B00070470146144A12884A434FF0E0235A61BC
:1004C00000229A611A46126942F001021A6100BFC5
:1004D0004FF0E022106900F001021AB100F48032FE
:1004E000002AF5D04FF0E022126922F001024FF00D
:1004F000E0231A6100229A61704700004400002046
:1005000000127A00580000205A00002008B54FF46D
:10051000A06001F0F9FC17208DF8000001208DF893
:1005200001008DF802008DF80300684601F0F1FC2F
:1005300026208DF8000000208DF8010001208DF8A4
:1005400002008DF80300684601F0E3FC27208DF8D7
:10055000000000208DF8010001208DF802008DF8C8
:100560000300684601F0D5FC1D208DF80000002036
:100570008DF8010003208DF8020001208DF80300A2
:10058000684601F0C6FC08BD014600BF704700BFC9
:10059000424A128802F04002002AF9D0C2B23F4B10
:1005A0001B1D1A80704710B586B00446012144F225
:1005B000050002F0E9FA4FF40070ADF814000320D2
:1005C0008DF8160018208DF8170005A9344802F0A0
:1005D0001FF84FF48060ADF8140004208DF8170068
:1005E00005A92F4802F014F801940020ADF8080086
:1005F000ADF80A00ADF80C00ADF810000C20ADF815
:100600000E0001A9254803F074FA012240F2255199
:10061000224803F006FB0121204803F0F6FA06B059
:1006200010BD10B540F225511C4803F0DFFB10B39C
:100630001A4803F05BFBC4B21A48007800F080004F
:10064000C8B91848007800F0400060B10A2C03D007
:1006500000201449087020E01248007840F0800023
:100660001049087019E00D2C06D10E48007840F0B2
:1006700040000C49087010E00A48007800F03F0084
:1006800009490C5407480078401C06490870084680
:1006900000783F2801DD0020087010BD00380140BF
:1006A00000080140600000202404002008B501215A
:1006B000102002F069FA4FF40040ADF8000010205D
:1006C0008DF8030003208DF8020069460C4801F004
:1006D0009FFF08BD18B900210A4A11600FE00A49BE
:1006E0000968491C084A1160814208D10549096816
:1006F000C943064AC2F8BC110021034A1160704781
:1007000000100140BC01224264000020000022428F
:1007100008B50121102002F037FA4FF48040ADF8FF
:10072000000048208DF8030069460A4801F070FF78
:1007300008BD0948007838B10848006820B9002091
:100740000549087001207047012003490870002006
:10075000F9E7000000100140680000203801224243
:100760002DE9F05F04460D46281BA24908600846A3
:10077000006804F025FA83469F480168584604F053
:100780006BFA80469B4909689C4A1268881A04F0F3
:1007900017FA83469A480168584604F05DFA814684
:1007A000414604F0C1F807469648006804F008FA8C
:1007B0008246394604F0B8F8064604F0E5F9914956
:1007C00008608C4800688D4908608E480068BDE864
:1007D000F09F2DE9F05F04460D46281B8A4908600A
:1007E0000846006804F0ECF98346834801685846DF
:1007F00004F032FA804684490968844A1268881AEB
:1008000004F0DEF983467E480168584604F024FA75
:100810008146414604F088F807467D48006804F0A8
:10082000CFF98246394604F07FF8064604F0ACF969
:100830007749086074480068744908607448006823
:10084000BDE8F09F4218734B1A60421A724B1A604F
:10085000704770B5714D72490968724A1268881AFA
:1008600004F0AEF906466E480068142823DD6C4893
:100870000068B0F57A6F1EDA6A48006814281ADD3D
:1008800068480068B0F57A6F15DA0021304604F048
:10089000AFF905D22946304604F0DEF904460BE0F4
:1008A0000021304604F0A4FA06D22946304604F06E
:1008B000D3F9044600E00024204604F065F970BD39
:1008C0002DE9F0470026DFF860815548006804F004
:1008D00077F98146414604F0BDFA07465148006861
:1008E00004F06EF98146414604F0B4FA0546002151
:1008F000384604F07DFA04D20021284604F078FA44
:1009000009D30021384604F073F912D20021284699
:1009100004F06EF90DD22946384604F005F88246F7
:100920004FF0804104F06EF88146314604F094F9AE
:1009300004463B480068B0F57A6F04DC394800682B
:10094000B0F57A6F00DD0024204604F01DF9BDE803
:10095000F08770B5002400250121344803F071F8B8
:10096000002846D00121314803F07CF86420FFF7CD
:10097000B1FE022000F0FFF840422D49086004203B
:1009800000F0F9F82B4908602B480078401C2A49F0
:100990000870084600780A2805D10020087000F089
:1009A0005EFB26490860FFF78BFF0446FFF751FF07
:1009B000054629462046FFF745FF164801681D48B1
:1009C0000068FFF706FF1E490860134801681848D1
:1009D0000068FFF7C5FE1B49086000F05FF9174883
:1009E000006800F07EF9174801681548006800F0BB
:1009F00022F970BD84000020700000208C000020CF
:100A00006C0000208800002078000020800000207A
:100A10007C000020180000201C000020CDCC4C3EA3
:100A20003C0000204000002000004844000400403A
:100A30000C000020080000207400002000000020AE
:100A4000100000201400002000B587B001210846E6
:100A500002F0A7F80121042002F096F80320ADF877
:100A6000000004208DF803006946614801F0D0FDC4
:100A700004A802F0EDFC0020ADF810004FF6FF7066
:100A8000ADF814000020ADF81600ADF8120004A96E
:100A90004FF0804002F0B0F900231A4603214FF0D6
:100AA000804002F0B8FD01A802F0E5FC0A20ADF894
:100AB0000C0001A9400702F032FC0121880702F076
:100AC000BDFF01221146900702F00DFD00214FF0FD
:100AD000804002F081FF0121880702F0E9FC07B0A5
:100AE00000BD00B587B00121042002F05AF80121B1
:100AF000082002F049F8C020ADF8000004208DF86D
:100B0000030069463B4801F083FD04A802F0A0FC05
:100B10000020ADF810004FF6FF70ADF81400002073
:100B2000ADF81600ADF8120004A9334802F064F9DC
:100B300000231A460321304802F06DFD01A802F09F
:100B40009AFC0A20ADF80C0001A92B4802F0E7FB43
:100B50000121294802F072FF01221146264802F0C5
:100B6000C2FC0021244802F037FF0121224802F094
:100B70009FFC07B000BD0146022904D003290BD019
:100B8000042919D10FE04FF08042928C10B200225C
:100B90004FF080439A8411E0184A128810B2002264
:100BA000164B1A800AE0144A2432128810B200222E
:100BB000114B24331A8001E0002000BF00BF7047B2
:100BC0000D48103000880C481030008820F00100DB
:100BD00009491031088070474FF08040008A4FF07B
:100BE0008040008A20F001004FF080410882704769
:100BF00000080140000C01400008004024040040AF
:100C000008B50121082001F0BFFF4FF47040ADF896
:100C1000000010208DF8030003208DF802006946C3
:100C2000384801F0F5FC08BD0146002901DA4842C8
:100C300000E00846704700B503460A46002B07DA75
:100C400001203149086000203049C1F8BC0106E0AC
:100C500000202D49086001202C49C1F8BC0118462C
:100C6000FFF7E2FF2A490880002A08DA0020264917
:100C7000091F086001202549C1F8B00107E00120E3
:100C80002149091F086000202049C1F8B001104621
:100C9000FFF7CAFF1E490C31088000BD1D480068DF
:100CA0001D49884202DA08461A4908601948006856
:100CB00041F65831884202DD084616490860174857
:100CC00000681549884202DA08461449086013484A
:100CD000006841F65831884202DD08460F49086035
:100CE000704770B50446204603F0F2FD05460C4AF5
:100CF0000C4B03F0BDFB04D20020064908600749F5
:100D0000086070BD000C0140B88121420080214282
:100D1000342C014010000020A8E4FFFF1400002044
:100D20009A9999999999194030B589B005460C4618
:100D30000121C80201F028FF0121042001F024FF55
:100D40004FF41060ADF8200018208DF82300032028
:100D50008DF8220008A91C4801F05AFCADF8185083
:100D6000ADF814400020ADF81A00ADF8160005A942
:100D7000164802F041F86020ADF804000120ADF8FB
:100D800006000020ADF80A00ADF80C0001A90F48DC
:100D900002F06FF801A90D4802F045F901210B4856
:100DA00002F092FB0821094802F0B2FC0821074832
:100DB00002F0CDFC0121054802F07AFC0121034834
:100DC00002F076FB09B030BD00080140002C014064
:100DD00010B586B004460121042001F0D5FE0121A2
:100DE000480401F0DEFE0420ADF8140003208DF865
:100DF000160018208DF8170005A9624801F008FCBC
:100E00000820ADF8140004208DF8170005A95D48EE
:100E100001F0FEFB01940020ADF80800ADF80A00D7
:100E2000ADF80C00ADF810000C20ADF80E0001A9D3
:100E3000554802F05EFE012240F22551524802F070
:100E4000F0FE0121504802F0E0FE06B010BD10B5E2
:100E500086B004460121082001F096FE0121880495
:100E600001F09FFE4FF48060ADF8140003208DF870
:100E7000160018208DF8170005A9444801F0C8FB9A
:100E80004FF40060ADF8140004208DF8170005A998
:100E90003E4801F0BDFB01940020ADF80800ADF81C
:100EA0000A00ADF80C00ADF810000C20ADF80E00F3
:100EB00001A9374802F01DFE012240F225513448B5
:100EC00002F0AFFE0121324802F09FFE06B010BDD5
:100ED00010B540F225512E4802F088FF10B32C487F
:100EE00002F004FF2B492C4A1278885408460078F7
:100EF000A52803D000202849087004E0264800787F
:100F0000401C254908702448007803280AD1002095
:100F1000214908701F4880781E49497840EA01201D
:100F20001E49086010BD10B540F22551164802F068
:100F30005DFF28B3144802F0D9FE1949194A127806
:100F4000885408460078A52803D000201549087069
:100F500004E014480078401C1249087011480078D9
:100F600003280DD100200F4908700D4880780C49E6
:100F7000497840EA01200C4908600846006808608A
:100F800010BD00000008014000440040000C01407A
:100F900000480040370000203B00002040000020B7
:100FA000340000203A0000203C00002000B587B04B
:100FB00001214FF4027001F0E7FD4FF4004001F011
:100FC00047FD0120ADF8040000208DF8070001A9BD
:100FD000324801F01DFB324801F004F80020029075
:100FE0008DF80C008DF80D004FF460200490002067
:100FF000059001208DF8180002A9294801F019F880
:101000000121274801F041F8254801F060F800BFB0
:10101000234801F061F80028FAD1214801F066F870
:1010200000BF1F4801F067F80028FAD107B000BDE3
:1010300010B50446072301222146194801F091F812
:101040000121174801F061F800BF0221144801F0A6
:10105000CDF90028F9D0124801F0EAF810BD2DE9C9
:10106000FC5F0820FFF7E4FF009003F0EDF98046F5
:101070004FF066320B4B03F037FA064600220A4B5C
:1010800003F032FA04460022084B03F011F88246BE
:1010900002F028FF01900198BDE8FC9F000C014080
:1010A0000024014066660A40000026400000B0406F
:1010B0000EB50121052001F067FD0820ADF80800FC
:1010C00010208DF80B0003208DF80A0002A92F488C
:1010D00001F09EFA0420ADF8080028208DF80B00DE
:1010E00002A92A4801F094FA0221002001F0A6FB8F
:1010F0000420009000208DF8040008208DF80500E1
:1011000001208DF80600684601F0A2F90EBD2DE918
:10111000F0410A20FFF7A9F9042001F0FFF930B3EC
:1011200000211B4802F058FC0121194802F0C0F9C7
:1011300000BF0421154801F0FEFA0028F9D1002172
:10114000134802F0B5F9124802F069FC804603F03A
:101150007BF906464FF033320E4B03F0C5F90446D7
:1011600002F0C0FE0C490860042001F0E8F9BDE877
:10117000F08110B50821054801F0F7FA1420FFF7B7
:1011800074F90821014801F0F2FA10BD000801408D
:10119000000400403333FB3F040000203EB5054609
:1011A0000C460121022001F0FCFCADF80450ADF822
:1011B00000400020ADF80600ADF802006946064880
:1011C00001F01AFE01224121034802F08CF90121AD
:1011D000014802F06DF93EBD0004004010B54FF427
:1011E0008071F84801F0C1FA4FF40071F54801F040
:1011F000BCFA4FF40071F34801F0B9FA4FF4807172
:10120000F04801F0B4FA10BD10B54FF48071ED480C
:1012100001F0ABFA4FF40071EA4801F0A8FA4FF47C
:101220000071E84801F0A1FA10BD10B54FF48071CB
:10123000E44801F09AFA4FF48071E24801F097FA1D
:1012400010BD2DE9F04105462C464FF48071DD4874
:1012500001F08DFA00261CE0274607F08007802F5A
:1012600004D1B900D74801F080FA04E04FF40071CE
:10127000D44801F07CFA6006040E4FF48071D14826
:1012800001F073FA4FF48071CE4801F070FA701CCF
:10129000C6B2082EE0DBBDE8F08110B50446FFF7CA
:1012A0009DFF7820FFF7CDFFFFF7BFFF0020FFF77E
:1012B000C8FFFFF7BAFF2046FFF7C3FFFFF7B5FFF0
:1012C000FFF7A2FF10BD10B50446FFF787FF782097
:1012D000FFF7B7FFFFF7A9FF4020FFF7B2FFFFF7C7
:1012E000A4FF2046FFF7ADFFFFF79FFFFFF78CFF3E
:1012F00010BD70B504460D461DB1E0B2FFF7E3FF27
:1013000002E0E0B2FFF7C9FF70BD70B506460024E9
:1013100018E004F1B0000021FFF7EBFF00210846C0
:10132000FFF7E7FF00211020FFF7E3FF002505E0AE
:1013300001213046FFF7DDFF681CC5B2802DF7DBC9
:10134000601CC4B2082CE4DB70BD06E041F6650108
:1013500000E0491E0029FCD1401E0028F6D170474C
:10136000014605E0002001E0421CD0B27B28FBDBF7
:101370000A1EA1F10101F5D1704770B504460D4672
:1013800005F1B0000021FFF7B4FF102141EA14106D
:101390000021FFF7AEFF04F00F000021FFF7A9FFC7
:1013A00070BD10B500218D20FFF7A3FF0021142090
:1013B000FFF79FFF0021AF20FFF79BFF10BD10B587
:1013C00000218D20FFF795FF00211020FFF791FFEE
:1013D0000021AE20FFF78DFF10BD70B5002418E08E
:1013E00004F1B0000021FFF784FF00210846FFF759
:1013F00080FF00211020FFF77CFF002505E0012180
:101400000020FFF776FF681CC5B2802DF7DB601C5B
:10141000C4B2082CE4DB70BD70B5002418E004F100
:10142000B0000021FFF765FF00210846FFF761FFCC
:1014300000211020FFF75DFF002505E0012108468F
:10144000FFF757FF681CC5B2802DF7DB601CC4B2E4
:10145000082CE4DB70BD2DE9F04707460E469046A8
:10146000994600250024A8F12000C5B27F2F02DD97
:101470000027B01CC6B2B9F1100F24D1314638464E
:10148000FFF77BFF002408E004EB05114E4A505C97
:101490000121FFF72EFF601CC4B2082CF4DB701C86
:1014A000C1B23846FFF769FF002409E004EB0511DB
:1014B0000831454A505C0121FFF71BFF601CC4B294
:1014C000082CF3DB12E031463846FFF756FF0024C4
:1014D0000AE005EB45013D4A02EB4101085D0121AF
:1014E000FFF707FF601CC4B2062CF2DBBDE8F087F3
:1014F00010B50246012000E050430B1EA1F101048B
:10150000E1B2F9D110BD2DE9FF5F074691461E46B5
:101510000E9D4FF0000A002435E0301B401EC1B282
:101520000A20FFF7E5FFB9FBF0F00A21B0FBF1F26A
:1015300001FB1208BAF1000F14D1701EA04211DD98
:10154000B8F1000F0CD1AB4605EBDB71491001FB84
:101550000471C8B22B4620220199FFF77CFF10E0EE
:101560004FF0010AAB4605EBDB71491001FB04713A
:10157000C8B208F13001CAB22B460199FFF76BFFE0
:1015800000BF601CC4B2B442C7DBBDE8FF9F2DE9B9
:10159000F04105460E4614461F460EE022783B46B3
:1015A00031462846FFF757FF05F10800C5B2782DF0
:1015B00002DD0025B01CC6B2641C20780028EDD1E5
:1015C000BDE8F081000C0140665100083E4F000864
:1015D0002DE9F04180460E4615460027314640462B
:1015E000FFF7CBFE00240AE0F74A02EB8511085D05
:1015F0000121FFF77EFE781CC7B2601CC4B2102C1C
:10160000F2DB701CC1B24046FFF7B7FE00240CE0CD
:101610006900491CEC4A02EB4111085D0121FFF70A
:1016200068FE781CC7B2601CC4B2102CF0DBBDE8A9
:10163000F0812DE9F05F06460F4690461C46DDF826
:1016400028A04FF0000BE11704EB5171C910A4EB77
:10165000C10131B92046E11704EB5171C1F3C7054F
:1016600006E02046E11704EB5171C910491CCDB2C8
:101670003D4615E029463046FFF77FFEB1460BE0B8
:1016800059460BF1010B1AF801000121FFF731FE59
:1016900009F1010000F0FF09C145F1DB681CC5B28A
:1016A000A542E7DBBDE8F09F2DE9FF5F86B0144659
:1016B0001D464FF0010A00200390049005904FF062
:1016C0000109002600BF8346002213462046294612
:1016D00002F0CEFE09D285F00040CDE90040204660
:1016E000019902F03DFE064604E02046294602F03C
:1016F00037FE0646304602F090FE22462B46CDE9E4
:10170000000102F0EFFF074688460022AF4B384643
:10171000414602F0E9FECDE9000102F051FE8346A8
:1017200007E009EB89004FEA40090AF1010000F0E7
:10173000FF0A0A2096FBF0F090FBF9F00028F0D1A8
:1017400042F2107096FBF0F00A2190FBF1F201FBDF
:101750001200C0B28DF80C004FF47A7096FBF0F0D6
:1017600090FBF1F201FB1200C0B28DF80D00642075
:1017700096FBF0F090FBF1F201FB1200C0B28DF885
:101780000E000A2096FBF0F090FBF1F201FB120034
:10179000C0B28DF80F000A2096FBF0F100FB11603B
:1017A000C0B28DF810002E208DF811004FF47A7021
:1017B000BBFBF0F00A21B0FBF1F201FB12008DF847
:1017C00012006420BBFBF0F0B0FBF1F201FB120051
:1017D0008DF813000A20BBFBF0F0B0FBF1F201FB27
:1017E00012008DF814000A20BBFBF0F100FB11B0D1
:1017F0008DF8150000211498801D03AA1154894604
:1018000008E003A810F80900303003A901F8090026
:1018100009F10109B9F10A0FF3DB00221346204652
:10182000294602F025FE08D20AF1010000F0FF0A65
:101830002D20CAF1050103AA50542E208DF8110065
:1018400000211498801D03AA1154CAF1050003A9B0
:1018500042180C23DDE90610FFF799FE0AB0BDE837
:10186000F09F2DE9F04F89B0824689461746984689
:10187000DDF84CB001200790002004900590069000
:101880000124002500BF00264FEAC9604FEA106915
:101890003846414602F064FD0546284602F0D4FD74
:1018A0003A464346CDE9000102F01CFFCDE90201B2
:1018B0000022464BDDE9020102F016FECDE90001EF
:1018C00002F07EFD064606E004EB84004400079823
:1018D000401CC0B207900A20B5FBF0F0B0FBF4F05A
:1018E0000028F1D142F21070B5FBF0F00A21B0FBF4
:1018F000F1F201FB12008DF810004FF47A70B5FB85
:10190000F0F0B0FBF1F201FB12008DF81100642041
:10191000B5FBF0F0B0FBF1F201FB12008DF8120004
:101920000A20B5FBF0F0B0FBF1F201FB12008DF8DC
:1019300013002E208DF815004FF47A70B6FBF0F0EE
:10194000B0FBF1F201FB12008DF816006420B6FB2B
:10195000F0F0B0FBF1F201FB12008DF817000A2045
:10196000B6FBF0F0B0FBF1F201FB12008DF81800AD
:101970000A20B6FBF0F100FB11608DF81900002180
:101980000BF1060004AA1154002405E004A8005D30
:10199000303004A90855641C0A2CF7DB2E208DF882
:1019A000150000210BF1060004AA11541298C0F191
:1019B000050004A942180C2351464846FFF7E7FDED
:1019C00009B0BDE8F08F0000900000200088C340FF
:1019D0002DE9F04105460F46164600BF05EB4501CF
:1019E0004906080E3946FFF7C8FC00240BE006F153
:1019F000100101EB4101FB4A02EB4101085D0121AD
:101A0000FFF777FC641C062CF1DBBDE8F0812DE9C3
:101A1000F04105460F46164600BF05EB4501490655
:101A2000080E3946FFF7A9FC002409E006EB460141
:101A3000EC4A02EB4101085D0121FFF75AFC641CEE
:101A4000062CF3DBBDE8F0812DE9F0470546894619
:101A500016463446002C22DA6442642094FBF0F1EE
:101A600000FB11400A2190FBF1F0C7B20A2094FB61
:101A7000F0F100FB114000F0FF080D224946284616
:101A8000FFF7C5FF691CC8B23A464946FFF7A0FFF9
:101A9000A91CC8B242464946FFF79AFF20E06420DD
:101AA00094FBF0F100FB11400A2190FBF1F0C7B26A
:101AB0000A2094FBF0F100FB114000F0FF080B221C
:101AC00049462846FFF7A3FF691CC8B23A46494673
:101AD000FFF77EFFA91CC8B242464946FFF778FFD0
:101AE000BDE8F0872DE9F04705468A46164634469C
:101AF000002C2DDA64420D2251462846FFF787FF5D
:101B00000A2094FBF0F100FB1140C7B20A2094FBBD
:101B1000F0F00A2190FBF1F201FB120000F0FF0847
:101B2000642094FBF0F000F0FF09E91CC8B23A46CB
:101B30005146FFF74DFFA91CC8B242465146FFF778
:101B400047FF691CC8B24A465146FFF741FF2BE0E8
:101B50000B2251462846FFF75AFF0A2094FBF0F16A
:101B600000FB1140C7B20A2094FBF0F00A2190FB61
:101B7000F1F201FB120000F0FF08642094FBF0F08A
:101B800000F0FF09E91CC8B23A465146FFF720FFB2
:101B9000A91CC8B242465146FFF71AFF691CC8B2D9
:101BA0004A465146FFF714FFBDE8F0872DE9F05F84
:101BB00005468B4616463446002C00DA64424FF444
:101BC0007A7094FBF0F0C7B24FF47A7094FBF0F1A6
:101BD00000FB1140642190FBF1F000F0FF0864204D
:101BE00094FBF0F100FB11400A2190FBF1F000F0B2
:101BF000FF090A2094FBF0F100FB114000F0FF0AFE
:101C00003A4659462846FFF7E3FE691CC8B24246E9
:101C10005946FFF7DDFEA91CC8B24A465946FFF7F0
:101C2000D7FEE91CC8B252465946FFF7D1FEBDE8BF
:101C3000F09F2DE9F05F05460E46144642F2107003
:101C4000B4FBF0F0C7B242F21070B4FBF0F100FB4D
:101C500011404FF47A71B0FBF1F000F0FF08084634
:101C6000B4FBF0F100FB11406421B0FBF1F000F097
:101C7000FF096420B4FBF0F100FB11400A21B0FB26
:101C8000F1FA0A20B4FBF0F100FB114B3A46314661
:101C90002846FFF79DFE691CC8B242463146FFF751
:101CA00097FEA91CC8B24A463146FFF791FEE91CCF
:101CB000C8B252463146FFF78BFE291DC8B25A46BC
:101CC0003146FFF785FEBDE8F09F08B501210920E8
:101CD00000F05AFF0121444800F06BFD4FF44070C2
:101CE000ADF8000010208DF8030003208DF80200ED
:101CF00069463E4800F08CFC4FF440713B4800F0D0
:101D000034FD4FF44870FEF7D4FB0021AE20FFF7FE
:101D1000F0FA00210846FFF7ECFA00211020FFF747
:101D2000E8FA00214020FFF7E4FA0021B020FFF795
:101D3000E0FA00218120FFF7DCFA0021FF20FFF705
:101D4000D8FA0021A120FFF7D4FA0021A620FFF73E
:101D5000D0FA0021A820FFF7CCFA00213F20FFF79E
:101D6000C8FA0021C820FFF7C4FA0021D320FFF7EA
:101D7000C0FA00210846FFF7BCFA0021D520FFF782
:101D8000B8FA00218020FFF7B4FA0021D820FFF72D
:101D9000B0FA00210520FFF7ACFA0021D920FFF7A7
:101DA000A8FA0021F120FFF7A4FA0021DA20FFF7BA
:101DB000A0FA00211220FFF79CFA0021DB20FFF798
:101DC00098FA00213020FFF794FA00218D20FFF7C8
:101DD00090FA00211420FFF78CFA0021AF20FFF7C2
:101DE00088FA08BD3E4F000800023000000C014098
:101DF00010B50C2324A202210020FFF7C8FB0C23FE
:101E000023A202215A20FFF7C2FB0C2321A20421A6
:101E10000120FFF7BCFB0C2320A204213C20FFF78C
:101E2000B6FB0C231FA206210120FFF7B0FB0C23F9
:101E30001EA206213C20FFF7AAFB10BD38B51D48A5
:101E4000006802F045FD0446022022460B46302180
:101E50000090FFF729FC1848042102680846FFF7A4
:101E6000A5FE1648042102680E20FFF79FFE1448C5
:101E7000062102680420FFF7E7FD124806210268E8
:101E80000E20FFF7E1FD38BD424154203A0000002A
:101E900056000000444C3A200000000044523A2012
:101EA00000000000454C3A200000000045523A2056
:101EB00000000000000000203C0000204000002046
:101EC000080000200C00002009488047094800470E
:101ED000FEE7FEE7FEE7FEE7FEE7FEE7FEE7FEE7DA
:101EE000FEE7FEE704480549054A064B7047000037
:101EF00037030008ED000008C8040020C80A0020CD
:101F0000C8060020C806002031490143314A11604B
:101F1000704770B5002100230F22C47804B32D4C04
:101F2000246804F4E064C4F5E064210AC1F1040308
:101F3000CA40447804FA03F184781440214309012B
:101F4000254C0678A155047804F01F050124AC4007
:101F500005786D11AD0005F1E025C5F8004109E0F7
:101F6000047804F01F050124AC401C4D067876115E
:101F700045F8264070BD1A4A0A400243154B1B1F04
:101F80001A60704739B1134A121D12680243114B8F
:101F90001B1D1A6006E00F4A121D126882430D4B8A
:101FA0001B1D1A607047042808D14FF0E021096911
:101FB00041F004014FF0E022116107E04FF0E02111
:101FC000096921F004014FF0E0221161704700001F
:101FD0000000FA050CED00E000E400E080E100E024
:101FE00080FFFF1F10B50446FA48844208D1012142
:101FF000401500F0E3FD0021601500F0DFFD17E063
:10200000F548844208D10121001500F0D7FD0021D8
:10201000201500F0D3FD0BE0F048844208D10121E7
:10202000C80300F0CBFD00214FF4004000F0C6FDD6
:1020300010BD30B50246002000235068E84C204017
:102040000D790C6844EA0524204350609068E54C03
:102050002040D1E902542C434D7944EA4504204301
:102060009060D06A20F470000C7C641EE4B22343BC
:1020700040EA0350D06230BD00210160017141711E
:102080008160C16001210174704721B1826842F012
:102090000102826003E0826822F0010282607047E0
:1020A00021B1826842F48072826003E0826822F487
:1020B00080728260704710B50023CBB21AB14468B9
:1020C0001C43446002E044689C43446010BD816846
:1020D00041F0080181607047014600208A6802F0E3
:1020E00008020AB1012000E000207047816841F039
:1020F000040181607047014600208A6802F00402F2
:102100000AB1012000E00020704721B1826842F44A
:10211000A002826003E0826822F4A002826070471D
:10212000014600208A6802F480020AB1012000E022
:102130000020704710B50A4600210023416821F4B1
:102140006041531E41EA4331416010BD21B14268F4
:1021500042F40062426003E0426822F4006242609E
:102160007047F0B504460D4600200021092D11DD11
:10217000E068A5F10A0606EB4607072606FA07F10E
:102180008843A5F10A0606EB460603FA06F1084362
:10219000E0600CE0206905EB4507072606FA07F129
:1021A000884305EB450603FA06F108432061072A38
:1021B0000FDA606B561E06EB86071F2606FA07F13C
:1021C0008843561E06EB860605FA06F1084360634F
:1021D00022E00D2A0FDA206BD61F06EB86071F269A
:1021E00006FA07F18843D61F06EB860605FA06F1C4
:1021F0000843206310E0E06AA2F10D0606EB8607B3
:102200001F2606FA07F18843A2F10D0606EB8606A3
:1022100005FA06F10843E062F0BD21B1826842F49C
:102220008012826003E0826822F48012826070472C
:102230000146C86C80B2704766484C3000687047F1
:1022400021B1426842F48062426003E0426822F4B5
:1022500080624260704721B1426842F4805242601D
:1022600003E0426822F48052426070470A4600212F
:10227000816821F4E04111438160704721B1826897
:1022800042F40042826003E0826822F400428260ED
:10229000704721B1826842F40212826003E08268D2
:1022A00022F4021282607047014600208A6802F41C
:1022B00000120AB1012000E000207047F0B504468A
:1022C0001546002000220026092911DDE068A1F151
:1022D0000A0707EB470C072707FA0CF29043A1F116
:1022E0000A0707EB470703FA07F21043E0600CE028
:1022F000206901EB410C072707FA0CF2904301EB30
:10230000410703FA07F210432061A06BC0F30156A6
:10231000EF1C06F1010CA7EB0C0707EB870C1F273E
:1023200007FA0CF29043EF1C06F1010CA7EB0C0727
:1023300007EB870701FA07F21043A063F0BD10B561
:102340000A4600210023816B21F44011531E41EA0B
:102350000351816310BD08B5002300930090009BDA
:102360000B440093009B1A6008BD08B5024600208C
:102370000090009201F12800009B18440090009802
:10238000006880B208BD0A4600214168164B19401A
:102390001143416070474162826270470A460021E2
:1023A000416821F01F0111434160704740B1094964
:1023B0000831096841F40001064A0832116007E05B
:1023C00004490831096821F40001024A0832116009
:1023D000704700000024014000280140003C0140FB
:1023E000FFFEF0FFFDF7F1FFFFFD3FFF024600207B
:1023F00013680B400BB1012000E000207047CA4376
:102400000260704770B502460020002300240B12C2
:102410005568CEB205EA060415681D4015B10CB129
:10242000012000E0002070BD00220A12D3430360A7
:1024300070470000002044490860091D0860091D1C
:102440000860091D086041483F4914310860704721
:1024500000213D498279002A3AD00A461268036871
:102460009A430B461A600A1D126803689A430B1DB3
:102470001A60027911440A6803681A430A60324AF2
:102480000832126803689A432F4B08331A601A1DEA
:10249000126803689A432C4B0C331A604279102A55
:1024A0000ED11A1F126803681A43274B08331A60AB
:1024B0001A1D126803681A43234B0C331A600DE08F
:1024C0002149427911440A6803681A430A6005E009
:1024D000027911440A6803689A430A607047002130
:1024E000016001710C214171002181717047164911
:1024F000103109680143144A1032116070470146D7
:102500000020114A143212680A400AB1012000E08A
:10251000002070470C4914310860704701460020C4
:102520000022094B1B6803EA0102074B14331B68A6
:102530000B4013B10AB1012000E0002070470249AE
:10254000143108607047000000040140FFFF0F00D5
:1025500010B50446CC48844208D10121042000F083
:102560002DFB0021042000F029FB46E0C7488442EF
:1025700008D10121082000F021FB0021082000F0F3
:102580001DFB3AE0C248844208D10121102000F02E
:1025900015FB0021102000F011FB2EE0BD48844205
:1025A00008D10121202000F009FB0021202000F0AB
:1025B00005FB22E0B848844208D10121402000F008
:1025C000FDFA0021402000F0F9FA16E0B3488442F9
:1025D00008D10121802000F0F1FA0021802000F0D4
:1025E000EDFA0AE0AE48844207D10121801500F0DF
:1025F000E5FA0021A01500F0E1FA10BD10B50121A7
:10260000084600F0DBFA0021012000F0D7FA10BDE7
:102610002DE9F04102460025002600200023002479
:10262000002791F803C00CF00F0591F803C00CF0DF
:10263000100CBCF1000F03D091F802C04CEA050564
:1026400091F800C0BCF1000F31D0146800202BE0DD
:102650004FF0010C0CFA00F3B1F800C00CEA0306CD
:102660009E4220D183004FF00F0C0CFA03F7BC43BD
:1026700005FA03FC4CEA040491F803C0BCF1280FEE
:1026800006D14FF0010C0CFA00FCC2F814C00AE0AD
:1026900091F803C0BCF1480F05D14FF0010C0CFAC2
:1026A00000FCC2F810C0401C0828D1D31460B1F857
:1026B00000C0BCF1FF0F34DD546800202EE000F1B3
:1026C000080C4FF0010808FA0CF3B1F800C00CEA4E
:1026D00003069E4221D183004FF00F0C0CFA03F742
:1026E000BC4305FA03FC4CEA040491F803C0BCF1B6
:1026F000280F05D100F1080C08FA0CF8C2F8148074
:1027000091F803C0BCF1480F07D100F1080C4FF05D
:10271000010808FA0CF8C2F81080401C0828CED333
:102720005460BDE8F0814FF6FF7101800221817095
:102730000421C17070470246002093680B400BB122
:10274000012000E0002070470146886880B2704791
:1027500002460020D3680B400BB1012000E00020AE
:1027600070470146C86880B2704701617047416197
:1027700070470AB1016100E041617047C160704774
:102780004FF480320A438261816182618269826989
:10279000704702460020434B18684FF6807318407C
:1027A00040EA021008433F4B186070473E49C86139
:1027B0007047F0B50A46002300240021002500F0F0
:1027C0000046B6F1004F02D1364EF16901E0354EB8
:1027D0007168C0F3034583B200F44016B6F5401F9C
:1027E00008D121F070612F4E766826F070662D4F6B
:1027F0007E6012E000F48016B6F5801F06D1032635
:1028000006FA05F4A14341F0706106E0460D360179
:1028100003FA06F6B14341F0706122B1460D36016C
:1028200003FA06F6314300F00046B6F1004F02D13C
:102830001C4EF16101E01B4E7160F0BD30B500220D
:102840008B071C0F0F2303FA04F2164B08338C106E
:1028500053F824309343134C08348D1044F825303A
:1028600023468C1053F824308C07240F00FA04F40C
:1028700023430C4C08348D1044F8253030BD0A49F0
:10288000DC3108607047000000080140000C014086
:10289000001001400014014000180140001C0140DC
:1028A000002001400000014000002042DF48006895
:1028B00040F00100DD49086008464068DC490840F6
:1028C000DA49486008460068DA490840D749086094
:1028D0000846006820F4802008600846406820F41C
:1028E000FE0048604FF41F0088607047CF490968B8
:1028F00021F48031CD4A11601146096821F480210C
:102900001160B0F5803F03D0B0F5802F0ED106E006
:10291000C649096841F48031C44A116007E0C349DF
:10292000096841F4A021C14A116000E000BF00BF66
:10293000704710B501460022002300204A11012AE9
:1029400002D1BA4C236806E0022A02D1B74C236AAE
:1029500001E0B64C636A01F01F02012494401C4060
:102960000CB1012000E0002010BD38B5002000901F
:102970000024002500BF3120FFF7DBFF054600984B
:10298000401C00900098B0F5A06F01D0002DF2D04F
:102990003120FFF7CEFF08B1012400E000242046DB
:1029A00038BD01460020A14A106820F0F80040EA36
:1029B000C10010607047A0490860704702460020BF
:1029C0009A4B586820F47C1042EA01031843974B55
:1029D0005860704798490866704701460020934A3E
:1029E000506820F003000843506070478F484068EB
:1029F00000F00C007047014600208C4A506820F01F
:102A0000F00008435060704701460020874A506834
:102A100020F4E06008435060704701460020834A7C
:102A2000506820F4605040EAC1005060704729B1FE
:102A30007E4A527A02437D4B5A7204E07B4A527AB4
:102A400082437A4B5A7270477B49D831086070478D
:102A500001460020754A506820F440400843506009
:102A600070470021714A20321170704A82F820109C
:102A7000012802D004280AD104E001216B4A203247
:102A8000117005E00521694A2032117000E000BF95
:102A900000BF70476949086070476449096A01438B
:102AA000624A11627047654944390860704730B521
:102AB00000210022002400235C4D6D6805F00C010C
:102AC00021B1042905D0082923D105E05C4D05601A
:102AD00022E05B4D05601FE0544D6D6805F47012F7
:102AE000524D6D6805F48034022505EB92421CB905
:102AF000544D554305600BE04C4D6D6805F40035B1
:102B00001DB1504D5543056002E04D4D55430560E4
:102B100002E04B4D056000BF00BF444D6D6805F0FD
:102B2000F0010909484D6B5C0568DD4045603F4D8B
:102B30006D6805F4E061090A434D6B5C4568DD4052
:102B400085603A4D6D6805F46051C90A3E4D6B5C75
:102B50004568DD40C560354D6D6805F44041890B21
:102B60003A4D6B5CC568B5FBF3F5056130BD29B125
:102B70002E4A526902432D4B5A6104E02B4A526996
:102B800082432A4B5A61704729B1284A926902430D
:102B9000264B9A6104E0254A92698243234B9A614D
:102BA000704729B1214AD2690243204BDA6104E01F
:102BB0001E4AD26982431D4BDA61704729B11B4A14
:102BC000D2680243194BDA6004E0184AD2688243A3
:102BD000164BDA60704729B1144A12690243134B4D
:102BE0001A6104E0114A12698243104B1A6170475E
:102BF00012494039086070470F49C86470470B4953
:102C0000C87170470948406A40F0807007494862BF
:102C1000704701460020054A92680A400AB1012027
:102C200000E00020704701498872704700100240A0
:102C30000000FFF8FFFFF6FE00004242800442421F
:102C400000127A0000093D0010040020200400203A
:102C500010B50446FE48844208D10121C014FFF794
:102C6000ADFF0021E014FFF7A9FFC4E0B4F1804FED
:102C700008D101210846FFF7AEFF00210120FFF730
:102C8000AAFFB8E0F348844208D101210220FFF7EF
:102C9000A2FF00210220FFF79EFFACE0EE48844235
:102CA00008D101210420FFF796FF00210420FFF73F
:102CB00092FFA0E0E948844208D101210820FFF7F3
:102CC0008AFF00210820FFF786FF94E0E448844251
:102CD00008D101211020FFF77EFF00211020FFF70F
:102CE0007AFF88E0DF48844208D101212020FFF7E5
:102CF00072FF00212020FFF76EFF7CE0DA4884425B
:102D000008D101214014FFF759FF00216014FFF79B
:102D100055FF70E0D548844209D10121C804FFF76E
:102D20004DFF00214FF40020FFF748FF63E0D0483B
:102D3000844209D101210805FFF740FF00214FF42B
:102D40008010FFF73BFF56E0CA48844209D10121B9
:102D50004805FFF733FF00214FF40010FFF72EFF67
:102D600049E0C548844208D101214020FFF733FFE4
:102D700000214020FFF72FFF3DE0C048844208D1EA
:102D800001218020FFF727FF00218020FFF723FF8C
:102D900031E0BB48844208D101218015FFF71BFFB9
:102DA0000021A015FFF717FF25E0B648844209D19E
:102DB00001210804FFF702FF00214FF48030FFF7E4
:102DC000FDFE18E0B048844209D101214804FFF714
:102DD000F5FE00214FF40030FFF7F0FE0BE0AB48AA
:102DE000844208D101218804FFF7E8FE00214FF456
:102DF0008020FFF7E3FE10BD00220288944B98422A
:102E00000ED0994B98420BD0B0F1804F08D0914B27
:102E1000984205D0904B984202D0904B984204D1F2
:102E20004FF68F731A404B881A438D4B984207D048
:102E30008C4B984204D04FF6FF431A40CB881A437C
:102E400002808B8883850B880385814B98420BD049
:102E5000854B984208D08B4B984205D08A4B9842BC
:102E600002D08A4B984201D10B7A038601238382D8
:102E7000704770B5002400220023058C4FF6FE76C3
:102E800035400584028C8388048B4FF68F752C4067
:102E9000B51E2C400D882C43751E2A400D892A43EF
:102EA0004D882A436A4DA8420BD06F4DA84208D0E6
:102EB000744DA84205D0744DA84202D0734DA8426B
:102EC00013D14FF6F7752A404D892A434FF6FB750B
:102ED0002A408D882A434FF6FF652B404FF6FF5559
:102EE0002B408D892B43CD892B4383800483CD8850
:102EF0008586028470BD70B5002400220023058CF5
:102F00004FF6EF7635400584028C8388048B48F6B3
:102F1000FF752C404FF6FF452C400D884FF6FF768D
:102F200006EA05252C434FF6DF752A400D8906EA8F
:102F300005152A434D8806EA05152A43444DA84243
:102F400002D0494DA8421DD14FF67F752A404D89C8
:102F50004FF6FF7606EA05152A434FF6BF752A405D
:102F60008D8806EA05152A434FF6FF352B404FF2B0
:102F7000FF752B408D8906EA85052B43CD8906EA2E
:102F800085052B4383800483CD880587028470BD2B
:102F900070B5002400220023058C4FF6FF663540F3
:102FA0000584028C8388848B4FF68F752C404FF6F6
:102FB000FC752C400D882C434FF6FF552A400D8997
:102FC0004FF6FF7606EA05252A434D8806EA0525D1
:102FD0002A431F4DA84202D0234DA8421DD14FF2D3
:102FE000FF752A404D894FF6FF7606EA05252A43EC
:102FF0004FF6FF352A408D8806EA05252A434EF60E
:10300000FF752B404DF6FF752B408D8906EA05159F
:103010002B43CD8906EA05152B4383808483CD8815
:103020008587028470BD70B5002200230024058CC2
:103030004EF6FF7635400584038C8488828B48F6F3
:10304000FF752A404FF6FF452A400D8820E000001A
:10305000002C01400004004000080040000C00402B
:10306000001000400014004000340140004C0140BA
:10307000005001400054014000180040001C004076
:103080000020004000400140004401400048014051
:103090004FF6FF7606EA05252A434DF6FF752B40CD
:1030A0000D8906EA05352B434D8806EA05352B4385
:1030B000FA4DA84202D0FA4DA84208D14BF6FF754E
:1030C0002C408D894FF6FF7606EA85152C438480C7
:1030D0008283CD88A0F84050038470BD828B4FF26C
:1030E000FF331A408283828B4FF6FF7303EA01237A
:1030F0001A4382837047F0B50C4615460022002122
:103100000026078C4EF6FF7C07EA0C070784828BAB
:10311000018C4FF6FF7707EA043640F6FF473A4046
:103120004FF6FF7707EA05273A434FF6FF7707EA9E
:1031300003373A43D94FB8420ED0D94FB8420BD0DB
:10314000B0F1804F08D0D74FB84205D0D64FB84223
:1031500002D0D64FB84206D14DF6FF77394046F43B
:103160008057394305E047F6FF57394044F480570C
:10317000394382830184F0BD828B4FF6F3731A408A
:103180008283828B0A4382837047F0B50C461546D2
:10319000002200210026078C4FF6FF6C07EA0C077F
:1031A0000784828B018C4FF6FF7707EA04264FF6DF
:1031B0000C773A404FF6FF7707EA03172F433A435D
:1031C000B64FB8420ED0B64FB8420BD0B0F1804FD8
:1031D00008D0B44FB84205D0B34FB84202D0B34F75
:1031E000B84206D14FF6FF57394046F4807739434D
:1031F00005E04FF2FF57394044F48077394382832A
:103200000184F0BD028B4FF2FF331A400283028B20
:103210004FF6FF7303EA01231A4302837047F0B5A8
:103220000C461546002200210026078C4FF6EF7C45
:1032300007EA0C070784028B018C4FF6FF7707EA39
:10324000041640F6FF473A404FF6FF7707EA033788
:103250003A434FF6FF7707EA05273A438F4FB842C4
:103260000ED08F4FB8420BD0B0F1804F08D08D4FA9
:10327000B84205D08C4FB84202D08C4FB84206D12C
:103280004FF6DF77394046F01007394305E04FF637
:103290005F77394044F01007394302830184F0BD61
:1032A000028B4FF6F3731A400283028B0A430283A8
:1032B0007047F0B50C46154600220021068C4FF6EB
:1032C000FE773E400684028B018C4FF60C7632402E
:1032D0007E1C06EA03162E433243704EB0420ED0D7
:1032E0006F4EB0420BD0B0F1804F08D06D4EB0425F
:1032F00005D06D4EB04202D06C4EB04206D14FF6B2
:10330000FD76314044F00106314305E04FF6F57695
:10331000314044F00106314302830184F0BD70B5B1
:1033200005460C465D4885420ED05D4885420BD06F
:10333000B5F1804F08D05B48854205D05A48854298
:1033400002D05A48854200D100E000BF208850B921
:103350002389A28861882846FFF7ABFFE1882846C9
:10336000FFF79EFF25E0208804280AD12389A28840
:1033700061882846FFF753FFE1882846FFF742FFA0
:1033800017E0208808280AD12389A2886188284666
:10339000FFF7FBFEE1882846FFF7EEFE09E02389F0
:1033A000A28861882846FFF7A6FEE1882846FFF735
:1033B00095FE70BD2DE9F04105460C46002601271B
:1033C000608808B9022600E00026A088012801D103
:1033D000022700E001272088A0B92389A2886188FC
:1033E0002846FFF766FFE1882846FFF759FF238943
:1033F0003A4631462846FFF712FFE1882846FFF794
:1034000001FF13E02389A28861882846FFF707FFA0
:10341000E1882846FFF7F6FE23893A4631462846DA
:10342000FFF747FFE1882846FFF73AFFBDE8F08144
:103430000A884B881A438B881A43CB881A430B8916
:103440001A434B891A438B891A43A0F844207047CA
:103450004FF6FF71818000210180C180418001729F
:1034600070470021018041808180C18001814181BC
:103470008181C181704700210180418001218180CB
:103480000021C1800181704700210180418081803D
:10349000C18001814181818170470000002C014081
:1034A000003401400004004000080040000C0040CF
:1034B00021B1028842F00102028004E002884FF646
:1034C000FE731A400280704731B1B0F8442042F4D4
:1034D0000042A0F8442005E0B0F84420C2F30E02F8
:1034E000A0F8442070471AB183890B43838102E01E
:1034F00083898B43838170478182704741EA02034D
:10350000A0F8483070471AB183890B43838102E0E9
:1035100083898B438381704701894FF6F87211408C
:10352000018170470A46002101894FF68F731940C7
:1035300011430181704730B504460D4629462046A7
:10354000FFF7F0FF208940F00700208130BD2DE912
:10355000F04104460D4616461F46602D06D13B46F7
:10356000012231462046FFF75AFE05E03B46012284
:1035700031462046FFF79DFE29462046FFF7D2FF41
:10358000208940F007002081BDE8F08130B50C466D
:1035900000210189C9B24FF6FF7505EA03251543DD
:1035A00025432943018130BD2DE9F04105460E46F2
:1035B00017469846002443463A4631462846FFF7C8
:1035C000E5FF2C894FF6F870044044F007044FF6ED
:1035D0008F70044044F070042C81BDE8F081F0B598
:1035E00004460D4616461F463B46324629462046AF
:1035F000FFF7CCFF208940F480402081F0BD018599
:10360000828270470A46002101884FF68F73194065
:10361000114301807047F0B50C4615461E46002147
:10362000002200230189028B038C4FF6F877394082
:1036300021434FF6FC473A4040F201173A434FF618
:10364000DD773B404FF6FF7707EA06172F433B43F2
:10365000018102830384F0BD0A460021018B4FF6ED
:103660008F7319401143018370470A460021018B73
:1036700048F6FF7319404FF6FF7303EA022319431C
:10368000018370470A460021818B4FF68F731940E2
:103690001143818370470A460021818B48F6FF73EE
:1036A00019404FF6FF7303EA0223194381837047E1
:1036B00021B1028842F08002028004E002884FF6C5
:1036C0007F731A400280704721B1828842F0040261
:1036D000828004E082884FF6FB731A408280704734
:1036E00021B1828842F00802828004E082884FF68D
:1036F000F7731A408280704721B1828842F001023C
:10370000828004E082884FF6FE731A408280704700
:103710000A460021018B4FF6F773194011430183CC
:1037200070470A460021018B4FF2FF7319404FF694
:10373000FF7303EA02231943018370470A460021FD
:10374000818B4FF6F77319401143818370470A4606
:103750000021818B4FF2FF7319404FF6FF7303EA8C
:1037600002231943818370470A460021018B4FF6DB
:10377000FB7319401143018370470A460021018BF6
:103780004FF6FF3319404FF6FF7303EA0223194344
:10379000018370470A460021818B4FF6FB73194065
:1037A0001143818370470A460021818B4FF6FF3316
:1037B00019404FF6FF7303EA0223194381837047D0
:1037C0000A460021018B4FF67F7319401143018394
:1037D00070470A460021018BC1F30E014FF6FF73BB
:1037E00003EA02231943018370470A460021818BB3
:1037F0004FF67F7319401143818370470A460021B9
:10380000818BC1F30E014FF6FF7303EA02231943C4
:10381000818370470A460021018C4FF6FD731940E1
:103820001143018470470A460021018C4FF6F7735B
:1038300019401143018470470A460021018C4FF65C
:10384000DF7319404FF6FF7303EA02131943018433
:1038500070470A460021018C4FF67F7319404FF6DE
:10386000FF7303EA02131943018470470A460021DB
:10387000018C4FF6FF5319404FF6FF7303EA022302
:103880001943018470470A460021018C4FF2FF73EF
:1038900019404FF6FF7303EA02231943018470476E
:1038A0000A460021018C4DF6FF7319404FF6FF7355
:1038B00003EA023319430184704730B50023012421
:1038C0008C40A3B2048C9C430484048C02FA01F55E
:1038D000ADB22C43048430BD30B5002304248C40A9
:1038E000A3B2048C9C430484048C02FA01F5ADB2AB
:1038F0002C43048430BD70B50346002000241846D4
:10390000183001258D40ACB21D8CA5431D8409B132
:10391000082909D100EB6100056825F070050560F4
:103920000568154305600EE00D1FC5F34E052844DC
:10393000056825F4E045056005684FF6FF7606EA60
:1039400002263543056070BD21B1028842F00202B3
:10395000028004E002884FF6FD731A40028070472F
:1039600021B1028842F00402028004E002884FF68E
:10397000FB731A400280704721B1828842F08002B6
:10398000828004E082884FF67F731A4082807047FD
:1039900002884FF6F7731A40028002880A430280B9
:1039A000704782884FF68F731A40828082880A435C
:1039B0008280704702894FF6F8731A4002810289AB
:1039C0000A430281704702894FF67F731A400281D1
:1039D00002890A430281704781847047818570475C
:1039E000818670470187704781877047A0F8401033
:1039F000704702884FF6FF431A40028002880A434C
:103A0000028070470146888E70470146088F7047D4
:103A10000146888F70470146B1F840007047014663
:103A2000888C70470146088D704702460020138A33
:103A30000B400BB1012000E000207047CA43028216
:103A4000704730B50246002000230024158A05EA9D
:103A50000103958905EA010413B10CB1012000E0CE
:103A6000002030BDCA4302827047000010B50446F2
:103A7000FB48844209D101218803FFF79FF8002108
:103A80004FF48040FFF79AF832E0F648844209D1BB
:103A900001214804FFF79FF800214FF40030FFF7A1
:103AA0009AF825E0F048844209D101218804FFF703
:103AB00092F800214FF48020FFF78DF818E0EB48D2
:103AC000844209D10121C804FFF785F800214FF491
:103AD0000020FFF780F80BE0E548844208D101217F
:103AE0000805FFF778F800214FF48010FFF773F80E
:103AF00010BD2DE9F04786B005460E460024A246CB
:103B000000BFA1460027B08900B100BF2F462C8A14
:103B10004CF6FF700440F08804432C82AC894EF6CA
:103B2000F3100440B0883189084371890843044385
:103B3000AC81AC8A4FF6FF400440B0890443AC82AC
:103B400001A8FEF7B4FFC648874202D1DDF810A0F5
:103B500001E0DDF80CA0A88900F4004040B10AEBB8
:103B6000CA0000EB0A1031684900B0FBF1F807E029
:103B70000AEBCA0000EB0A1031688900B0FBF1F8CB
:103B80006420B8FBF0F004012009642101FB1089D6
:103B9000A88900F4004040B1322000EBC900B0FB1E
:103BA000F1F000F00700044308E0322000EB0910B8
:103BB0006421B0FBF1F000F00F0004432C8106B04B
:103BC000BDE8F0874FF41651016000218180C1806B
:103BD00001810C21418100218181704710B502468D
:103BE0000020108A4FF2FF0318400B884C882343B3
:103BF0008C882343CC8823431843108210BD0021B6
:103C0000018041808180C180704721B1828942F466
:103C10000052828104E082894DF6FF731A4082814E
:103C20007047F0B50346002400260025002040F62A
:103C30006A17B94200D100BF1846C1F3421401F01F
:103C40001F06012707FA06F5012C01D10C3004E00C
:103C5000022C01D1103000E014301AB107682F4354
:103C6000076002E00768AF430760F0BD1AB1838ABE
:103C70000B43838202E0838A8B4383827047028AEC
:103C80004FF6F0731A400282028A0A43028270479A
:103C900082894FF2FF731A40828182890A438281AE
:103CA000704721B1828942F00202828104E0828958
:103CB0004FF6FD731A4082817047028A4FF6DF7318
:103CC0001A400282028A0A430282704721B1028AA4
:103CD00042F48042028204E0028A4BF6FF731A40EB
:103CE00002827047C1F308028280704701468888CB
:103CF000C0F308007047818941F00101818170475C
:103D0000028BD2B20283028B42EA01220283704705
:103D1000028B02F47F420283028B0A4302837047C4
:103D200021B1828A42F02002828204E0828A4FF628
:103D3000DF731A408282704721B1828A42F01002FA
:103D4000828204E0828A4FF6EF731A4082827047C3
:103D500021B1828A42F00802828204E0828A4FF610
:103D6000F7731A408282704721B1828942F400427F
:103D7000828103E08289C2F30E028281704721B101
:103D8000828A42F40062828204E0828A4FF2FF73E8
:103D90001A4082827047828A4FF6FB731A408282F1
:103DA000828A0A438282704721B1828A42F00202EB
:103DB000828204E0828A4FF6FD731A408282704745
:103DC00002460020B1F5007F00D100BF13880B40F0
:103DD0000BB1012000E00020704701F40072B2F541
:103DE000007F00D100BFCA430280704770B5024611
:103DF000002400230025002040F66A16B14200D1BD
:103E000000BFC1F3421501F01F03012606FA03F3B8
:103E1000012D02D19689334006E0022D02D1168A87
:103E2000334001E0968A33400C12012606FA04F46E
:103E30001688344013B10CB1012000E0002070BDA1
:103E400010B50022002340F66A14A14200D100BF41
:103E50000A1201249440A3B2DC43048010BD000088
:103E6000003801400044004000480040004C004041
:103E70000050004070477047704770477047754664
:103E800000F02CF8AE4605006946534620F00700C6
:103E9000854618B020B5FEF725F8BDE820404FF064
:103EA00000064FF000074FF000084FF0000B21F024
:103EB0000701AC46ACE8C009ACE8C009ACE8C009F1
:103EC000ACE8C0098D46704710B50446AFF30080DA
:103ED0002046BDE81040FCF770B90000004870476C
:103EE0006404002021F00042A2F16052B2F5801F6C
:103EF00001F0004328BFD2F17F6C0BD95FEA001CB0
:103F000043EAC20242EB507018BF704728BF20F04E
:103F100001007047B2F5801FBCBF184670474FEADA
:103F2000410C1CF5001F02D2084600F05CBF70B5C2
:103F300000F084FB00000089FFF7F6BF4FF000405F
:103F4000A0F580007047000010B591EA030F48BF4C
:103F500083F0004300F1DA83841A71EB030C05D27D
:103F6000121943EB0C03001B61EB0C01DFF824E199
:103F70004FEA1154A4EB135C1EEA430F18BF9EEAEC
:103F8000445F73D023EA0E03DCF1200E21EA0451D2
:103F900043F4801332D322FA0CFE10EB0E0023FA06
:103FA0000CFE41EB0E01CCF1200E03FA0EFE10EBDD
:103FB0000E0051F10001B1F5801FCCF1200E32D27C
:103FC00001EB045112FA0EF2BDE8104058BF7047E1
:103FD000401C38BF5FEA420218BF7047002814BF78
:103FE00020F0010041F100014FEA410313F5001FE9
:103FF00038BF7047A1F1C04100F06EBB012A43EB0E
:104000000302ACF1200CDCF11F0E32BF4FF0000EAA
:1040100023FA0CF310EB030041EB0451B4EB115FF6
:10402000D0D0A1EB045101F5801149085FEA3000BE
:1040300001EB04510ED350F1000038BF12FA0EFE0E
:1040400008D1BDE81040C9E7401C38BF5FEA420212
:10405000CAD1C3E7BDE810404FEA410313F5001F82
:1040600038BF7047A1F1C04100F036BB9EEA445F03
:1040700008D011EA5E0FBDE8104004BF01F0004116
:1040800000207047BDE8104070B500F0D7FA00BFBF
:1040900064FBBE3E0000E0FF491058BFC1F1404143
:1040A0005B1058BFC3F140438B42EFF30080704771
:1040B0002DE9C04130B4DFF8A0C23CEA111418BFAA
:1040C0003CEA131400F0EC8081EA03051CEA1114A9
:1040D00044EAD57418BF1CEA131500F0C780A4EB9E
:1040E00005044FF0004545EAC12145EAC32341EAF2
:1040F000505143EA525304F17F74994204F500345D
:104100004FEAC0204FEAC22208BF904200F09C80D4
:104110004FEA13650FF24016765D4FEA134506FB32
:1041200005F7C7F1807706FB07F74FEAD737A7FBFC
:1041300003687642C8F58038A7FB06CE38BFA8F1E1
:10414000010807FB08E64FF0000EA6FB028CE6FB19
:1041500003CEDCF1000CCEF1004E38BFAEF1010E03
:10416000A6FB0C584FF000074FF00005E6FB0E874A
:10417000A1FB08C6A0FB07CE16EB0E0645F1000515
:10418000E1FB076515F1E04E7EBFA4F580345FEAE0
:1041900046066D4116F1800745F100054FEA1727E5
:1041A0004FEA066647EA0567A6F1DE46B6F1805F8C
:1041B0004FEA15251FD9384624F0010C05EBC471D0
:1041C000BCF1FE6F01EB0C1102D8F0BCBDE8008120
:1041D00024425CBF01F5801E9EEAC47F02D4F0BC7D
:1041E000BDE80081244238D4F0BCA1F1C041BDE853
:1041F000004100F071BA4FEAD22242EA43524FEA3C
:10420000D323A7FB02864FEAD02040EA415007FBA8
:1042100003661EEA0E0F4FEAD12105FB026658BF66
:10422000A6EB0056B6EB00564FEA520E4EEAC37E9E
:1042300018EB0E0E56EB530EBDD518EB02085E417F
:104240007F1C55F10005B6E74FF480154FF00007CD
:104250004FF000064FF00008ADE7F0BC4FF0000053
:1042600001F1C04101F00041BDE8008111EA0C1FDD
:104270000CEA131500D00CE013EA0C1F00F02580A7
:104280004FF00000F0BC81EA030101F00041BDE8FD
:104290000081F0BCBDE8004181EA030100F01CBAD6
:1042A000F0BCBDE8004170B500F0C8F9097EFC3EE5
:1042B00000F007B881EA03014FF0000001F000416F
:1042C000704781EA030100F007BAF0BCBDE8004185
:1042D0004FF0000021497047FFFDFBF9F7F5F4F2BC
:1042E000F0EEEDEBE9E8E6E4E3E1E0DEDDDBDAD891
:1042F000D7D5D4D3D1D0CFCDCCCBCAC8C7C6C5C4EF
:10430000C2C1C0BFBEBDBCBBBAB9B8B7B6B5B4B305
:10431000B2B1B0AFAEADACABAAA9A8A8A7A6A5A4F0
:10432000A3A3A2A1A09F9F9E9D9C9C9B9A999998B4
:104330009797969595949393929191908F8F8E8E57
:104340008D8C8C8B8B8A89898888878786858584E4
:1043500084838382828181800000FF070000F87FD0
:104360004FEA41034FEA5353A3F58063D3F11E0391
:10437000C8BFD3F1210C0CDD4FF0004242EAC1224C
:1043800042EA505232FA03FC8CEAE17CACEBE17079
:104390007047102BC4BF0020704703F5787CBCF138
:1043A000FF3F04D06FF0004282EA2100704770B5F1
:1043B00000F044F94992248000207047F2E70000A1
:1043C0004FEA1153A3F58063D3F11E03A8BFD3F1C5
:1043D000200C08DB4FF0004242EAC12252EA505260
:1043E00032FA03F0704709420BD4102BC4BF0020EF
:1043F000704703F5787CBCF1FF3F05D04FF0FF30EC
:1044000070474FF00000704770B500F017F900BF1B
:104410004992248000207047F0E710F0004248BF26
:104420004042B0FA80F310FA03F10AD0C3F11D0341
:1044300003F580634FEA415002EB035202EBD121B6
:1044400070474FF000007047B0FA80F310FA03F1A4
:104450000AD0C3F11D0303F580634FEA41504FEAD0
:10446000035202EBD12170474FF00000704700006B
:1044700051EA030C17D41CF5801F58BFBCF5801FF0
:1044800000F10680994218BF704708BF90427047FC
:1044900007D711F5801F58BF13F5801F19D4994213
:1044A0007047894270471CF5801F08D5BCF5801FF6
:1044B000F7D58B4218BF704708BF824270474FF450
:1044C000001C1CEB410F38BF1CEB430F01D28B4289
:1044D000704770B500F0B2F8922449004FF00051D7
:1044E0004FF08053FFF7D8BDDFF848C170B51CEA24
:1044F000111E1EBF1CEA13159EEA0C0F95EA0C0F45
:1045000000F06F8081EA030423EA4C134EEAD47E64
:1045100021EA4C1141F4801143F48013AE44A1FB15
:10452000024CA0FB0365AEF17F7E361955EB0C05FE
:10453000A1FB034C4CF10003A0FB021C16EB0C0684
:10454000654153F10003094218BF46F0010613F418
:10455000007F0BD14FEA03314FEA0530340341EAC3
:10456000155140EA16506FF003020AE04FEAC321EA
:104570004FEAC520F40241EA555140EA56506FF027
:10458000020202EB2E4201EB025585EACE710AD0FF
:104590005FEA440C18BF24F0004450F1000041F1E0
:1045A000000120EAD47040F2FE7C624500D270BD6A
:1045B000A84214BF4FF080444FF04044002E08BF83
:1045C0000024BEF1806FA8BFA1F1C041BDE87040DA
:1045D00080F282804FF0000001F1C04101F0004103
:1045E00070479EEA0C0F0CEA131518BF95EA0C0FE2
:1045F00006D04FF0000081EA030E0EF0004170BDBE
:1046000000F01CF88900013E00F007B800F009B87E
:104610004FEA430C5FEA5C5C08D081EA030100F0DA
:104620005BB84FEA410C5FEA5C5CF6D14FF00000EA
:10463000014970470000FF070000F87F0EF1020EED
:104640002EF0030E5EF8046B364205D4012A43EBCC
:10465000030515F5001F12D8012841EB010C1CF5CC
:10466000001F0CD80ED14FEAD17C15F5001F0CEBC2
:104670004C0C0CF1020C08BF4CEBD37C04E04FF067
:10468000080C01E04FEAD37C0CEB4C0526FA05F64A
:1046900006F00706B6F1040C06D20EEB860CBDE858
:1046A00070404CF0010C6047DFE80CF0090B02028F
:1046B0004FF000414FF00000A1F5002170BD1946F8
:1046C0001046012851EB010418BFD4F5001484BF33
:1046D000002001F0004170BD0808A0F500114FEA6C
:1046E0003101704791EA030F10B581F000413FF5A9
:1046F00033AC83F0004300F009B8000010B591EA34
:10470000030F48BF83F000433FF526AC841A71EBDA
:10471000030C07D212198CF0004C43EB0C03001B66
:1047200061EB0C01DFF8A4E14FEA1154A4EB135C38
:104730001EEA430F18BF9EEA445F00F0B08023EAF0
:104740006E03524221EA0451C3EB6E0338BF5B1E75
:10475000DCF1200E25D322FA0CFE10EB0E0043FAFA
:104760000CFE41EB0E01CCF1200E03FA0EFE10EB15
:104770000E0051F10001CCF1200E29D412FA0EF2F4
:1047800001EB0451BDE8104058BF7047401C1CBFEE
:10479000B2F1004F704700280CBF491C20F0010007
:1047A000704712EB020E43EB030218BF4FF0010EED
:1047B0004EEA4202ACF1200CDCF11E0E54D943FA51
:1047C0000CFE10EB0E0051F1FF31CCF11E0ED5D5D1
:1047D0000EF1010E12FA0EFE404141EB010101EB18
:1047E000445C5FEA5C5C10D910EBDE7001EB0451B5
:1047F00038BFBEF1004FBDE8104018BF7047002819
:104800000CBF491C20F00100704730D24FEAD42C75
:1048100011F5001124F400641BD0B1FA81F20B3AB7
:10482000A41AA41ED2F12003914030FA03F31943D5
:10483000904001EBCC71002C01EB0451BDE810401D
:10484000A8BF704701F1C0414FF0000001F00041E6
:104850007047B0FA80F310FA03F100D110BDE41AEA
:10486000173C4805C90AE4E701EB045110BD4910A3
:1048700001EB0451BDE810404FEA300002E04FF078
:10488000000170474A0008BF0042F8D0B2F5001F8F
:1048900028BF704701F000414FF0000070479EEACA
:1048A000445F07D011EA5E0FBDE8104004BF00214D
:1048B00000207047BDE8104070B5FFF7BFFE00BF95
:1048C00040DFF63E83F00041104670470000E0FFF5
:1048D00043004FEAD30C4FEA3C0C43401FBF400754
:1048E0000CF1605113F0FE4F70471CF0006F03D1C4
:1048F00000200CF0004170470CF0004343EA507078
:1049000010B540EACC0000F028FA00BF0000009289
:104910004FEA0001FFF7E0BE4FF000414FF000000A
:10492000A1F500217047000090EA010F48BF81F017
:10493000004100F19682421A3CBF801A89184FEA62
:10494000D0524FF07F4C1CEA410FA2EBD15318BF5D
:104950009CEA026F00F03B804FF0004C4CEA0020D4
:104960004CEA012121FA03FC10EB0C0C1ED202F1DF
:10497000FF325FEA1C2040EBC25038BF70471CF08A
:104980007F0F4FEA400C18BFBCF17F4F38BF704714
:10499000C3F12003994008BF20F00100BCF17F4F14
:1049A00038BF7047A0F1C04000F01DBA4FEA3C008C
:1049B000000A40EBC25028BF1CF0FF0F4FEA400C2A
:1049C000E6D018BFBCF17F4F38BF7047EAE79CEADA
:1049D000026F05D010EA5C0F08BF00F0004070477E
:1049E00010B500F0BAF900BF64FBBE3E401058BFDE
:1049F000C0F14040491058BFC1F140418142EFF33E
:104A0000008070474FF47F0C1CEAD0121EBF1CEAD6
:104A1000D11392EA0C0F93EA0C0F00F0858090EA14
:104A2000010F48BF42F4807240F4000C41F40000D2
:104A30002CF07F4120F07F4000B58142A2EB0302C1
:104A40000FF2081CACEB504EC0F100009EF800E0E5
:104A50004FEA4E0E00FB0EFC38BF49004FEA2C1CFB
:104A600002F5FA020CFB0EF34FEACE1E4FEA112CB0
:104A70004FEAC1210EEB635E42EB22420EFB0CFCBF
:104A80004FEA1C5300FB03114FEA112C4FEA01318E
:104A90000EFB0CFC4FEADC4C00FB0C11C14228BFA2
:104AA00009184CEB03335DF804EB10EB410143EBC9
:104AB000C250B2F57C0F38BF704729D512F0F00F05
:104AC0001CBF00F1C04000F00040704700818283AD
:104AD0008485868788898B8C8D8E8F91929395960D
:104AE00097999A9C9D9FA0A2A3A5A7A8AAACAEB097
:104AF000B2B3B5B7B9BCBEC0C2C5C7C9CCCED1D49C
:104B0000D7D9DCDFE2E6E9ECF0F3F7FAFE000000CB
:104B10004FEA400C0CF1807CBCF17E4F28BF7047FF
:104B2000B0F1C04000F05FB990EA010F0CEAD11378
:104B300048BF42F48072624538BF634507D213F420
:104B40007F0F16D080EA010000F00040704710B5DA
:104B500000F003F9097EFC3E00F005B880EA010090
:104B600000F00040704780EA010000F0004000F0D3
:104B70003AB912F47F0F04BF0248704780EA01007F
:104B800000F031B90000C07F41000B0ED3F19E024E
:104B900008D950F400034FEA032323FA02F048BF78
:104BA0004042704710B500F0D8F800BF4992248009
:104BB000002070476FF0004282EA2000704700003A
:104BC00010F0004148BF4042B0FA80F310FA03F2FF
:104BD000C3F19D030BD051EAC35101EB12205306E0
:104BE00038BF704700F1010008BF20F00100704796
:104BF00050EA010C00F113801CF5000F58BFBCF502
:104C0000000F01D48842704707D710F5000F58BF36
:104C100011F5000F15D488427047894270471CF582
:104C2000000F04D5BCF5000FF7D5814270474FF057
:104C3000807C1CEB400F38BF1CEB410F01D281423E
:104C4000704710B500F089F8922449004FF00050E9
:104C50004FF08051FFF7CABE4FF47F0C1CEAD01210
:104C60001EBF1CEAD11392EA0C0F93EA0C0F00F05E
:104C7000478090EA010F48BF42F480724FF0004C29
:104C80004CEA00204CEA012102EB0302A0FB0113D5
:104C9000A2F50002002918BF43F001035B0028BF02
:104CA0004FEA330342EB22425FEA132C4CEBC25033
:104CB0002EBFBCEB436FB2F57C0F70474FEA036C1D
:104CC000BCF1004F08BF20F00100B2F57C0F38BFE7
:104CD00070470BD582F0FF0212F5803FC8BF7047C6
:104CE00000F1C040D8BF00F00040704700F5000C54
:104CF0005FEA4C0C48BF7047B0F1C04000F073B899
:104D000090EA010F0CEAD11348BF42F48072624569
:104D100038BF634504D280EA010000F000407047CC
:104D200010B500F01AF800BF8900013E00F007B886
:104D300000F009B85FEA410C5FEA1C6C08D080EA19
:104D4000010000F050B85FEA400C5FEA1C6CF6D13D
:104D50004FF00040A0F5800070470EF1020E2EF0DB
:104D6000030E5EF8044B244204D44FEA4102B2F130
:104D70007F4F11D84FEA4003B3F17F4F0CD80ED1CB
:104D80004FEAD07CB2F17F4F0CEB4C0C0CF1020CD3
:104D900008BF4CEBD17C04E04FF0080C01E04FEA77
:104DA000D17C0CEB4C0324FA03F404F00704B4F1B7
:104DB000040C06D20EEB840CBDE810404CF0010C44
:104DC0006047DFE80CF0070802024FF00040A0F552
:104DD000800010BD0846420018BFD2F1807288BF23
:104DE00000F0004010BDFF2141EAD050C0057047DF
:104DF00051EA000C00F113801CF5000F58BFBCF500
:104E0000000F01D48142704707D711F5000F58BF3A
:104E100010F5000F15D481427047894270471CF588
:104E2000000F04D5BCF5000FF7D5884270474FF04E
:104E3000807C1CEB410F38BF1CEB400F01D2884235
:104E4000704780EA010081EA000180EA0100FFF773
:104E5000F8BE000090EA010F48BF81F000413FF525
:104E60006AAD421A04D882F00042A0EB020011445D
:104E70004FEAD0524FF07F4C1CEA410FA2EBD153C6
:104E800018BF9CEA026F4AD04FF0004C4CEA002059
:104E90004CEA012121FA03FCB0EB0C0C0FD412F008
:104EA000FE0F36D05FEA4C001DD5001240EBC25019
:104EB00038BF70471CF03F0F18BF70470BE0A2F1DE
:104EC00001025FEA1C2040EBC25038BF70471CF063
:104ED0007F0F18BF7047C3F12003994014BF401ED5
:104EE00020F00100704780084FEA122308BF704786
:104EF000B0FA80FCA2EB0C02CCF1280C60FA0CF0AA
:104F000093EA122F04BF00EBC25070474FEAC37000
:104F10007047130A5FEADC1008BF7047F6E79CEAA7
:104F2000026F04D010EA5C0F08BF0020704710B574
:104F3000FFF713FF40DFF63E81F0004070470000AE
:104F4000000000000000002F000000000700070024
:104F500000147F147F1400242A7F2A120062640840
:104F600013230036495522500000050300000000BD
:104F70001C224100000041221C000014083E0814BD
:104F80000008083E0808000000A0600000080808AB
:104F90000808000060600000002010080402003EC5
:104FA0005149453E0000427F400000426151494660
:104FB000002141454B31001814127F100027454550
:104FC0004539003C4A494930000171090503003662
:104FD0004949493600064949291E00003636000075
:104FE000000056360000000814224100001414147A
:104FF0001414000041221408000201510906003275
:105000004959513E007C1211127C007F49494936B2
:10501000003E41414122007F4141221C007F49491D
:105020004941007F09090901003E4149497A007F51
:105030000808087F0000417F4100002040413F01F7
:10504000007F08142241007F40404040007F020C56
:10505000027F007F0408107F003E4141413E007FF7
:1050600009090906003E4151215E007F09192946C0
:105070000046494949310001017F0101003F40409C
:10508000403F001F2040201F003F4038403F00634A
:10509000140814630007087008070061514945436C
:1050A00000007F41410000552A552A55000041412A
:1050B0007F00000402010204004040404040000024
:1050C00001020400002054545478007F48444438BE
:1050D00000384444442000384444487F0038545445
:1050E000541800087E0901020018A4A4A47C007FC3
:1050F000080404780000447D4000004080847D0066
:10510000007F102844000000417F4000007C04180C
:105110000478007C0804047800384444443800FCD7
:10512000242424180018242418FC007C08040408F3
:1051300000485454542000043F444020003C404068
:10514000207C001C2040201C003C4030403C00449F
:1051500028102844001CA0A0A07C004464544C44A7
:1051600014141414141400000000000000000000C7
:10517000000000000000000000F800000000000037
:1051800000333000000000100C06100C0600000078
:1051900000000000000040C07840C0784000043F9C
:1051A00004043F040400007088FC0830000000186C
:1051B00020FF211E0000F008F000E0180000002190
:1051C0001C031E211E0000F00888700000001E2134
:1051D00023241927211010160E00000000000000E3
:1051E000000000000000000000E0180402000000C1
:1051F00000071820400000020418E00000000040F2
:10520000201807000000404080F08040400002026B
:10521000010F01020200000000F000000000010187
:10522000011F01010100000000000000000080B02B
:1052300070000000000000000000000000000001FD
:105240000101010101010000000000000000003028
:1052500030000000000000000000806018040060C2
:1052600018060100000000E010080810E000000F20
:10527000102020100F00001010F800000000002087
:10528000203F2020000000700808088870000030CF
:105290002824222130000030088888483000001877
:1052A000202020110E000000C02010F80000000790
:1052B0000424243F240000F8088888080800001906
:1052C000212020110E0000E0108888180000000F37
:1052D000112020110E0000380808C838080000000E
:1052E000003F000000000070880808887000001C63
:1052F000222121221C0000E010080810E00000001C
:10530000312222110F00000000C0C0000000000088
:1053100000303000000000000080000000000000AD
:1053200080600000000000008040201008000001A4
:105330000204081020004040404040404000040467
:105340000404040404000008102040800000002031
:10535000100804020100007048080808F00000006E
:10536000003036010000C030C828E810E0000718FF
:10537000272423140B000000C038E0000000203C6C
:1053800023020227382008F8888888700000203F10
:10539000202020110E00C030080808083800071827
:1053A00020202010080008F808080810E000203F1E
:1053B000202020100F0008F88888E8081000203FFF
:1053C00020202320180008F88888E8081000203FD3
:1053D000200003000000C03008080838000007184B
:1053E0002020221E020008F808000008F808203FCC
:1053F000210101213F20000808F8080800000020D2
:10540000203F2020000000000808F8080800C080A5
:1054100080807F00000008F888C028180800203F1E
:1054200020012638200008F8080000000000203F76
:1054300020202020300008F8F800F8F80800203F6D
:10544000003F003F200008F830C00008F808203F67
:10545000200007183F00E01008080810E0000F10B7
:10546000202020100F0008F808080808F000203F4E
:10547000210101010000E01008080810E0000F18E9
:10548000242438504F0008F8888888887000203F0E
:105490002000030C3020007088080808380000380D
:1054A000202121221C00180808F808081800000014
:1054B000203F2000000008F808000008F808001F3E
:1054C000202020201F000878880000C8380800002D
:1054D00007380E010000F80800F80008F800033C47
:1054E0000700073C0300081868808068180820300F
:1054F0002C03032C30200838C800C83808000000EE
:10550000203F2000000010080808C8380800203894
:10551000262120201800000000FE020202000000E8
:10552000007F40404000000C30C000000000000040
:1055300000010638C00000020202FE000000004028
:1055400040407F000000000004020202040000004E
:10555000000000000000000000000000000080804B
:105560008080808080800002020400000000000033
:105570000000000000000000808080800000001912
:10558000242222223F2008F8008080000000003FF3
:10559000112020110E000000008080800000000E0D
:1055A000112020201100000000808088F800000EEB
:1055B000112020103F200000808080800000001F0C
:1055C000222222221300008080F088888818002080
:1055D000203F202000000000808080808000006B41
:1055E00094949493600008F8008080800000203F2D
:1055F000210000203F20008098980000000000203B
:10560000203F20200000000000809898000000C08B
:105610008080807F000008F8000080808000203FAC
:1056200024022D302000000808F8000000000020AF
:10563000203F202000008080808080808000203FEC
:1056400020003F20003F8080008080800000203FBD
:10565000210000203F200000808080800000001F8B
:10566000202020201F00808000808000000080FF1C
:10567000A12020110E000000008080808000000E1C
:10568000112020A0FF80808080008080800020206A
:105690003F212000010000008080808080000033D6
:1056A000242424241900008080E080800000000071
:1056B000001F202000008080000000808000001F6C
:1056C000202020103F20808080000080808000010A
:1056D0000E300806010080800080008080800F303E
:1056E0000C030C300F0000808000808080000020C0
:1056F000312E0E31200080808000008080808081EB
:105700008E7018060100008080808080800000215B
:10571000302C2221300000000000807C02020000BA
:105720000000003F404000000000FF0000000000BB
:105730000000FF0000000002027C8000000000402A
:10574000403F0000000000060101020204040000C6
:105750000000000000000000785700080000002052
:1057600024040000280100080C590008240400202B
:10577000A406000084010008014584A24A0400092F
:1057800010010203040607080952014BC04004013E
:105790001C1BF010012AFF050215F01B0F04012A43
:1057A000FF0502130F18094040405F555555750419
:1057B0001A5F0C091121080C12200F094989790977
:1057C00009090F208A2FFE02424ACA4A03041342E3
:1057D00002FE000E14FF40504C4340404F50505CBE
:1057E00040FF1BF888012AFF050215F81B1F08015E
:1057F0002A7F200B109F80E23B808201000916E285
:10580000A2928A86828080041840807F172424A474
:10581000FEA3221B22CCAA011415080601FF2B01AE
:1058200004010511FF0202025808101010FF109029
:1058300008C3021108080F100444827F01808040D1
:10584000432C10284681A018094040484848C87891
:105850004F06051548484040000915031212222240
:10586000528A063C106080BA19040B11C030FB1E2E
:10587000404043407F061C7F424106094FC02941FA
:10588000080B1110D030FF30D0121C10101F3D0833
:105890000402019E0D1101020408211116FE2222AC
:1058A00022FE0712FE828292A29E100880601F02D2
:1058B00042827F0F11FF402F102C438011000B14E8
:1058C00090884C57A42454548C84180801018042B9
:1058D000221A07441D423E01018AF9E1000D14E439
:1058E000242CB4252624B42C24E404180AFF020135
:1058F0001E1212121E418601162D0102030404001D
:0C59000009000607080902040608000060
:04000005080000ED02
:00000001FF
