:020000040800F2
:10000000B8050020B15E0008890200088B020008D4
:100010008F02000893020008970200080000000009
:100020000000000000000000000000009B0200082B
:100030009D020008000000009F020008A1020008C5
:10004000CB5E0008CB5E0008CB5E0008CB5E0008EC
:10005000CB5E0008CB5E0008CB5E0008CB5E0008DC
:10006000CB5E0008CB5E0008CB5E0008CB5E0008CC
:10007000CB5E0008CB5E0008CB5E0008CB5E0008BC
:10008000CB5E0008CB5E0008CB5E0008CB5E0008AC
:10009000CB5E0008CB5E0008CB5E0008FD0C0008BC
:1000A000CB5E0008CB5E0008CB5E0008CB5E00088C
:1000B000CB5E0008CB5E0008675A0008CB5E0008E4
:1000C000CB5E0008CB5E0008CB5E0008CB5E00086C
:1000D000CB5E00087306000879580008CB5E000864
:1000E000B5590008CB5E0008CB5E0008DFF80CD0E5
:1000F00008F048FB0048004789010008B8050020C7
:1001000008B50121102006F025FDF020ADF8000013
:1001100048208DF803006946514806F05FFA012136
:10012000102006F017FD1820ADF8000048208DF8CB
:10013000030069464B4806F051FA08BD10B501F0BE
:10014000E8F901F080FE48480078612806D062286E
:100150000DD0632810D0642814D110E005F0F8FB0E
:1001600041F61F4141F2883005F068FC0AE04FF487
:10017000165005F0B7FA05E0FFF7C2FF02E005F000
:1001800085FC00BF00BF10BD00F0B8FA05F0BCFB55
:1001900000F0E6FA00F076F94FF4E13000F02BFAC7
:1001A000642000F0ACF900F0D7F901F051F800F04C
:1001B0008DFE00F0D8FE01F0B9FD02F04AF804F01F
:1001C00077FA002141F61F4000F0EAFF4FF47A7001
:1001D00000F095F900F032FF00F0ECFAFFF7AEFF07
:1001E0003CE02248007820B1002020490870FFF749
:1001F000A5FF01F05AFE1C48007864282ED1072084
:1002000005F046FD1A490860082005F041FD19492E
:100210000860052005F03CFD17490860062005F040
:1002200037FD1649086005F010FD154908601048B3
:100230000068FA280FDB0F480068FA280BDB0E482D
:100240000068FA2807DB0D480068FA2803DB002065
:100250000C49087002E001200A490870C1E700005B
:1002600000080140000C0140300000203100002057
:100270003C000020400000204400002048000020F6
:100280004C00002050000020704700BFFEE700BF78
:10029000FEE700BFFEE700BFFEE77047704770470C
:1002A000704700000CB50020019000906C48006879
:1002B00040F480306A49086000BF6948006800F473
:1002C000003000900198401C0190009818B90198E6
:1002D000B0F5A06FF1D16248006800F4003010B1B1
:1002E0000120009001E0002000900098012843D1F7
:1002F0005C48006840F010005A49086008460068F1
:1003000020F0030008600846006840F00200086022
:10031000534840685249486008464068486008466B
:10032000406840F4806048600846406820F47C10D3
:1003300048600846406840F4E81048600846006895
:1003400040F08070086000BF4548006800F0007011
:100350000028F9D04248406820F003004049486036
:100360000846406840F00200486000BF3C484068D2
:1003700000F00C000828F9D10CBD10B5FFF792FF72
:1003800010BD10B53648006840F0010034490860DF
:1003900008464068344908403149486008460068CA
:1003A000324908402E4908600846006820F4802041
:1003B00008600846406820F4FE0048604FF41F00C3
:1003C0008860FFF7DAFF4FF000602949086010BD30
:1003D00010B5002100200022214B5B6803F00C01C6
:1003E00021B1042906D0082928D107E0214B224C4D
:1003F000236027E01F4B204C236023E0184B5B68F1
:1004000003F47010164B5B6803F48032022303EB95
:10041000904022B9194B4343174C23600DE0104B19
:100420005B6803F4003323B1144B4343124C236045
:1004300003E0104B4343104C236003E00D4B0E4C84
:10044000236000BF00BF064B5B68C3F303130C4C73
:10045000E15C094B1B68CB40074C236010BD0000DA
:1004600000100240002002400000FFF8FFFFF6FEEF
:1004700008ED00E000127A006800002000093D004D
:100480006C00002010B56FF0040005F072FD2E48DE
:1004900000682E49B0FBF1F02D490870084600783D
:1004A00000EB4001C1EBC0104FF6FF7101EAC00044
:1004B0002849088010BD0146254A12784A434FF06A
:1004C000E0235A6100229A611A46126942F0010241
:1004D0001A6100BF4FF0E022106900F001021AB16A
:1004E00000F48032002AF5D04FF0E022126922F0A9
:1004F00001024FF0E0231A6100229A617047014621
:10050000144A12884A434FF0E0235A6100229A614C
:100510001A46126942F001021A6100BF4FF0E02250
:10052000106900F001021AB100F48032002AF5D0FF
:100530004FF0E022126922F001024FF0E0231A612D
:1005400000229A61704700006800002000127A00C3
:100550007C0000207E00002008B54FF4A06005F06C
:10056000B9FC17208DF8000000208DF80100012053
:100570008DF802008DF80300684605F0B0FC2820D5
:100580008DF8000001208DF8010002208DF8020096
:1005900001208DF80300684605F0A1FC25208DF8A8
:1005A000000002208DF801008DF8020001208DF876
:1005B0000300684605F093FC26208DF80000022019
:1005C0008DF801008DF8020001208DF803006846C7
:1005D00005F085FC08BD0000014600BF704700BF64
:1005E000424A128802F04002002AF9D0C2B23F4BC0
:1005F0001B1D1A80704710B586B00446012144F2D5
:10060000050006F0A7FA4FF40070ADF814000320BF
:100610008DF8160018208DF8170005A9344805F04C
:10062000DDFF4FF48060ADF8140004208DF8170052
:1006300005A92F4805F0D2FF01940020ADF808006D
:10064000ADF80A00ADF80C00ADF810000C20ADF8C4
:100650000E0001A9254807F032FA012240F2255187
:10066000224807F0C4FA0121204807F0B4FA06B086
:1006700010BD10B540F225511C4807F09DFB10B38A
:100680001A4807F019FBC4B21A48007800F080003D
:10069000C8B91848007800F0400060B10A2C03D0B7
:1006A00000201449087020E01248007840F08000D3
:1006B0001049087019E00D2C06D10E48007840F062
:1006C00040000C49087010E00A48007800F03F0034
:1006D00009490C5407480078401C06490870084630
:1006E00000783F2801DD0020087010BD003801406F
:1006F00000080140840000205801002008B50121B5
:10070000102006F027FA4FF48040ADF800001020CA
:100710008DF8030003208DF8020069460C4805F0AF
:100720005DFF08BD18B900210A4A11600FE00A49AF
:100730000968491C084A1160814208D105490968C5
:10074000C943064AC2F8B8110021034A1160704734
:1007500000100140B801224288000020000022421F
:1007600008B50121102006F0F5F948F2F000ADF8C7
:10077000000048208DF8030069460B4805F02EFF65
:1007800008BD01460948006860B909480068401C76
:10079000074A1060884203DB002010600120704788
:1007A0000020FCE70020FAE7001001403C01224253
:1007B0008C0000201FB50121084606F0CBF901216D
:1007C000082006F0C7F92020ADF80C0048208DF86D
:1007D0000F0003A9114805F001FF0521012006F0D3
:1007E00013F82020019000208DF808000C208DF8CF
:1007F000090001208DF80A0001A805F00FFE17205E
:100800008DF8000000208DF8010001208DF8020015
:100810008DF80300684605F062FB1FBD000C014027
:100820002DE9F04705460C46204607F0B0FD82460C
:10083000FE480168504607F0B2FB8046284607F0A4
:10084000A6FD8246FA480168504607F0A8FB81469B
:10085000414607F04CFB074607F0C5FD064630460B
:10086000BDE8F0872DE9FC5F83469246F1490968AF
:10087000F14A1268881807F08AFDF0490860F048CC
:10088000006807F015FE0646EE4AEF4B07F09EFCA7
:10089000044607F039FEEA490860E848006807F0B6
:1008A00007FEE84AE94BCDE9000107F08FFC064658
:1008B0000F46E348006807F0FBFD804632463B46A2
:1008C00007F0DDFB044607F01FFEDD49086008461F
:1008D0000168DF48006807F00AFBDD490860504600
:1008E00007F055FD0446DA480168204607F054FB3E
:1008F000D7490860D749D648006807F02BFE02D2D6
:10090000D448D3490860D449D148006807F018FE9C
:1009100002D2D148CE490860D0480168CC4800686E
:1009200007F03DFB0446CE480168C548006807F063
:1009300036FB0546214607F0DAFACA490860CA497B
:10094000CA48006807F0FCFD05D3C949C7480068DC
:1009500007F000FE02D20020BD490860C1480068CF
:1009600007F041FDBDE8FC9F2DE9F05F05460E460E
:1009700014463146284607F00CFB81462146BD4807
:10098000006807F00CFB82464946BB48006807F048
:1009900006FB8346514607F0AAFA804607F023FD7E
:1009A00007463846BDE8F09F0020B4490870B448B7
:1009B0000068097801EBC000B0490870B048001F1A
:1009C0000068097801EB8000AC490870AD48006808
:1009D000097801EB4000A9490870AA48001F006887
:1009E00009780844A549087070472DE9F047A64FDB
:1009F0000226A6480078612806D0622812D0632813
:100A000066D064280DD1AFE0A1480078401CA04911
:100A1000087008460078142803DB0020087004F0F2
:100A2000FEFF68E19B48007828B99B48007810B920
:100A300000209A49086097480078012807D14FF0B4
:100A40007E519648006807F0A4FA944908609248DD
:100A50000078012807D14FF07E519048006807F0D8
:100A600046FA8E4908608E48007828B98D4800788B
:100A700010B900208C49086089480078012806D107
:100A80008A498948006807F084FA874908608548E0
:100A90000078012806D185498348006807F027FAC5
:100AA000814908607E48007830B97E48007818B9DE
:100AB0007F485F4908600AE079480078012803D040
:100AC00078480078012802D100205949086012E1D5
:100AD000FFF76AFF69480078082835D006DC01284E
:100AE00039D0022818D004283CD121E0092807D0A9
:100AF0000F2837D10020694908606B49086031E050
:100B00004FF07E516548006807F043FA634908607A
:100B100000206549086025E04FF07E515F4800687D
:100B200007F037FA5D49086062485F49086019E0DC
:100B30004FF07E515948006807F02BFA574908607A
:100B40005D48594908600DE05C48544908605C48BC
:100B50005549086006E059485049086059485249CB
:100B6000086000BF00BFC6E05748007800285BD08F
:100B700056490968A1F1800007F009FC0446544970
:100B80000968A1F1800007F002FC0546704207F0F9
:100B9000FEFB8046214607F0D3FC08D2304607F022
:100BA000F6FB8046214607F0D5FC00D200247042B7
:100BB00007F0EDFB8046294607F0C2FC08D230461C
:100BC00007F0E5FB8046294607F0C4FC00D200256B
:100BD00084F000493F480168484607F012FA804611
:100BE0002E480168404607F0ABFC08D24FF07E511A
:100BF0002A48006807F0CDF9284908606EE084F0C3
:100C0000004934480168484607F0FBF9804623480C
:100C10000168404607F09EFC60D24FF07E511F48AD
:100C2000006807F064F957E05FE00000C0000020B2
:100C3000BC0000202000002024000020CC00002068
:100C4000D00000209A9999999999E93F9999C93FBB
:100C5000D400002000401C4600401CC6B800002004
:100C6000B4000020C8000020000020C204000020C2
:100C700000002042B0000020AC000020380000201E
:100C80001081214214012142CDCCCC3F3000002004
:100C9000D80000201501002016010020A40000202B
:100CA0001701002018010020A80000200000F041DA
:100CB0009A9919BF00007041000070C1000020C166
:100CC0000000A0C20000A042500000204000002010
:100CD00044000020DC0000206149086039462846B5
:100CE00007F08FF95F49086004E000205C49086064
:100CF0005C49086000BF00BFBDE8F08710B55A48E6
:100D0000006800287ED1202058490860584A594977
:100D1000594803F017FD594A59495A4801F03BFB1D
:100D2000022000F06AF958490860032000F065F9D4
:100D30004042564908606420FFF7F4FC54480078AC
:100D4000401C5349087008460078142805D100203B
:100D5000087000F0D6FA4F4908606420FFF711FDD3
:100D600060B14D480078401CC0B24B4908706528FE
:100D700001DB61200870012048490870FFF735FE4B
:100D800047493748006807F0E5FB01D2444809E0CD
:100D900044493348006807F0D3FB01D2414801E0E1
:100DA0002F4800682E4908603F492E48006807F028
:100DB000D1FB01D23C4809E03C492A48006807F0D1
:100DC000BFFB01D2394801E0264800682549086088
:100DD0002B48B0F9000007F0DAFA044622463448FE
:100DE000016825480068FFF7BFFD324908601C48CC
:100DF000006807F0F8FA04462246244801682248B1
:100E0000006800E02BE0FFF72DFD2B490860154836
:100E1000006807F0E8FA044621461848B0F90000D7
:100E2000FFF7FEFC2549086022480068224909684E
:100E30000844234908601F4800681F49096808449E
:100E40002049086000F056F91F490B48006800F07F
:100E500074F91C4801681A48006800F016F910BDC2
:100E6000A4000020A80000201481214214040140A5
:100E70000C00002008000020040000201A000020C0
:100E80001800002016000020200000202400002070
:100E9000C4000020000000203000002031000020AD
:100EA0000000C8420000C8C20000A0420000A0C26A
:100EB000A000002090000020940000209800002056
:100EC000280000202C0000200000404100B587B021
:100ED0000121084605F04BFE0121042005F03AFEF1
:100EE0000320ADF8000004208DF803006946514846
:100EF00005F074FB04A806F091FA0020ADF810008C
:100F00004FF6FF70ADF814000020ADF81600ADF8F4
:100F1000120004A94FF0804005F054FF00231A4648
:100F200003214FF0804006F05CFB01A806F089FA2F
:100F30000A20ADF80C0001A9400706F0D6F90121FE
:100F4000880706F061FD01221146900706F0B1FA0C
:100F500000214FF0804006F025FD0121880706F0B2
:100F60008DFA07B000BD00B587B00121022005F061
:100F7000FEFD0121042005F0EDFDC020ADF80000CC
:100F800004208DF8030069462A4805F027FB04A8D1
:100F900006F044FA0020ADF810004FF6FF70ADF8EF
:100FA00014000020ADF81600ADF8120004A9224884
:100FB00005F008FF00231A4603211F4806F011FB25
:100FC00001A806F03EFA0A20ADF80C0001A91A4863
:100FD00006F08BF90121184806F016FD0122114692
:100FE000154806F066FA0021134806F0DBFC0121E3
:100FF000114806F043FA07B000BD0146022902D0AD
:10100000032912D108E04FF08042928C10B20022E6
:101010004FF080439A840AE0074A2432128810B2C3
:101020000022054B24331A8001E0002000BF00BFDE
:1010300070470000000801400004004008B501218D
:10104000082005F087FD4FF47040ADF80000102037
:101050008DF8030003208DF802006946464805F02C
:10106000BDFA0020454908604549C1F8BC01434923
:10107000091F08604249C1F8B40108BD01460029B2
:1010800001DA484200E00846704700B503460A46C8
:10109000002B08DA01203949091D08600020384971
:1010A000C1F8B80107E000203449091D086001209B
:1010B0003349C1F8B8011846FFF7E0FF314908800D
:1010C000002A08DA00202D49091F086001202C4958
:1010D000C1F8B00107E001202849091F086000207D
:1010E0002749C1F8B0011046FFF7C8FF25490C3168
:1010F000088000BD244800682449884202DA084676
:10110000214908602048006841F65831884202DDD4
:1011100008461D4908601E4800681C49884202DADA
:1011200008461B4908601A48006841F65831884251
:1011300002DD08461649086070472DE9F041054672
:101140000C461449284607F0FBF90ED312492846ED
:1011500007F000FA09D3204607F0AAF906464FF037
:1011600033320E4B07F0B8F904D20020064908606C
:1011700007490860BDE8F081000C0140B8812142B8
:1011800000802142342C014028000020A8E4FFFF09
:101190002C000020000020C20000204233332640F3
:1011A00030B589B004460D460121C80205F0D2FCD5
:1011B0000121042005F0CEFC4FF41060ADF82000B2
:1011C00018208DF8230003208DF8220008A91E485E
:1011D00005F004FAADF81840ADF814500020ADF851
:1011E0001A00ADF8160005A9184805F0EBFD6020BF
:1011F000ADF804000120ADF806000020ADF80A00AB
:101200006010ADF80A000020ADF80C0001A90F48ED
:1012100005F015FE01A90D4805F0EBFE01210B4874
:1012200006F038F90821094806F058FA082107485D
:1012300006F073FA0121054806F020FA012103485F
:1012400006F01CF909B030BD00080140002C014037
:1012500000B587B001214FF4027005F07BFC4FF41C
:10126000004005F0DBFB0120ADF8040000208DF804
:10127000070001A9324805F0B1F9324804F098FEA0
:10128000002002908DF80C008DF80D004FF46020C6
:1012900004900020059001208DF8180002A929482B
:1012A00004F0ADFE0121274804F0D5FE254804F0E6
:1012B000F4FE00BF234804F0F5FE0028FAD12148CF
:1012C00004F0FAFE00BF1F4804F0FBFE0028FAD12C
:1012D00007B000BD10B50446072301222146194876
:1012E00004F025FF0121174804F0F5FE00BF02219C
:1012F000144805F061F80028F9D0124804F07EFF88
:1013000010BD2DE9FC5F0820FFF7E4FF009007F017
:101310005DF880464FF066320B4B06F057FF0646ED
:1013200000220A4B06F052FF04460022084B06F04A
:10133000BFFF824607F0E8F801900198BDE8FC9FE6
:10134000000C01400024014066660A40000026406F
:101350000000B04010B54FF48071F94805F0EBF98A
:101360004FF40071F64805F0E6F94FF40071F448C7
:1013700005F0E3F94FF48071F14805F0DEF910BD96
:1013800010B54FF48071EE4805F0D5F94FF40071B7
:10139000EB4805F0D2F94FF40071E94805F0CBF9BC
:1013A00010BD10B54FF48071E54805F0C4F94FF455
:1013B0008071E34805F0C1F910BD2DE9F041054603
:1013C0002C464FF48071DE4805F0B7F900261CE08A
:1013D000274607F08007802F04D1B900D84805F0D0
:1013E000AAF904E04FF40071D54805F0A6F96006AB
:1013F000040E4FF48071D24805F09DF94FF48071CE
:10140000CF4805F09AF9701CC6B2082EE0DBBDE8A3
:10141000F08110B50446FFF79DFF7820FFF7CDFF60
:10142000FFF7BFFF0020FFF7C8FFFFF7BAFF204616
:10143000FFF7C3FFFFF7B5FFFFF7A2FF10BD10B521
:101440000446FFF787FF7820FFF7B7FFFFF7A9FFF4
:101450004020FFF7B2FFFFF7A4FF2046FFF7ADFFE4
:10146000FFF79FFFFFF78CFF10BD70B504460D46D8
:101470001DB1E0B2FFF7E3FF02E0E0B2FFF7C9FF02
:1014800070BD06E041F6650100E0491E0029FCD16F
:10149000401E0028F6D17047014605E0002001E01B
:1014A000421CD0B27B28FBDB0A1EA1F10101F5D161
:1014B000704770B504460D4605F1B0000021FFF7F6
:1014C000D4FF102141EA14100021FFF7CEFF04F0F1
:1014D0000F000021FFF7C9FF70BD10B500218D205E
:1014E000FFF7C3FF00211420FFF7BFFF0021AF204B
:1014F000FFF7BBFF10BD10B500218D20FFF7B5FF32
:1015000000211020FFF7B1FF0021AE20FFF7ADFF53
:1015100010BD70B5002418E004F1B0000021FFF701
:10152000A4FF00210846FFF7A0FF00211020FFF7CD
:101530009CFF002505E001210020FFF796FF681CB5
:10154000C5B2802DF7DB601CC4B2082CE4DB70BD93
:1015500070B5002418E004F1B0000021FFF785FF0A
:1015600000210846FFF781FF00211020FFF77DFFD3
:10157000002505E001210846FFF777FF681CC5B28A
:10158000802DF7DB601CC4B2082CE4DB70BD2DE9B4
:10159000F04707460E469046994600250024A8F1DC
:1015A0002000C5B27F2F02DD0027B01CC6B2B9F102
:1015B000100F24D131463846FFF77BFF002408E0A6
:1015C00004EB05115F4A505C0121FFF74EFF601CE0
:1015D000C4B2082CF4DB701CC1B23846FFF769FFB7
:1015E000002409E004EB05110831564A505C012142
:1015F000FFF73BFF601CC4B2082CF3DB12E031465E
:101600003846FFF756FF00240AE005EB45014E4A35
:1016100002EB4101085D0121FFF727FF601CC4B206
:10162000062CF2DBBDE8F08710B50246012000E091
:1016300050430B1EA1F10104E1B2F9D110BD2DE917
:10164000FF5F074691461E460E9D4FF0000A00249C
:1016500035E0301B401EC1B20A20FFF7E5FFB9FBA1
:10166000F0F00A21B0FBF1F201FB1208BAF1000F11
:1016700014D1701EA04211DDB8F1000F0CD1AB46A1
:1016800005EBDB71491001FB0471C8B22B46202227
:101690000199FFF77CFF10E04FF0010AAB4605EB24
:1016A000DB71491001FB0471C8B208F13001CAB204
:1016B0002B460199FFF76BFF00BF601CC4B2B44218
:1016C000C7DBBDE8FF9F2DE9F04105460E461446F5
:1016D0001F460EE022783B4631462846FFF757FF6B
:1016E00005F10800C5B2782D02DD0025B01CC6B298
:1016F000641C20780028EDD1BDE8F0812DE9FF5F62
:1017000086B014461D464FF0010A00200390049055
:1017100005904FF00109002600BF834600221346C2
:101720002046294606F0D8FE10D285F00040CDE9CB
:1017300000402046019906F083FE06460BE00000BB
:10174000000C0140CC960008A494000820462946CD
:1017500006F076FE0646304606F027FE22462B4669
:10176000CDE9000106F02FFD074688460022FE4B1A
:101770003846414606F02AFDCDE9000106F07FFE1D
:10178000834607E009EB89004FEA40090AF10100AE
:1017900000F0FF0A0A2096FBF0F090FBF9F0002819
:1017A000F0D142F2107096FBF0F00A2190FBF1F2BA
:1017B00001FB1200C0B28DF80C004FF47A7096FB5A
:1017C000F0F090FBF1F201FB1200C0B28DF80D00B9
:1017D000642096FBF0F090FBF1F201FB1200C0B226
:1017E0008DF80E000A2096FBF0F090FBF1F201FB61
:1017F0001200C0B28DF80F000A2096FBF0F100FB3A
:101800001160C0B28DF810002E208DF811004FF439
:101810007A70BBFBF0F00A21B0FBF1F201FB120081
:101820008DF812006420BBFBF0F0B0FBF1F201FB7D
:1018300012008DF813000A20BBFBF0F0B0FBF1F2B0
:1018400001FB12008DF814000A20BBFBF0F100FB35
:1018500011B08DF8150000211498801D03AA1154B1
:10186000894608E003A810F80900303003A901F800
:10187000090009F10109B9F10A0FF3DB002213464F
:101880002046294606F028FE08D20AF1010000F0A1
:10189000FF0A2D20CAF1050103AA50542E208DF80D
:1018A000110000211498801D03AA1154CAF10500EB
:1018B00003A942180C23DDE90610FFF704FF0AB064
:1018C000BDE8F09F2DE9F04F89B082468946174662
:1018D0009846DDF84CB00120079000200490059058
:1018E00006900124002500BF00264FEAC9604FEA98
:1018F00010693846414606F0A3FD0546284606F025
:1019000065FD3A464346CDE9000106F05CFCCDE9B1
:1019100002010022944BDDE9020106F057FCCDE9FB
:10192000000106F0ACFD064606E004EB840044002E
:101930000798401CC0B207900A20B5FBF0F0B0FB3E
:10194000F4F00028F1D142F21070B5FBF0F00A215A
:10195000B0FBF1F201FB12008DF810004FF47A7029
:10196000B5FBF0F0B0FBF1F201FB12008DF81100B5
:101970006420B5FBF0F0B0FBF1F201FB12008DF832
:1019800012000A20B5FBF0F0B0FBF1F201FB1200EF
:101990008DF813002E208DF815004FF47A70B6FBE9
:1019A000F0F0B0FBF1F201FB12008DF8160064209C
:1019B000B6FBF0F0B0FBF1F201FB12008DF817005E
:1019C0000A20B6FBF0F0B0FBF1F201FB12008DF83B
:1019D00018000A20B6FBF0F100FB11608DF8190029
:1019E00000210BF1060004AA1154002405E004A80C
:1019F000005D303004A90855641C0A2CF7DB2E204A
:101A00008DF8150000210BF1060004AA115412985C
:101A1000C0F1050004A942180C2351464846FFF7BF
:101A200052FE09B0BDE8F08F2DE9F04105460F46A2
:101A3000164600BF05EB45014906080E3946FFF77B
:101A400038FD00240BE006F1100101EB4101474A8B
:101A500002EB4101085D0121FFF707FD641C062C24
:101A6000F1DBBDE8F0812DE9F04105460F46164651
:101A700000BF05EB45014906080E3946FFF719FD81
:101A8000002409E006EB4601384A02EB4101085DFB
:101A90000121FFF7EAFC641C062CF3DBBDE8F081B2
:101AA0002DE9F0470546894616463446002C22DAD1
:101AB0006442642094FBF0F100FB11400A2190FB8A
:101AC000F1F0C7B20A2094FBF0F100FB114000F0E6
:101AD000FF080D2249462846FFF7C5FF691CC8B21A
:101AE0003A464946FFF7A0FFA91CC8B242464946FC
:101AF000FFF79AFF20E0642094FBF0F100FB114017
:101B00000A2190FBF1F0C7B20A2094FBF0F100FB30
:101B1000114000F0FF080B2249462846FFF7A3FFBB
:101B2000691CC8B23A464946FFF77EFFA91CC8B2F5
:101B300042464946FFF778FFBDE8F0872DE9F047B8
:101B400005468A4616463446002C32DA64420D2297
:101B500051462846FFF787FF0A2094FBF0F100FB6F
:101B60001140C7B20A2003E00088C340A4940008D3
:101B700094FBF0F00A2190FBF1F201FB120000F05F
:101B8000FF08642094FBF0F000F0FF09E91CC8B2E4
:101B90003A465146FFF748FFA91CC8B24246514693
:101BA000FFF742FF691CC8B24A465146FFF73CFFA7
:101BB0002BE00B2251462846FFF755FF0A2094FBE5
:101BC000F0F100FB1140C7B20A2094FBF0F00A21AB
:101BD00090FBF1F201FB120000F0FF08642094FB7F
:101BE000F0F000F0FF09E91CC8B23A465146FFF791
:101BF0001BFFA91CC8B242465146FFF715FF691CDE
:101C0000C8B24A465146FFF70FFFBDE8F0872DE9FD
:101C1000F05F05468B4616463446002C00DA6442D7
:101C20004FF47A7094FBF0F0C7B24FF47A7094FBE3
:101C3000F0F100FB1140642190FBF1F000F0FF088F
:101C4000642094FBF0F100FB11400A2190FBF1F0BD
:101C500000F0FF090A2094FBF0F100FB114000F0B6
:101C6000FF0A3A4659462846FFF7DEFE691CC8B20D
:101C700042465946FFF7D8FEA91CC8B24A46594603
:101C8000FFF7D2FEE91CC8B252465946FFF7CCFE18
:101C9000BDE8F09F2DE9F05F05460E46144642F27E
:101CA0001070B4FBF0F0C7B242F21070B4FBF0F168
:101CB00000FB11404FF47A71B0FBF1F000F0FF0827
:101CC0000846B4FBF0F100FB11406421B0FBF1F0D9
:101CD00000F0FF096420B4FBF0F100FB11400A2181
:101CE000B0FBF1FA0A20B4FBF0F100FB114B3A46CD
:101CF00031462846FFF798FE691CC8B24246314675
:101D0000FFF792FEA91CC8B24A463146FFF78CFE87
:101D1000E91CC8B252463146FFF786FE291DC8B2FB
:101D20005A463146FFF780FEBDE8F09F08B5012115
:101D3000092004F00FFF0121D04804F020FD4FF4EA
:101D40004070ADF8000010208DF8030003208DF8DE
:101D500002006946CA4804F041FC4FF44071C8488B
:101D600004F0E9FC4FF44870FEF7C9FB0021AE20F7
:101D7000FFF77BFB00210846FFF777FB00211020CF
:101D8000FFF773FB00214020FFF76FFB0021B0201D
:101D9000FFF76BFB00218120FFF767FB0021FF208D
:101DA000FFF763FB0021A120FFF75FFB0021A620C6
:101DB000FFF75BFB0021A820FFF757FB00213F2026
:101DC000FFF753FB0021C820FFF74FFB0021D32072
:101DD000FFF74BFB00210846FFF747FB0021D5200A
:101DE000FFF743FB00218020FFF73FFB0021D820B5
:101DF000FFF73BFB00210520FFF737FB0021D9202F
:101E0000FFF733FB0021F120FFF72FFB0021DA2041
:101E1000FFF72BFB00211220FFF727FB0021DB201F
:101E2000FFF723FB00213020FFF71FFB00218D204F
:101E3000FFF71BFB00211420FFF717FB0021AF2049
:101E4000FFF713FB08BD10B50C238EA20021084636
:101E5000FFF739FC0C238DA201210020FFF733FC92
:101E60000C238CA201215A20FFF72DFC0C238AA2FF
:101E700002213C20FFF727FC0C2388A2022100202E
:101E8000FFF721FC0C2386A203210020FFF71BFC97
:101E90000C2385A203213C20FFF715FC0C2384A210
:101EA00006210020FFF70FFC10BDF8B50021824885
:101EB000006806F045FB16D20C2380A200213020DA
:101EC000FFF701FC7C48006880F00044204606F0E3
:101ED000EFFA054603202A460B46382100900020E1
:101EE000FFF70CFC12E00C2375A200213020FFF755
:101EF000EAFB7148006806F0DBFA0446032022463C
:101F00000B46382100900020FFF7F8FB6D48006871
:101F100006F0CEFA0446022022460B4630210090FD
:101F20000120FFF7EBFB6848022102680420FFF75D
:101F300005FE6648022102680E20FFF7FFFD644897
:101F4000006806F050FA0446224603210520FFF7F8
:101F5000F5FD6048006806F046FA04462246032173
:101F60001020FFF7EBFD5C480078612806D062285E
:101F70001ED0632823D064287DD145E00C2357A2CE
:101F800006213020FFF79FFB0C2356A204210020DE
:101F9000FFF799FB5648006806F08AFA04460220CB
:101FA00022460B460A2100900520FFF7A7FB62E0BE
:101FB0000C2350A206213020FFF785FB5BE00C23A9
:101FC0004FA206213020FFF77EFB50480068C2B2C6
:101FD00005210420FFF728FD4D48D0F81401C2B2B6
:101FE00005210820FFF720FD4A480068C2B20521FC
:101FF0000C20FFF719FD4848D0F81001C2B20521A6
:102000001020FFF711FD36E00C2344A206213020FA
:10201000FFF759FB0C2342A204210020FFF753FBDA
:102020000C2340A204213C20FFF74DFB0C233EA2D1
:1020300005210020FFF747FB0C233CA205213C2093
:10204000FFF741FB3A48042102680846FFF776FD96
:102050003848042102680E20FFF770FD364805213C
:1020600002680420FFF76AFD3448052102680E204B
:10207000FFF764FD00BF00BFF8BD000000023000A4
:10208000000C0140414E474C453A0000424154206B
:102090003A00000056000000523A00004C3A00009E
:1020A0005350443A000000005455524E3A0000008C
:1020B0004D4F44453A000000040000202D00000070
:1020C0002B00000000000020200000202400002041
:1020D000A4000020A800002030000020535230341B
:1020E0000000000044697374616E63653A0000008B
:1020F0001C000020426C7565746F6F7468000000EE
:10210000547261636B696E67000000001001214228
:10211000000021420C8121420080214250533200B4
:102120004C583A004C593A0052583A0052593A0029
:102130003C00002040000020440000204800002017
:1021400070B505460C4600F0C7F9D02000F06EFAD5
:1021500000F0FFF918B100F0DDF9012070BD28464C
:1021600000F064FA00F0F5F9204600F05FFA00F0A4
:10217000F0F918B100F0CEF90120EFE700F0CAF94C
:102180000020EBE770B504460025BC2C01DB0125DF
:1021900010E0622C01DB02250CE02A2C01DB032578
:1021A00008E0142C01DB042504E00A2C01DB0525E2
:1021B00000E0062529461A20FFF7C2FF70BD70B562
:1021C0000446B4F57A7F01DD4FF47A74042C00DA0A
:1021D00004244FF47A7090FBF4F0401EC5B22946F7
:1021E0001920FFF7ADFF0546264604EBD671C1F373
:1021F0004F00FFF7C7FF70BD70B5044600F06CF9E3
:10220000D02000F013FA00F0A4F9204600F00EFAF6
:1022100000F09FF900F060F9D12000F007FA00F01B
:1022200098F9002000F02BFA054600F073F92846D3
:1022300070BD10B50446E006010E1C20FFF780FFBC
:1022400010BD10B50446E006010E1B20FFF778FF15
:1022500010BD10B500F02DF980216B20FFF770FF45
:102260006420FEF74CF900216B20FFF769FF032083
:10227000FFF7E7FF0020FFF7DCFFC820FFF79FFF15
:1022800000213820FFF75CFF00216A20FFF758FF8C
:1022900000212320FFF754FF80213720FFF750FF54
:1022A0007520FFF7A9FF0446682C0BD101216B2094
:1022B000FFF746FF00216C20FFF742FFC820FFF721
:1022C0007EFF01E0012010BD0020FCE72DE9F04178
:1022D00006460F4614461D4600F0FEF8002141EA6E
:1022E0004601C8B200F0A2F900F033F920B100F0C5
:1022F00011F90120BDE8F081384600F097F900F0AF
:1023000028F900F0E9F8012101EB4601C8B200F01C
:102310008DF900F01EF90DE0012C04D1002000F031
:10232000AEF9287003E0012000F0A9F92870601EC2
:10233000C4B26D1C002CEFD100F0ECF80020D9E7FE
:102340002DE9F84F6B46022241216820FFF7BEFFBE
:102350009DF801009DF8001040EA01200FFA80FA74
:10236000504606F022F8804600224B4B05F0A0FFB5
:1023700006464A4A4A4B05F082FE044606F0C4F877
:1023800083464849584605F00AFE044606F02BF8F5
:1023900000B2BDE8F88F2DE9FC4104460D46164613
:1023A0006B46062243216820FFF790FF0746BFB91E
:1023B0009DF801009DF8001040EA012000B2208045
:1023C0009DF803009DF8021040EA012000B2288029
:1023D0009DF805009DF8041040EA012000B230800D
:1023E0003846BDE8FC812DE9FC4104460D46164601
:1023F0006B4606223B216820FFF768FF0746BFB9FE
:102400009DF801009DF8001040EA012000B22080F4
:102410009DF803009DF8021040EA012000B22880D8
:102420009DF805009DF8041040EA012000B23080BC
:102430003846BDE8FC812DE9F04105460E461746B9
:10244000984600F049F8002141EA4501C8B200F081
:10245000EDF800F07EF820B100F05CF80120BDE856
:10246000F081304600F0E2F800F073F800240CE050
:1024700018F8040000F0DAF800F06BF818B100F07A
:1024800049F80120EBE7601CC4B2BC42F0DB00F06D
:1024900041F80020E3E7000000407540A4703D0AC9
:1024A000D74342400000C84210B50220FEF703F8AF
:1024B00010BD08B50121082004F04CFBC020ADF888
:1024C000000010208DF8030003208DF802006946FB
:1024D000834804F083F808BD10B58148006820F0F7
:1024E00070407F4908600846006840F0405008602E
:1024F00001207C4908607C49C1F89801FFF7D4FFAE
:10250000002078490860FFF7CFFF00207649C1F826
:10251000980110BD10B57248006820F070407049F5
:1025200008600846006840F04050086000206D498F
:10253000091F08606C49C1F89C01FFF7B5FF012035
:102540006849091F08606849C1F89C01FFF7ACFFA2
:1025500010BD10B500246248006820F0704060494A
:1025600008600846006840F00040086001205D49AE
:102570000860FFF799FF01205B49C1F89801FFF758
:1025800093FF07E0601CC4B2FA2C03DDFFF7C2FF23
:10259000012010BD5348803800680028F2D151490D
:1025A000091F086000BFF4E710B500204D49091F5E
:1025B00008604B48006820F07040494908600846B0
:1025C000006840F04050086000204749C1F89C0175
:1025D000FFF76AFF01204349091F0860FFF764FF06
:1025E00000204149C1F8980110BD10B500203D49B7
:1025F000091F08603A48006820F0704038490860B8
:102600000846006840F04050086001203649C1F893
:102610009C01FFF749FF01203249091F0860FFF7BD
:1026200043FF00203049C1F8980110BD70B5044641
:102630002B48006820F0704029490860084600686F
:1026400040F04050086000202649091F086000251E
:1026500012E0E009234908606006040E01202249C7
:10266000C1F89801FFF720FF00201E49091F0860EC
:10267000FFF71AFF681CC5B2082DEADB70BD70B504
:10268000054600241648006820F070401449086090
:102690000846006840F000400860002615E0002071
:1026A0001049091F0860FFF7FFFE01200E49C1F81D
:1026B00098016006040E0B488038006808B1601C61
:1026C000C4B2FFF7F1FE701CC6B2082EE7DB15B9E5
:1026D000FFF78BFF01E0FFF767FF204670BD0000AA
:1026E000000C01409C8121420080214238B5044603
:1026F000F74890F82400C0B114B10220009001E026
:1027000000200090F24A1268D17BF14A526810789A
:102710006B460122FFF78FFE10B14FF0FF3038BD3E
:102720009DF80010EA48417423E0E948807A10B926
:102730004FF0FF30F3E724B1E548407C08B10020BA
:10274000EDE714B10120009001E000200090E04A84
:102750001268D17BDE4A526810786B460122FFF77F
:102760006AFE10B14FF0FF30D9E79DF80010D8484D
:1027700041740020D3E738B500241FE0D448006836
:10278000C07AA04204D0D2480068407DA04200D167
:1027900012E0CF49496808786B4601222146FFF7CD
:1027A00095FD10B14FF0FF3038BD9DF80020214657
:1027B000C8A006F075F800BF601CC4B2C4484068E9
:1027C0000079A042DADC0020EEE770B504460D4641
:1027D000BF480068C07AA04204D0BD480068407D70
:1027E000A04202D14FF0FF3070BDB9484068007977
:1027F000A04202DC4FF0FF30F6E7B549496808789F
:102800002B4601222146FFF761FDEDE738B504466E
:10281000AF4890F82300A04201D1002038BD14B188
:102820003020009001E000200090A948807C20B179
:102830009DF8000040F002000090A54890F82200AA
:1028400020B19DF8000040F080000090A04A12687E
:10285000117D9F4A526810786B460122FFF7EBFD0D
:1028600010B14FF0FF30D9E7994880F8234000209D
:10287000D4E738B5044604F0700010B10120009090
:1028800005E014B10020009001E040200090904A43
:102890001268917C8E4A526810786B460122FFF7CD
:1028A000CAFD20B100218A488172481E38BD9DF8BA
:1028B000000020F04001864801730020009004F0E1
:1028C000400020B99DF8000040F00400009004F0A2
:1028D000200020B99DF8000040F00200009004F0B4
:1028E000100020B99DF8000040F00100009004F0B5
:1028F000080020B99DF8000040F038000090744AAC
:102900001268D17C724A526810786B460122FFF738
:1029100092FD20B100216E488172481EC6E724B1A5
:10292000082C02D00020FFF771FF69488472002153
:1029300001753220FDF7E3FD0020B7E738B5044606
:102940006348807CA04201D1002038BD002C46D0D5
:102950005F4A126811795E4A526810786B4601220C
:10296000FFF7B4FC10B14FF0FF30EEE79DF8000028
:1029700020F020000090564A12681179544A52689B
:1029800010786B460122FFF756FD10B14FF0FF3073
:10299000DBE70320FDF7B3FD022000904C4890F8E0
:1029A000220020B19DF8000040F0800000904848CF
:1029B00090F8230020B19DF8000040F03000009016
:1029C000434A1268117D424A526810786B460122D0
:1029D000FFF731FD002851D04FF0FF30B5E73C4AFA
:1029E000126811793A4A526810786B460122FFF753
:1029F0006DFC10B14FF0FF30A7E73548807A00F04A
:102A0000010028B19DF8000040F02000009004E093
:102A10009DF8000020F0200000902D4A12681179E6
:102A20002B4A526810786B460122FFF704FD10B163
:102A30004FF0FF3089E70320FDF761FD244890F84F
:102A4000220010B18020009001E00020009020487A
:102A500090F8230020B19DF8000040F03000009075
:102A60001B4A1268117D1A4A526810786B4601227F
:102A7000FFF7E1FC10B14FF0FF3066E714488474B3
:102A8000002062E708B51248807A10B94FF0FF3095
:102A900008BD002000900E4A1268D17B0C4A526893
:102AA00010786B460122FFF7C6FC10B14FF0FF30E3
:102AB000EEE7074A12685179054A526810786B466A
:102AC0000122FFF7B8FC68B14FF0FF30E0E70000EB
:102AD000E0000020252335783A20252335780D0A9B
:102AE00000000000F84A12681179F74A526810781D
:102AF0006B460122FFF79FFC10B14FF0FF30C7E794
:102B0000F14890F82400002853D00C200090EE4AA1
:102B100012681179EC4A526810786B460122FFF76F
:102B20008AFC10B14FF0FF30B2E73220FDF7E7FC2E
:102B3000C0200090E448807A00F0010020B19DF8A8
:102B4000000040F020000090DF4A12681179DE4A50
:102B5000526810786B460122FFF76DFC10B14FF000
:102B6000FF3095E7D848407C10B10220009001E08A
:102B700000200090D44A1268D17BD34A5268107862
:102B80006B460122FFF757FC10B14FF0FF307FE793
:102B900000200090CC4A12685179CB4A52681078D4
:102BA0006B460122FFF747FC002855D04FF0FF305D
:102BB0006EE704200090C44A12681179C24A526834
:102BC00010786B460122FFF736FC10B14FF0FF3052
:102BD0005EE7BD48807C20B9BB48807A00F00100E8
:102BE00010B94020009001E060200090B64A1268C1
:102BF0001179B54A526810786B460122FFF71BFC29
:102C000010B14FF0FF3043E73220FDF778FCAE48BB
:102C1000407C10B10120009001E000200090AA4A01
:102C20001268D17BA84A526810786B460122FFF7E0
:102C300002FC10B14FF0FF302AE7A34A1268517925
:102C4000A14A52681078A04B10330122FFF7F3FB22
:102C500010B14FF0FF301BE7002019E770B50446B4
:102C6000002624F00104984890F8240008B10020C0
:102C700070BD9548807A10B94FF0FF30F8E7924860
:102C8000057C807A2040904908740846007CA04268
:102C900002D04FF0FF3600E0002614B98A48007DCC
:102CA00018B10120FFF722FD02E00020FFF71EFD12
:102CB0003CB1FFF7E7FE20B1834805744FF0FF30C9
:102CC000D6E73046D4E738B504467F48807A10B955
:102CD0004FF0FF3038BDBC2C02DB0120009015E026
:102CE000622C02DB0220009010E02A2C02DB032081
:102CF00000900BE0142C02DB0420009006E00A2C6C
:102D000002DB0520009001E0062000906E48C07AAA
:102D10009DF80010884201D10020DBE76A4A126862
:102D20009178694A526810786B460122FFF783FB5D
:102D300010B14FF0FF30CDE79DF800106248C1722E
:102D40000020C7E738B50446282C02DD4FF0FF30DD
:102D500038BDDCB90020FFF759FD00208DF80000D8
:102D600007208DF80100584A1268917C564A526833
:102D700010786B460222FFF75EFB10B14FF0FF3078
:102D8000E6E70021504801750020E1E70120FFF748
:102D90003DFD20208DF80000012C06D100208DF88B
:102DA00001000520FFF78FFF17E0052C06DC01204E
:102DB0008DF801000520FFF786FF0EE0142C06DCDD
:102DC00002208DF801000A20FFF77DFF05E00320B7
:102DD0008DF801001420FFF776FF9DF80100072110
:102DE00001EB8010C0B28DF80100374A1268917C67
:102DF000354A526810786B460222FFF71CFB10B16F
:102E00004FF0FF30A4E708212F48817200210173A1
:102E1000012101750020FFF721FF002098E738B558
:102E200004462948807A10B94FF0FF3038BD264853
:102E300090F8240010B14FF0FF30F7E72248007DF2
:102E400050B134B1282C04DCE0B2FFF77BFF002046
:102E5000ECE70020FFF776FF042C01DA042404E0FD
:102E6000B4F57A7F01DD4FF47A744FF47A7090FBF9
:102E7000F4F0401EC0B20090134A12685178124A12
:102E8000526810786B460122FFF7D5FA10B14FF067
:102E9000FF30CBE79DF80000401C4FF47A7191FBA6
:102EA000F0F081B20848C1810146C9894810FFF796
:102EB0000AFF0020BAE738B504460348807A28B9EB
:102EC0004FF0FF3038BD0000E0000020022C06D09B
:102ED000042C07D0082C08D0102C0CD108E00020BE
:102EE00000900BE00820009008E01020009005E022
:102EF0001820009002E04FF0FF30E3E700BFF948F0
:102F0000407A9DF80010B0EBE10F01D10020D9E725
:102F1000F44A1268D179F34A526810786B4601225C
:102F2000FFF789FA10B14FF0FF30CBE79DF80000B2
:102F3000C110EC4841720020C4E738B50446E948A6
:102F4000807A10B94FF0FF3038BDFA2C09D0B4F5B3
:102F5000FA7F09D0B4F57A7F09D0B4F5FA6F0CD1B5
:102F600008E0002000900BE00820009008E010200E
:102F7000009005E01820009002E04FF0FF30E3E7FA
:102F800000BFD848007A9DF80010B0EBE10F01D1E6
:102F90000020D9E7D34A12689179D24A5268107852
:102FA0006B460122FFF747FA10B14FF0FF30CBE735
:102FB0009DF80000C010CB4908720020C4E71CB582
:102FC00080208DF80000C74A1268917CC54A52687B
:102FD00010786B460122FFF72EFA10B14FF0FF3048
:102FE0001CBD6420FDF78BFA00208DF80000BD4A5F
:102FF0001268917CBB4A526810786B460122FFF739
:103000001AFA10B14FF0FF30EAE7B64A1268917D24
:10301000B44A526810786B460622FFF757F910B190
:103020004FF0FF30DCE79DF80500C007400F9DF82A
:10303000031001F0010140EA41009DF8011001F088
:10304000010140EA010494B1012C03D10121A548FA
:10305000C17431E0022C03D10021A248C1742BE0DD
:103060002146A1A005F01CFC4FF0FF30B8E79D4AB7
:103070001268D1789B4A526810786B460122FFF79C
:1030800025F910B14FF0FF30AAE79DF8000000F0DD
:103090000F042CB99E4805F003FC4FF0FF309FE76A
:1030A000042C06D19BA005F0FBFB01218D48C174C7
:1030B00002E000218B48C174FF218A488172FF2001
:1030C00088490872FF2187484172C1724FF6FF712B
:1030D000C181FF21017481740121017380F82210E4
:1030E000002180F8231041750175163001604160A0
:1030F0008160163880F8241080F82510C1844FF4C0
:10310000FA60FFF71AFF10B14FF0FF3068E70220B6
:10311000FFF7D1FE10B14FF0FF3061E72A20FFF733
:10312000D2FD10B14FF0FF305AE73220FFF777FEA3
:1031300010B14FF0FF3053E70020FFF78FFD10B1C3
:103140004FF0FF304CE70020FFF7F8FB10B14FF0D5
:10315000FF3045E70020FFF78CFB002040E7704779
:103160007CB504460D465F48807A00F0700010B9C7
:103170004FF0FF307CBD5B4A1268117B594A5268A0
:1031800010786B460622FFF7A1F810B14FF0FF3020
:10319000F0E79DF801009DF8001040EA012000B220
:1031A00020809DF803009DF8021040EA012000B243
:1031B00060809DF805009DF8041040EA012000B2EF
:1031C000A08015B12846FFF7CAFF0020D2E77CB5E2
:1031D00004460D464348807A00F0080010B94FF0CD
:1031E000FF307CBD3F4A1268517B3E4A52681078DE
:1031F0006B460622FFF76AF810B14FF0FF30F0E798
:103200009DF801009DF8001040EA012000B22080E6
:103210009DF803009DF8021040EA012000B2608092
:103220009DF805009DF8041040EA012000B2A0803E
:1032300015B12846FFF793FF0020D2E72DE9FE4F96
:1032400005460C462748807A18B94FF0FF30BDE894
:10325000FE8F244A1268917B224A5268107802AB92
:103260000222FFF733F810B14FF0FF30EFE79DF87F
:1032700009009DF8081040EA012006B214B120466A
:10328000FFF76DFF17494968C88805F089F81549A7
:1032900001904968B1F9080005F079F88346304695
:1032A00005F075F85946009004F073FE82460199C6
:1032B00004F0A7FE81461F4904F019FE80464FF036
:1032C0008F4104F06CFE074605F08DF82860002061
:1032D000BDE710B588B004461CB94FF0FF3008B008
:1032E00010BD29E0E0000020556E737570706F729C
:1032F00074656420736F6674776172652070726F95
:1033000064756374207265762025642E0A000000BF
:10331000F8A9000848616C662073656E736974696A
:1033200076697479207061727420666F756E642E90
:103330000A00000000000C42206830B9606820B923
:10334000A06810B9002008B010BDFA494968087893
:1033500006AB03221146FEF7B9FF10B14FF0FF3064
:10336000F1E79DF81800082101EB201000F00F0094
:10337000ADF800009DF8190001EB201000F00F00DF
:10338000ADF802009DF81A0001EB201000F00F00CC
:10339000ADF8040020684100BDF90000403091FB09
:1033A000F0F000B2ADF8100060684100BDF9020015
:1033B000403091FBF0F000B2ADF81200A06841007F
:1033C000BDF90400403091FBF0F000B2ADF81400FC
:1033D000D8494968087806AB06221146FEF776FF01
:1033E00010B14FF0FF30AEE79DF819009DF81810AE
:1033F00040EA012000B2ADF808009DF81B009DF8DE
:103400001A1040EA012000B2ADF80A009DF81D0034
:103410009DF81C1040EA012000B2ADF80C00BDF888
:103420001000BDF80810084400B2ADF81000BDF857
:103430001200BDF80A10084400B2ADF81200BDF841
:103440001400BDF80C10084400B2ADF81400BDF82B
:103450001000000A8DF81800BDF81000C0B28DF8F9
:103460001900BDF81200000A8DF81A00BDF812000C
:10347000C0B28DF81B00BDF81400000A8DF81C00C6
:10348000BDF81400C0B28DF81D00AA49496808783B
:1034900006AB06221146FEF7CEFF10B14FF0FF300B
:1034A00051E700204FE70146A248007A30B10128D9
:1034B00007D0022809D003280FD10AE0FA2008809B
:1034C0000EE04FF4FA7008800AE04FF47A7008803A
:1034D00006E04FF4FA60088002E00020088000BF98
:1034E00000BF0020704701469248407A30B1012861
:1034F00007D0022808D003280CD108E00220087069
:103500000BE00420087008E00820087005E0102097
:10351000087002E04FF0FF30704700BF8548C07C64
:1035200018B108784006000E08700020F4E7014644
:103530008048C07A082817D2DFE800F01704070A8D
:103540000D101318BC20088013E06220088010E0E2
:103550002A2008800DE0142008800AE00A20088054
:1035600007E00520088004E000BF00BF00200880BD
:1035700000BF00BF0020704701466E4890F824004D
:1035800010B14FF0FF3070476A48C08908800020B2
:10359000F9E7014600200880401E704701464FF0C1
:1035A000FF30704701466348007A30B1012807D0E8
:1035B000022808D003280CD108E05F4808600BE01F
:1035C0005E48086008E05E48086005E05D48086005
:1035D00002E04FF0FF30704700BF0020FBE70146DC
:1035E0005448407A30B1012808D002280AD0032874
:1035F00010D10BE04FF4804008800EE041F69C7043
:1036000008800AE04FF48050088006E04FF4006024
:10361000088002E04FF0FF30704700BF4548C07C93
:1036200010B10888401008800020F5E701464148A5
:10363000007C08700020704701463E48807A10B137
:103640000120087001E0002008700020704738B5A4
:1036500004463848807A10B94FF0FF3038BD354AFB
:103660001268117C334A526810786B460222FEF7CA
:103670002DFE10B14FF0FF30F0E79DF801009DF8EE
:10368000001040EA012000B220800020E6E72DE98A
:10369000FE4F0746884692461D46DDF830B00026AC
:1036A0000024244890F8240010B1601EBDE8FE8F6D
:1036B000002028701F48807A10B94FF0FF30F5E7DE
:1036C0001C48007C10B94FF0FF30EFE71948007C30
:1036D00000F0400008B1B01CC6B21648007C00F0F3
:1036E000200008B1B01CC6B21248007C00F01000E7
:1036F00008B1B01CC6B20F48007C00F0080008B149
:10370000B01DC6B20B4A1268917A0A4A5268107804
:103710006B460222FEF7DAFD10B14FF0FF30C5E72D
:103720009DF801009DF8001040EA0129B1450BDA2F
:103730000020BBE7E00000200000034300008342BC
:103740003333034233338341FC4840684088B9EB4C
:10375000600F17DDF94A1268517CF84A52681078F8
:103760006B460122FEF7B2FD10B14FF0FF309DE72E
:103770009DF8000000F0100020B1FFF783F96FF012
:10378000010093E75046FFF7EAFCEC4A1268D17A51
:10379000EA4A526810786B463246FEF797FD10B140
:1037A0004FF0FF3082E799FBF6F0401E8BF80000E7
:1037B00000202870B4422AD0E048007C00F00800C5
:1037C00028B3601C1DF800001DF8041040EA012019
:1037D00000B2A8F80000E01C1DF80010A01C1DF8A5
:1037E000000041EA002000B2A8F80200601D1DF8A8
:1037F0000010201D1DF8000041EA002000B2A8F8CA
:103800000400287840F008002870A01D84B2B4425B
:1038100013D0CA48007C00F0400070B1601C1DF855
:1038200000001DF8041040EA012000B2388028781A
:1038300040F040002870A01C84B2B44213D0BF48AE
:10384000007C00F0200070B1601C1DF800001DF825
:10385000041040EA012000B27880287840F020006F
:103860002870A01C84B2B44213D0B448007C00F08D
:10387000100070B1601C1DF800001DF8041040EA33
:10388000012000B2B880287840F010002870A01CF9
:1038900084B200200AE7F8B504460F461646A7484A
:1038A00090F8240010B94FF0FF30F8BDA348807A9B
:1038B00010B94FF0FF30F8E7A04A1268917A9F4A9A
:1038C000526810786B460222FEF700FD10B14FF0EF
:1038D000FF30EAE79DF801009DF8001040EA01255D
:1038E000A54203DA00203070401EDEE793484068AE
:1038F0004088B5EB600F17DD904A1268517C8F4A03
:10390000526810786B460122FEF7E0FC10B14FF0D0
:10391000FF30CAE79DF8000000F0100020B1FFF76B
:10392000B1F86FF00100C0E7E2B2844B1B68D97AAE
:10393000824B5B6818783B46FEF7C8FC10B14FF02D
:10394000FF30B2E795FBF4F0401E30700020ACE78A
:1039500001467A4880F82210002070477CB5054661
:1039600076494968087801AB04220D21FEF7AEFCC8
:1039700008B107207CBD9DF80700C0F301109DF839
:10398000041001F0E00140EAE1008DF800009DF82C
:103990000700C0F381009DF8051001F0E00140EA46
:1039A000E1008DF801009DF8070000F003009DF88C
:1039B000061001F0E00140EAE1008DF80200002469
:1039C0001CE01DF8040018B9002045F8240013E09D
:1039D0005B4845F8240006E055F82400594904F0F6
:1039E000DEFA45F824001DF80400401EC0B20DF8B0
:1039F00004000028F0D100BF601CC4B2032CE0DB3F
:103A00000020B7E72DE9FE4F06460F460025684621
:103A1000FFF7A4FF002442E056F8240057F82410D2
:103A2000A0EB010ABAF1000F01DB514601E0CAF137
:103A30000001084604F0ABFC83464FF08F4104F0D0
:103A4000E0FA80465DF82400002104F079FD16D0EC
:103A50005DF82410404604F0D4FA82464FF07E51BF
:103A600004F097FA814629F0004A3748416A5046E7
:103A700004F070FD12D20120A04005430EE0324850
:103A8000C169404604F05CFD05D32F48016A4046F9
:103A900004F060FD02D20120A0400543641C032C09
:103AA000BADB2846BDE8FE8F2DE9FC5F06460F46CF
:103AB000002522494968087801AB03220D21FEF751
:103AC00005FC10B10720BDE8FC9F9DF8040000F044
:103AD0001F008DF804009DF8050000F01F008DF810
:103AE00005009DF8060000F01F008DF80600002478
:103AF00062E056F8240057F82410A0EB010BBBF14C
:103B0000000F01DB594601E0CBF10001084604F04B
:103B10003EFC4FF08F41009004F073FA814601A8FB
:103B2000005DC0B30849086804F03AFC8346594672
:103B3000064804F066FA80460FE00000E00000202E
:103B40007B14AE3E1D5A843FE49C000800B04C45F7
:103B5000FE49404604F023FA804601A8005D401E5D
:103B6000C0B201A908550028F2D14146484604F0E8
:103B700048FA83464FF07E5104F00BFA82462AF051
:103B8000004BF3488169584604F0E4FC13D201204D
:103B9000A04005430FE0FFE7ED480169484604F007
:103BA000CFFC05D3EA484169484604F0D3FC02D271
:103BB0000120A0400543641C032C9ADB284682E7C1
:103BC0002DE9F04F87B005460C46914601208DF84F
:103BD000100000208DF81100DE4A1268917CDD4A49
:103BE0005268107804AB0222FEF725FC20B14FF09A
:103BF000FF3007B0BDE8F08FC820FCF780FC002044
:103C00008DF81000D34A1268D17BD24A52681078DE
:103C100004AB0122FEF70FFC10B14FF0FF30E8E7D4
:103C2000CC4A12685179CB4A5268107804AB012211
:103C3000FEF701FC10B14FF0FF30DAE7C54A126819
:103C4000917CC44A5268107804AB0122FEF7F3FB62
:103C500010B14FF0FF30CCE7BE4A1268D17DBD4AAB
:103C60005268107804AB0122FEF7E5FB10B14FF06B
:103C7000FF30BEE7B74A12681179B64A5268107829
:103C800004AB0122FEF7D7FB10B14FF0FF30B0E7D5
:103C90000C208DF81000AF4A12681179AD4A5268B5
:103CA000107804AB0122FEF7C6FB10B14FF0FF30D5
:103CB0009FE70F20FCF723FCA648806A407A8DF826
:103CC0001000A44A12689178A24A5268107804AB96
:103CD0000122FEF7B0FB10B14FF0FF3089E79D489D
:103CE000806A007A8DF810009A4A12685178994AD1
:103CF0005268107804AB0122FEF79DFB10B14FF023
:103D0000FF3076E7B9F1000F07D09248806A807AD9
:103D100040F0E0008DF8100004E08E48806A807A60
:103D20008DF810008B4A126891798A4A526810788F
:103D300004AB0122FEF77FFB10B14FF0FF3058E7D4
:103D4000B9F1000F07D08348806AC07A40F0E000E4
:103D50008DF8100003E07E48C07A8DF810007D4A8F
:103D60001268D1797B4A5268107804AB0122FEF7C1
:103D700062FB10B14FF0FF303BE7B9F1000F02D00A
:103D8000C820FCF7BCFB40208DF81000714A126877
:103D90001179704A5268107804AB0122FEF74BFB90
:103DA00010B14FF0FF3024E778208DF81000694AF9
:103DB00012685179674A5268107804AB0122FEF705
:103DC0003AFB10B14FF0FF3013E761498889FCF7E7
:103DD00096FB00208DF810005E4A126851795D4A0A
:103DE0005268107804AB0122FEF725FB10B14FF0AA
:103DF000FF30FEE6574A1268917A564A52681078A8
:103E000004AB0222FEF762FA10B14FF0FF30F0E689
:103E10009DF811009DF8101040EA012B0C209BFB2F
:103E2000F0F0C6B20020A86068602860A060606002
:103E30002060824665E0474A1268D17A454A526856
:103E4000107804AB0C22FEF741FA10B14FF0FF30AE
:103E5000CFE69DF811009DF8101040EA012000B255
:103E6000ADF808009DF813009DF8121040EA0120FB
:103E700000B2ADF80A009DF815009DF8141040EA54
:103E8000012000B2ADF80C00BDF90810206808440C
:103E90002060BDF90A10606808446060BDF90C102C
:103EA000A0680844A0609DF817009DF8161040EA2D
:103EB000012000B2ADF800009DF819009DF818101F
:103EC00040EA012000B2ADF802009DF81B009DF809
:103ED0001A1040EA012000B2ADF80400BDF900104C
:103EE000286808442860BDF90210686808446860C2
:103EF000BDF90410A8680844A8600AF1010000F0A8
:103F0000FF0AB24597DB1248D0F800C02868C117F5
:103F1000090441EA1041070462460023384603F0D1
:103F20008FFF32460023CDE9020103F089FF2860AC
:103F30000748D0F800C06868C117090441EA104179
:103F4000070462460023384606E0000054E3853F3C
:103F5000E49C0008E000002003F072FF32460023DA
:103F6000CDE9020103F06CFF6860FE48D0F800C0A4
:103F7000A868C117090441EA1041070462460023FA
:103F8000384603F05DFF32460023CDE9020103F01D
:103F900057FFA860F348D0F804C02168C817000490
:103FA00040EA11480F04624600233846414603F0B8
:103FB00047FF32460023CDE9020103F041FF2060B4
:103FC000E848D0F804C06068C117090441EA10410C
:103FD000070462460023384603F032FF32460023CE
:103FE000CDE9020103F02CFF6060DE48D0F804C088
:103FF000A068C117090441EA104107046246002382
:10400000384603F01DFF32460023CDE9020103F0DC
:1040100017FFA060A068002804DDA068A0F580302C
:10402000A06003E0A06800F58030A0600020E0E51B
:1040300038B50446CC4890F82400A04201D10020B5
:1040400038BD24B3C84890F8250010B94FF0FF30B0
:10405000F6E70020FEF74AFB0020FEF76FFCC2499E
:10406000C88CFEF7DCFE00200090BF494968087844
:104070006B4601222321FEF7DEF90121BA4880F8C0
:1040800024100120FEF732FBFEF7FCFC13E00020B9
:10409000FEF72CFBB448007C0090B34949680878CF
:1040A0006B4601222321FEF7C6F90021AE4880F8B5
:1040B0002410FEF7E7FC0020C2E72DE9F04F8DB099
:1040C00083460F4602200C90A74890F8240020B1A8
:1040D0000020FFF7ADFF012600E0002603A8FFF750
:1040E000E2F905A8FFF7FFF901A8FFF720FA02A8F7
:1040F000FFF742FA9C4890F80AA004A8FFF796FA46
:10410000002407E0002239465846FFF759FD00B960
:1041100002E0641C022CF5DB00BF022C01D100255B
:1041200028E0002407E0012206A909A8FFF748FDBE
:1041300000B902E0641C022CF5DB00BF022C01D1A7
:10414000002517E006A93846FFF75CFC00F0FF08E1
:1041500009A95846FFF7A8FC00F0FF090025B9F1AE
:10416000000F01D145F00105B8F1000F01D145F074
:10417000020500BFFF207C490872FF217A48417286
:10418000C1724FF6FF71C181FF218172017401215B
:104190000173BDF80C00FEF7D0FE9DF81400FEF789
:1041A0008AFEBDF80400FEF78EFDBDF80800FEF79C
:1041B00036FE5046FEF75DFB9DF81000FEF74EFD03
:1041C00016B10120FFF734FF28460DB0BDE8F08F8F
:1041D000F8B504460D46164616B94FF0FF30F8BD47
:1041E0006148807A10B94FF0FF30F8E720128DF85F
:1041F0000000E0B28DF801009DF8010028445A4902
:1042000049684989884202DD4FF0FF30E7E7564AA6
:104210001268117E544A526810786B460222FEF7EB
:104220000AF910B14FF0FF30D9E7EAB24E4B1B68E4
:10423000597D4D4B5B6818783346FEF7FCF810B19A
:104240004FF0FF30CBE70020C9E7F8B504460D4634
:10425000164616B94FF0FF30F8BD4348807A10B9C2
:104260004FF0FF30F8E720128DF80000E0B28DF833
:1042700001009DF8010028443B494968498988426A
:1042800002DD4FF0FF30E7E7374A1268117E364A09
:10429000526810786B460222FEF7CDF810B14FF04D
:1042A000FF30D9E7EAB2304B1B68597D2E4B5B6873
:1042B00018783346FEF70AF810B14FF0FF30CBE71D
:1042C0000020C9E72DE9F04385B005460E4690462B
:1042D0009946254890F8250020B14FF0FF3005B0F1
:1042E000BDE8F08316B94FF0FF30F8E7002423E073
:1042F000281B102801DD102000E0281B87B232198E
:1043000039462046FFF764FF10B14FF0FF30E6E773
:1043100001AA39462046FFF798FF10B14FF0FF3051
:10432000DDE730193A4601A903F0D4FD10B16FF072
:104330000100D4E7E01984B2AC42D9DB4FEA28206F
:104340008DF8000008F0FF008DF80100064A1268A1
:10435000917E054A526810786B460222FEF76BF890
:1043600038B103E0E49C0008E00000204FF0FF308B
:10437000B5E70121FE4880F82510A0F8269000201E
:10438000ADE70146FA4890F8240008700020704715
:104390004FF0FF30704702464FF0FF307047014644
:1043A0004FF0FF307047F8B505460F461446002C15
:1043B00070D0B5F5FF5F01DDFF2605E0202D01DAA5
:1043C000012601E0C5F3471607B90127282C02DDB5
:1043D0004FF0FF30F8BDE648407D28BBE44890F838
:1043E000240038B10020FFF723FE0121E04880F8C7
:1043F000201003E00021DE4880F82010DC48163051
:10440000FFF751F8DA481830FFF76DF8D8481A303E
:10441000FFF78DF8D6481C30FFF7AEF8D448817A04
:1044200081771F30FFF702F90020FEF75FF90020C7
:10443000FEF788FC00208DF80000CD4A12689178C4
:10444000CB4A526810786B460122FDF7F4FF10B199
:104450004FF0FF30BEE740208DF80000C44A1268DC
:10446000D17BC34A526810786B460122FDF7E3FF07
:1044700000B165E08DF800608DF80170BC4A1268EB
:10448000117ABB4A526810786B460222FDF7D3FFBF
:1044900008B155E047E00520FCF731F8B448407A10
:1044A000072101EBC000C0B28DF80000B04A1268CD
:1044B000D179AF4A526810786B460122FDF7BBFFF5
:1044C00000B13DE020208DF80000012C03D1002038
:1044D0008DF801000EE0052C03DC01208DF80100B1
:1044E00008E0142C03DC02208DF8010002E0032018
:1044F0008DF801009DF80100072101EB8010C0B28A
:104500008DF801009A4A1268917C994A5268107895
:104510006B460222FDF78FFF00B111E001219448A4
:104520004175002056E7924A1632002103E0505CA4
:1045300000B105E0491C0C29F9D34FF0FF3049E7E1
:10454000FF208B490872FF2189484172C1724FF6E2
:10455000FF71C181FF218172017401210173014644
:10456000887FFEF786F98249C88AFEF7E6FC804913
:10457000087EFEF7A0FC7E49488BFEF7A4FB7C4931
:10458000888BFEF74CFC7A49C87FFEF767FB7848BA
:1045900090F8200010B10120FFF74AFD0021744877
:1045A0004175002016E770B588B002A905A8FFF78D
:1045B00084FD0446072C3ED101A8FEF7F3FF0598C1
:1045C00003F0E5FE0646019903F0E9FC054603F019
:1045D0000AFF0590069803F0DAFE0646019903F0FB
:1045E000DEFC054603F0FFFE0690079803F0CFFEC1
:1045F0000646019903F0D3FC054603F0F4FE07904C
:1046000005A800F052FA6846FEF7E9FFBDF8001071
:10461000029848430290BDF8001003984843039065
:10462000BDF8001004984843049002A800F0D0FAA6
:10463000002008B070BD0120FBE7014691F9002081
:10464000002A01DD00201EE091F90020002A01DA95
:10465000042018E091F90120002A01DD012012E078
:1046600091F90120002A01DA05200CE091F90220DD
:10467000002A01DD022006E091F90220002A01DA79
:10468000062000E00720704710B504462046FFF7DB
:10469000D4FF0346E01CFFF7D0FF43EAC00083B21B
:1046A000A01DFFF7CAFF43EA801083B2184610BD71
:1046B00070B50024FDF7FDFEFEF781FC00283DD11A
:1046C0007820FEF7D6F8C4B20CB1012070BD782076
:1046D000FEF7C4FAC4B20CB10220F7E76420FEF77B
:1046E0009EFBC4B20CB10320F0E700F043F9C4B262
:1046F0000CB10420EAE71F48FFF7C6FF054600F0AB
:1047000043F9C4B20CB10520E0E740F2731000F0A9
:104710007CFDC4B20CB10620D8E7642000F0EEFAAC
:10472000C4B20CB10720D1E7FFF73DFF04460120DA
:10473000FFF77EFCC4B21CB10920C7E70A20C5E719
:104740000020C3E72DE9F04F99B004460D46164608
:104750004FF07E574FF000084FF000094FF0000A6D
:1047600012A813A918AB0EAACDE9001014A903E0F2
:10477000E00000200C01002016A800F0A5FE18B1F2
:10478000012019B0BDE8F08FBDF84C0000F4807036
:1047900000287CD00E9803F0FAFD83464FF09D412F
:1047A00003F02FFC07460F9803F0F1FD83464FF00E
:1047B0009D4103F026FC8046109803F0E8FD8346F7
:1047C0004FF09D4103F01DFC8146119803F0DFFD81
:1047D00083464FF09D4103F014FC824639464FF06A
:1047E000804003F0DCFB4946059003F0D8FB4146CE
:1047F00007904FF0404003F0D2FB5146059003F084
:10480000CEFB0690079903F072FB834603F050FE3F
:10481000CDE9080104F018FB4FF06632544BCDE9A6
:104820000A0103F0D3FCCDE90C0103F06DFE20601A
:1048300049464FF0804003F0B2FB4946029003F036
:10484000AEFB414604904FF0404003F0A8FB4146C8
:10485000029003F0A4FB0390049903F09AFB8346B3
:104860004FF07E5103F043FB059003F021FECDE9AC
:10487000080139464FF0804003F091FB4146039018
:1048800003F08DFB494604904FF0804000E06AE061
:1048900003F085FB5146039003F081FB83460499A6
:1048A00003F025FB059003F003FECDE90601DDE9E9
:1048B000082304F011FD4FF066322D4BCDE90A01BB
:1048C00003F084FCCDE90C0103F01EFE2860514684
:1048D000504603F064FB49460490484603F05FFBF2
:1048E00041460390404603F05AFB39460190384652
:1048F00003F055FB0090019903F0F9FA0290039937
:1049000003F047FB8346049903F043FB059003F053
:10491000CFFDCDE908015146384603F040FB49463A
:104920000490404603F03BFB0390049903F0DFFA48
:104930004FF08041059003F032FB834603F0B8FD51
:10494000CDE90601DDE9082304F0C6FC4FF066322C
:10495000074BCDE90A0103F039FCCDE90C0103F066
:10496000D3FD306001E002200BE7002009E70000E2
:1049700066A64C4010B5C8234FF48062F74940F654
:10498000F630FFF79FFC10BD10B586B00446F4A0CA
:1049900000680390F3A000680290F3A00068019003
:1049A000F2A00068009004F0030003A9085C8DF8F1
:1049B000140003A8C4F3C101405C8DF8150003A8DE
:1049C000C4F38111405C8DF8160004F0030002A9C5
:1049D000085C8DF8100002A8C4F3C101405C8DF89A
:1049E000110002A8C4F38111405C8DF8120005AAE1
:1049F000032140F22640FFF7EBFB18B14FF0FF30E8
:104A000006B010BD04AA032140F22A40FFF7E0FBE4
:104A100010B14FF0FF30F3E7019805900098049033
:104A200004F0040058B19DF8140040F001008DF826
:104A300014009DF8100040F001008DF8100004F003
:104A4000200058B19DF8150040F001008DF81500C8
:104A50009DF8110040F001008DF8110004F4807001
:104A600058B19DF8160040F001008DF816009DF831
:104A7000120040F001008DF8120005AA03214FF446
:104A80008860FFF7A5FB10B14FF0FF30B8E704AA2C
:104A9000032140F23140FFF79BFB10B14FF0FF3094
:104AA000AEE7B34804810020AAE71FB50446B0482A
:104AB000007A00F0030054F820000190AC48007A1E
:104AC00000F0040010B1019840420190A848007A1B
:104AD000C0F3C10054F820000290A548007A00F00D
:104AE000200010B1029840420290A148007AC0F321
:104AF000811054F8200003909D48008900F48070D4
:104B000010B10398404203909A49019880FB01013B
:104B1000800F40EA810001909649029880FB0110C5
:104B2000820042EA917002909249039880FB011042
:104B3000820042EA917003900198000E8DF8000007
:104B40000198000C8DF801000198000A8DF8020010
:104B50000198C0B28DF803006A4604214FF47470C6
:104B6000FFF736FB18B14FF0FF3004B010BD0298CC
:104B7000000E8DF800000298000C8DF801000298DC
:104B8000000A8DF802000298C0B28DF803006A4650
:104B900004214FF47570FFF71BFB10B14FF0FF308D
:104BA000E3E70398000E8DF800000398000C8DF8E1
:104BB00001000398000A8DF802000398C0B28DF836
:104BC00003006A4604214FF47670FFF701FBCCE73F
:104BD00070B588B0064601A8FEF701FDBDF80400D7
:104BE0000021C90341EA5045C4036148007A00F03E
:104BF000030056F8200005905D48007A00F004009C
:104C000010B10598404205905948007AC0F3C100A0
:104C100056F8200006905648007A00F0200010B1A7
:104C20000698404206905248007AC0F3811056F828
:104C3000200007904E48008900F4807010B107985A
:104C4000404207900598C117A0FB042301FB0431E3
:104C500000FB0510810041EA927005900698C1178B
:104C6000A0FB042301FB043100FB0510810041EA95
:104C7000927006900798C117A0FB042301FB043132
:104C800000FB0510810041EA927007900598000E24
:104C90008DF808000598000C8DF809000598000AA9
:104CA0008DF80A000598C0B28DF80B000698000E2A
:104CB0008DF80C000698000C8DF80D000698000A7F
:104CC0008DF80E000698C0B28DF80F000798000E00
:104CD0008DF810000798000C8DF811000798000A55
:104CE0008DF812000798C0B28DF8130002AA0C21AB
:104CF0004FF42570FFF76CFA08B070BD30B585B081
:104D000004461DA207CA02AB07C3C82C03DD4FF03F
:104D1000FF3005B030BDC82090FBF4F0401E85B2D6
:104D2000280A8DF80000E8B28DF801006A460221D9
:104D300040F21620FFF74CFA10B14FF0FF30E8E7D1
:104D400002AA0C2140F6C120FFF742FA10B14FF041
:104D5000FF30DEE7064884810020DAE70C9D00087A
:104D60004CCD6C000CC92C003656760026466600E9
:104D70009801002009E3CA02FEF2ABC4AAF1DFDF0A
:104D8000BBAFDFDF0146FC48808908800020704708
:104D90002DE9FC4706460F4606F0070010B1B7F5AF
:104DA000C86F03DD4FF0FF30BDE8FC87384603F0E5
:104DB000F7FA8146F14903F024F980466846FEF788
:104DC00092FB9DF80000022806D0042816D008287F
:104DD00026D0102848D135E04FF08D41404603F0F1
:104DE000DEF8814603F018FB84B2E549404603F043
:104DF000D6F8814603F010FB85B238E04FF08C41C5
:104E0000404603F0CCF8814603F006FB84B2DD494E
:104E1000404603F0C4F8814603F0FEFA85B226E06E
:104E20004FF08B41404603F0BAF8814603F0F4FAA4
:104E300084B2D549404603F0B2F8814603F0ECFA5B
:104E400085B214E04FF08A41404603F0A8F881464D
:104E500003F0E2FA84B2CD49404603F0A0F881465F
:104E600003F0DAFA85B202E04FF0FF309CE700BFB2
:104E700020128DF80400E0B28DF8050028128DF89C
:104E80000600E8B28DF8070006F00100A0B101AA03
:104E900002214FF4EA70FFF79BF910B14FF0FF3099
:104EA00082E70DF1060202214FF49270FFF790F9AC
:104EB00010B14FF0FF3077E706F00200A0B101AA71
:104EC00002214FF4EC70FFF783F910B14FF0FF307F
:104ED0006AE70DF1060202214FF49470FFF778F9AA
:104EE00010B14FF0FF305FE706F00400A0B101AA57
:104EF00002214FF4EE70FFF76BF910B14FF0FF3065
:104F000052E70DF1060202214FF49670FFF760F9A7
:104F100010B14FF0FF3047E7002045E738B50446B1
:104F20000020009004F0010020B19DF8000040F046
:104F30003000009004F0020020B19DF8000040F025
:104F40000C00009004F0040020B19DF8000040F037
:104F5000030000906A4601214FF4A470FFF738F96E
:104F600038BD38B50446012C01DA012402E0042CD6
:104F700000DD0424601EC0B200906A46012140F2A8
:104F80004F10FFF725F938BD38B50446052094FBCE
:104F9000F0F085B228128DF80000E8B28DF801001B
:104FA0006A4602214FF4EF70FFF712F938BD38B5A9
:104FB0000446052094FBF0F085B228128DF800001D
:104FC000E8B28DF801006A4602214FF4ED70FFF758
:104FD000FFF838BDF8B505460E464FF47A7095FBDC
:104FE000F0F000FB06F4200E8DF80000200C8DF888
:104FF0000100200A8DF80200E0B28DF803006A4635
:1050000004214FF4AE70FFF7E3F8F8BD38B504465D
:10501000052094FBF0F084B220128DF80000E0B27D
:105020008DF801006A4602214FF4AD70FFF7D0F809
:1050300038BD38B50446052094FBF0F084B2201248
:105040008DF80000E0B28DF801006A4602214FF4AD
:10505000AC70FFF7BDF838BD38B5044614B94FF051
:10506000FF3038BD6A4604214FF45870FFF7EDF861
:1050700010B14FF0FF30F4E79DF8000000069DF8F6
:10508000011040EA01409DF8021040EA01209DF81D
:105090000310084320600020E3E738B50446200EE3
:1050A0008DF80000200C8DF80100200A8DF8020018
:1050B000E0B28DF803006A4604214FF45870FFF700
:1050C00087F838BD38B5044614B94FF0FF3038BD05
:1050D0006A4604214FF47170FFF7B7F810B14FF032
:1050E000FF30F4E79DF8000000069DF8011040EA4B
:1050F00001409DF8021040EA01209DF8031008438A
:1051000000EB8000800020600020E0E738B5044616
:105110001420B4FBF0F4200E8DF80000200C8DF864
:105120000100200A8DF80200E0B28DF803006A4603
:1051300004214FF47170FFF74BF838BD38B50446C1
:1051400064B120208DF8000028208DF80100302067
:105150008DF8020038208DF8030004E0A32204211A
:10516000684602F09EFE6A46042140F69E20FFF744
:105170002FF8FDF787FC38BD980100200000484358
:10518000000040460000C045000040450000C0440B
:1051900038B5044664B1C0208DF80000C2208DF8F7
:1051A0000100C4208DF80200C6208DF8030004E041
:1051B0008B220421684602F074FE6A46042140F600
:1051C0009820FFF705F8FDF75DFC38BD3EB50446B5
:1051D0006CB1FDA1D1E900208968CDE900200291E0
:1051E0006A4609214FF49760FEF7F2FF3EBDF9A22F
:1051F000D2E900109268CDE9010200916A460921C6
:105200004FF49760FEF7E4FFF0E73EB50446022056
:105210008DF80000CA208DF80100E3208DF802000F
:1052200009208DF803006A4604216820FEF7D0FFAC
:10523000A3208DF8000004F0400048B1C0208DF894
:105240000100C8208DF80200C2208DF8030006E09E
:10525000A3208DF801008DF802008DF8030004F4FE
:10526000C07048B1C4208DF80400CC208DF8050032
:10527000C6208DF8060006E0A3208DF804008DF806
:1052800005008DF80600A3208DF807008DF80800B2
:105290008DF809006A460A2140F6A720FEF798FF1C
:1052A00004F0030018B120208DF8000002E0D8209F
:1052B0008DF800006A46012140F6B620FEF788FF0F
:1052C00004F0200018B10120FFF780FF02E0002069
:1052D000FFF77CFF04F4C07008B304F4807060B181
:1052E000B2208DF800008B208DF80100B6208DF8DB
:1052F00002009B208DF803000BE0B0208DF8000029
:1053000080208DF80100B4208DF8020090208DF8E7
:1053100003006A46042140F6A220FEF759FF04F07C
:10532000010020B3F8208DF800006A4601214FF4F7
:105330000B60FEF74DFFFA210720FFF729FD07203C
:10534000FFF7ECFD0120FFF70CFE6420FFF71CFEC9
:105350004FF4FA70FFF72BFEC821A148FFF73AFE81
:105360002820FFF753FE0A20FFF763FE08E0D8204D
:105370008DF800006A4601214FF40B60FEF728FF0C
:1053800004F0020018B1D9208DF8000002E0D82006
:105390008DF800006A46012140F23D70FEF718FFCB
:1053A00004F0040018B10120FFF7F2FE02E0002033
:1053B000FFF7EEFE04F0100018B10120FFF7BEFE6B
:1053C00002E00020FFF7BAFE44F00800854948815A
:1053D000FDF758FB00208349887304F0400018B1A2
:1053E0000846807B801D887304F4C07020B17D481E
:1053F000807B801D7B49887304F0140020B17948BC
:10540000807B10307749887304F0030020B1754821
:10541000807B001D7349887300203EBD01467148A2
:1054200040890880002070472DE9F0410446E0786B
:1054300000F0C006E07800F03F05607800F0010061
:1054400098B1EF102846E91705EB5171C910A5EB8B
:10545000C101491C01F0FF086248006820B16148A1
:10546000414602683846904700BF607800F0080067
:1054700030B15C48406818B1B0115A4A5168884749
:105480000020BDE8F08110B586B0044656A207CAD8
:1054900003AB07C357A207CA8DE80700012C09D048
:1054A000022C0ED103AA0B2140F68220FEF790FEBB
:1054B00006B010BD6A460B2140F68220FEF788FE3A
:1054C000F6E74FF0FF30F3E72DE9F04F8DB00746D8
:1054D000884615469946DDE9166B00240020308089
:1054E0004049887B5A4605A9FEF7D5F918B1601ED8
:1054F0000DB0BDE8F08F3B48807A00F01400002822
:1055000061D09DF8140000069DF8151040EA014096
:105510009DF8161040EA01209DF8171008432860F6
:105520009DF8180000069DF8191040EA01409DF80A
:105530001A1040EA01209DF81B10084368609DF88E
:105540001C0000069DF81D1040EA01409DF81E1049
:1055500040EA01209DF81F100843A8609DF8200034
:1055600000069DF8211040EA01409DF8221040EA13
:1055700001209DF823100843E86004F11000C4B234
:10558000286800140190686800140290A86800144C
:105590000390E8680014049001984043029901FBCD
:1055A0000100039901FB0100049901FB010ABAF112
:1055B000706F02DBBAF1885F22DDFDF763FA00202D
:1055C0003080401E94E721E0B8AAB38DB4980D3521
:1055D0005D000000B8AAAAAAB088C3C5C700000031
:1055E00009E3CA0298010020D8B1B9F38BA391B6A0
:1055F00009B4D900DAB1B9F38BA391B6DAB4DA0001
:10560000B6F9000040F48070308000BF3448807AE2
:1056100000F0400020B305A9601C085C095D40EA69
:10562000012000B2A8F8000005A9E01C095C05AA49
:10563000A01C105C41EA002000B2A8F8020005A9F5
:10564000601D095C201D105C41EA002000B2A8F832
:105650000400A01DC4B2B6F9000040F0080030807C
:105660001F48408900F4C07008B305A9601C085C9D
:10567000095D40EA012000B2388005A9E01C095C00
:1056800005AAA01C105C41EA002000B2788005A9A0
:10569000601D095C201D105C41EA002000B2B8804A
:1056A000A01DC4B2B6F9000040F0700030800C4874
:1056B000807A00F0030018B105A90819FFF7B4FEBD
:1056C0004846FDF74CFD002012E701460448016002
:1056D00000207047014602484160002070470000EA
:1056E0009801002010B586B004460121042001F085
:1056F00031FA0121480401F03AFA0420ADF814000F
:1057000003208DF8160018208DF8170005A9784899
:1057100000F064FF0820ADF8140004208DF8170095
:1057200005A9734800F05AFF01940020ADF8080065
:10573000ADF80A00ADF80C00ADF810000C20ADF883
:105740000E0001A96B4802F0BAF9012240F225517E
:10575000684802F04CFA0121664802F03CFA06B0B3
:1057600010BD452856D008DC412818D042282ED03C
:10577000432844D0442873D165E0462856D04728B2
:1057800031D0482816D05A286AD100215A4A1170BF
:105790005A4A11705A4A11705A4A11706AE001212E
:1057A000554A11700021554A1170554A1170554AD9
:1057B00011705FE00121504A117000214F4A1170B1
:1057C00001214F4A117000214E4A117052E001210F
:1057D000494A11700021494A1170494A117001214A
:1057E000484A117046E00021434A1170434A117043
:1057F0000121434A11700021424A11703AE0002110
:105800003D4A11703D4A11703D4A117001213D4AD7
:1058100011702FE00021384A11700121374A1170B0
:105820000021374A1170374A117023E00021324AB3
:1058300011700121314A11700021314A117001218A
:10584000304A117016E000212B4A117001212B4AB9
:1058500011702B4A117000212A4A11700AE0FFE7EB
:105860000021254A1170254A1170254A1170254AD8
:10587000117000BF00BF704710B540F225511D48A0
:1058800002F09AFA30B11B4802F016FA044620469C
:10589000FFF767FF10BD10B504462146154802F01A
:1058A00007FA00BF4021134802F070FA0128F9D12D
:1058B00010BD70B504460D46002605E014F8010B36
:1058C000FFF7E9FF701C86B2AE42F7DB70BD70B522
:1058D0000446204602F0F7FA86B2002505E014F8E7
:1058E000010BFFF7D8FF681C85B2B542F7DB70BD2E
:1058F000000801400044004015010020160100206E
:10590000170100201801002008B50121082001F02E
:1059100021F90220ADF8000028208DF80300694627
:10592000074800F05BFE08BD06480068012804D166
:105930000020054908600549086002480068704772
:10594000000C014004812142280000202C0000208E
:105950000EB50121052001F0FDF84FF48060ADF88F
:10596000080010208DF80B0003208DF80A0002A912
:10597000424800F033FE4FF40060ADF808002820E4
:105980008DF80B0002A93D4800F028FE0B210120F4
:1059900000F03AFF4FF40060009000208DF8040002
:1059A00008208DF8050001208DF80600684600F0FB
:1059B00035FD0EBD2DE9F0410A20FAF77CFD4FF4CC
:1059C000006000F091FD40B300212D4801F0EAFF96
:1059D00001212B4801F052FD00BF4FF40061274820
:1059E00000F08FFE0028F8D10021254801F046FD87
:1059F000234801F0FAFF804602F0E8FC06464FF02B
:105A00003332204B02F0E2FB044602F07DFD1E49DA
:105A100008604FF4006000F078FDBDE8F08110B53B
:105A20004FF48061154800F086FE1420FAF743FD1C
:105A30004FF48061114800F080FE10BD3EB5054670
:105A40000C460121042001F092F8ADF80450ADF8A5
:105A500000400020ADF80600ADF802006946084895
:105A600001F0B0F93EBD10B50121054801F0CFFFAE
:105A700018B10121024801F0DBFF10BD000C01400C
:105A8000000800403333FB3F1C00002008B5012113
:105A9000042001F05FF83020ADF8000010208DF8F0
:105AA000030003208DF802006946F74800F096FDD8
:105AB0001020ADF800008DF8030003208DF80200DF
:105AC0006946F24800F08AFD0820ADF80000482041
:105AD0008DF803006946ED4800F080FD08BD38B53B
