:020000040800F2
:10000000B80800207D2A000801010008030100084B
:10001000070100080B0100080F01000800000000A4
:1000200000000000000000000000000013010008B4
:100030001501000800000000170100081901000860
:10004000972A0008972A0008972A0008972A00088C
:10005000972A0008972A0008972A0008972A00087C
:10006000972A0008972A0008972A0008972A00086C
:10007000972A0008972A0008972A0008972A00085C
:10008000972A0008972A0008972A0008972A00084C
:10009000972A0008972A0008972A0008972A00083C
:1000A000972A0008972A0008972A0008972A00082C
:1000B000850F0008E90C00086D0F0008972A00085A
:1000C000972A0008972A0008972A0008972A00080C
:1000D000972A0008CF0600083129000811290008D6
:1000E00001220008972A0008972A0008DFF80CD0A0
:1000F00005F07AF800480047C5010008B80800205C
:10010000704700BFFEE700BFFEE700BFFEE700BF8D
:10011000FEE77047704770477047000008B501213F
:10012000042003F0FDFA0121082003F0F9FA01216F
:10013000084603F0F5FA04208DF80300C020ADF85E
:10014000000003208DF8020069465A4803F02CF89D
:1001500004208DF803004FF44060ADF80000032048
:100160008DF802006946544803F01EF801215348F7
:1001700003F0EBF808BD10B501F0C3F901F0CCFEB7
:100180004F480078612806D062280AD063280DD035
:10019000642815D111E001F0EFFF322049490860D1
:1001A0000EE04FF4165002F021FB09E04FF4FA6024
:1001B00000F0C5F9FFF7B2FF02E002F005F900BF59
:1001C00000BF10BD00F0C8FA00F0F8FA00F07AF9AC
:1001D0004FF4E13000F03DFA4FF4165002F045FBC9
:1001E0004FF4165002F002FB02F0EEF800F0D4F9E2
:1001F00000F0CAFF00F0FEFD00F049FE002141F6CC
:100200001F4000F06DFF01F0F4FD01F07AF901F0FC
:1002100083FE00F0CBFE41F61F41642001F036F86A
:100220004FF46161142001F04FF801202649087055
:100230003EE001F09DFE2448007820B100202249D4
:100240000870FFF798FF01F093FE1D4800786428BE
:100250002ED1072002F0BAF91C490860082002F0EC
:10026000B5F91B490860052002F0B0F9194908608A
:10027000062002F0ABF91849086002F084F917492A
:10028000086012480068FA280FDB11480068FA2855
:100290000BDB10480068FA2807DB0F480068FA28D3
:1002A00003DB00200E49087002E001200C490870B1
:1002B000BFE7000000080140000C014000023000D0
:1002C000200000203C00002021000020240000200D
:1002D000280000202C0000203000002034000020E6
:1002E000380000200CB50020019000906C48006898
:1002F00040F480306A49086000BF6948006800F433
:10030000003000900198401C0190009818B90198A5
:10031000B0F5A06FF1D16248006800F4003010B170
:100320000120009001E0002000900098012843D1B6
:100330005C48006840F010005A49086008460068B0
:1003400020F0030008600846006840F002000860E2
:10035000534840685249486008464068486008462B
:10036000406840F4806048600846406820F47C1093
:1003700048600846406840F4E81048600846006855
:1003800040F08070086000BF4548006800F00070D1
:100390000028F9D04248406820F0030040494860F6
:1003A0000846406840F00200486000BF3C48406892
:1003B00000F00C000828F9D10CBD10B5FFF792FF32
:1003C00010BD10B53648006840F00100344908609F
:1003D000084640683449084031494860084600688A
:1003E000324908402E4908600846006820F4802001
:1003F00008600846406820F4FE0048604FF41F0083
:100400008860FFF7DAFF4FF000602949086010BDEF
:1004100010B5002100200022214B5B6803F00C0185
:1004200021B1042906D0082928D107E0214B224C0C
:10043000236027E01F4B204C236023E0184B5B68B0
:1004400003F47010164B5B6803F48032022303EB55
:10045000904022B9194B4343174C23600DE0104BD9
:100460005B6803F4003323B1144B4343124C236005
:1004700003E0104B4343104C236003E00D4B0E4C44
:10048000236000BF00BF064B5B68C3F303130C4C33
:10049000E15C094B1B68CB40074C236010BD00009A
:1004A00000100240002002400000FFF8FFFFF6FEAF
:1004B00008ED00E000127A004C00002000093D0029
:1004C0005000002010B56FF0040002F038FB2E48F9
:1004D00000682E49B0FBF1F02D49087008460078FD
:1004E00000EB4001C1EBC0104FF6FF7101EAC00004
:1004F0002849088010BD0146254A12784A434FF02A
:10050000E0235A6100229A611A46126942F0010200
:100510001A6100BF4FF0E022106900F001021AB129
:1005200000F48032002AF5D04FF0E022126922F068
:1005300001024FF0E0231A6100229A6170470146E0
:10054000144A12884A434FF0E0235A6100229A610C
:100550001A46126942F001021A6100BF4FF0E02210
:10056000106900F001021AB100F48032002AF5D0BF
:100570004FF0E022126922F001024FF0E0231A61ED
:1005800000229A61704700004C00002000127A009F
:10059000600000206200002008B54FF4A06002F067
:1005A0007FFA17208DF8000001208DF801008DF8EA
:1005B00002008DF80300684602F077FA28208DF8D3
:1005C000000001208DF8010002208DF802000120BA
:1005D0008DF80300684602F068FA26208DF80000C6
:1005E00000208DF8010001208DF802008DF8030035
:1005F000684602F05AFA27208DF8000000208DF896
:10060000010001208DF802008DF80300684602F019
:100610004CFA1D208DF8000000208DF80100032009
:100620008DF8020001208DF80300684602F03DFAC3
:1006300008BD0000014600BF704700BF424A128853
:1006400002F04002002AF9D0C2B23F4B1B1D1A80B3
:10065000704710B586B00446012144F2050003F04E
:100660005FF84FF40070ADF8140003208DF8160009
:1006700018208DF8170005A9344802F095FD4FF4B5
:100680008060ADF8140004208DF8170005A92F48EC
:1006900002F08AFD01940020ADF80800ADF80A00D0
:1006A000ADF80C00ADF810000C20ADF80E0001A95B
:1006B000254803F0EAFF012240F22551224804F0C8
:1006C0007CF80121204804F06CF806B010BD10B58C
:1006D00040F225511C4804F055F910B31A4804F0B3
:1006E000D1F8C4B21A48007800F08000C8B91848A0
:1006F000007800F0400060B10A2C03D000201449BB
:10070000087020E01248007840F08000104908701E
:1007100019E00D2C06D10E48007840F040000C493D
:10072000087010E00A48007800F03F0009490C54B6
:1007300007480078401C06490870084600783F28A2
:1007400001DD0020087010BD0038014000080140A4
:10075000680000206804002008B50121102002F084
:10076000DFFF4FF40040ADF8000010208DF80300CB
:1007700003208DF8020069460C4802F015FD08BD03
:1007800018B900210A4A11600FE00A490968491C9A
:10079000084A1160814208D105490968C943064ADF
:1007A000C2F8BC110021034A1160704700100140DB
:1007B000BC0122426C0000200000224208B5012149
:1007C000102002F0ADFF4FF48040ADF8000048204B
:1007D0008DF8030069460B4802F0E6FC08BD0146AF
:1007E0000948006860B909480068401C074A106061
:1007F000884203DB00201060012070470020FCE7E6
:100800000020FAE700100140380122427000002069
:100810002DE9F05F04460D46281BFC490860084698
:10082000006804F043FB8346F9480168584604F029
:1008300045F98046F5490968F64A1268881A04F0B5
:1008400035FB8346F4480168584604F037F9814681
:10085000414604F0DBF80746F048006804F026FB48
:100860008246394604F0D2F8064604F04BFBEB49C9
:100870000860E6480068E7490860E8480068BDE8A5
:10088000F09F2DE9F05F04460D46281BE4490860FF
:100890000846006804F00AFB8346DD4801685846B4
:1008A00004F00CF98046DE490968DE4A1268881AAD
:1008B00004F0FCFA8346D8480168584604F0FEF874
:1008C0008146414604F0A2F80746D748006804F084
:1008D000EDFA8246394604F099F8064604F012FB18
:1008E000D1490860CE480068CE490860CE4800680B
:1008F000BDE8F09F2DE9F84FCC480068802191FBBE
:10090000F0FA504604F0D2FA0746C9480068802140
:1009100091FBF0FA504604F0C9FA80464FF07E5938
:100920000226C448007862287AD1C3480078092892
:1009300077D2DFE800F0053849647792A3BECF0094
:10094000BE48006800F046FB834604F0AFFA8246DA
:10095000494604F079FB1FD2B848006800280DDD35
:10096000B648006804F0A2FA8346494604F0A0F8AD
:10097000824604F0C7FAB149086010E0AF48006849
:1009800004F094FA8346494604F040F8824604F0A5
:10099000B9FAAA49086002E00020A84908600020CE
:1009A000A7490860B2E0A548006804F07FFA8346D2
:1009B000494604F02BF8824604F0A4FA9F490860E7
:1009C00000209F490860A1E09C48006804F06EFA8E
:1009D0008346494604F01AF8824604F093FA974990
:1009E00008609748006804F061FA8346494604F0BD
:1009F0000DF8824604F086FA9149086086E00020EE
:100A00008E4908608E48006804F050FA83464946D3
:100A100003F0FCFF824604F075FA8949086075E02E
:100A200075E072E08548006804F040FA8346494664
:100A300004F03EF8824604F065FA80490860804878
:100A4000006804F033FA8346494604F031F88246E0
:100A500004F058FA7A49086058E07848006804F0D1
:100A600025FA8346494604F023F8824604F04AFA00
:100A70007249086000207249086047E06F480068CA
:100A800004F014FA8346494604F012F8824604F052
:100A900039FA6A4908606A48006804F007FA834630
:100AA000494603F0B3FF824604F02CFA644908601B
:100AB0002CE00020614908606148006804F0F6F904
:100AC0008346494603F0F4FF824604F01BFA5C4972
:100AD00008601BE05948006804F0E8F9834649467D
:100AE00003F094FF824604F00DFA5449086054481C
:100AF000006804F0DBF98346494603F0D9FF8246DB
:100B000004F000FA4E49086000E000BFC4E0494824
:100B10000078642878D14B480078002875D04A497D
:100B20000968A1F1800004F0C1F904464749096849
:100B3000A1F1800004F0BAF90546704204F0B6F95C
:100B40008246214604F076FA08D2304604F0AEF927
:100B50008246214604F078FA00D20024704204F064
:100B6000A5F98246294604F065FA08D2304604F019
:100B70009DF98246294604F067FA00D2002584F0E8
:100B8000004B3946584603F0CBFF82462B4800689D
:100B900004F08CF95146009004F056FA0DD2274823
:100BA000006804F083F98346494603F081FF8246DA
:100BB00004F0A8F9214908601CE084F0004B394694
:100BC000584603F0ADFF82461C48006804F06EF9F9
:100BD0005146009004F02EFA0CD21848006804F038
:100BE00065F98346494603F011FF824604F08AF90D
:100BF000124908604146284603F092FF824604F0FD
:100C000081F90F49086047E028E021E08C000020CE
:100C10007800002094000020740000209000002044
:100C20008000002088000020840000209C0000201C
:100C3000A000002020000020220000203C00002016
:100C40004000002038000020280000202C00002058
:100C5000002056490860564908601DE05548007854
:100C6000612819D154480078401C5349087008463F
:100C70000078142803DB0020087001F058FB4F496E
:100C80004F48006804F0D6F903D828204849086086
:100C900002E000204649086044480068502804DD0E
:100CA000484800684149086009E04048006810F180
:100CB000500F04DA4348006840423C4908603C4811
:100CC0000068282804DD404800683949086009E0C8
:100CD0003748006810F1280F04DA3B4800684042AA
:100CE00033490860BDE8F88F10B50121374803F09B
:100CF00074FC002851D00121344803F07FFC6420AB
:100D0000FFF73EFD022000F00CF940423049086038
:100D1000042000F006F92F4908602F480078401C95
:100D20002D490870084600780A2805D1002008706F
:100D300000F083FA294908606420FFF750FD60B194
:100D40001C480078401CC0B21A490870652801DBB5
:100D500061200870012022490870FFF7CBFD01F0E7
:100D600005FE204801681B480068FFF78AFD1E4900
:100D700008601E48016816480068FFF749FD1C49D5
:100D8000086000F061F91548006800F080F9184823
:100D900001681548006800F024F910BD4218114B95
:100DA0001A60421A114B1A60704700003C00002084
:100DB0004000002020000020980000200000C842D1
:100DC000040000209C000020A0000020000400403F
:100DD0000C000020080000207C0000200000002003
:100DE0002100002018000020100000201C0000201E
:100DF0001400002000B587B00121084602F09DFCD8
:100E00000121042002F08CFC0320ADF80000042036
:100E10008DF803006946614802F0C6F904A803F0A2
:100E2000E3F80020ADF810004FF6FF70ADF81400A5
:100E30000020ADF81600ADF8120004A94FF0804074
:100E400002F0A6FD00231A4603214FF0804003F074
:100E5000AEF901A803F0DBF80A20ADF80C0001A9F7
:100E6000400703F028F80121880703F0B3FB0122B3
:100E70001146900703F003F900214FF0804003F082
:100E800077FB0121880703F0DFF807B000BD00B54C
:100E900087B00121042002F050FC0121082002F05B
:100EA0003FFCC020ADF8000004208DF80300694627
:100EB0003B4802F079F904A803F096F80020ADF859
:100EC00010004FF6FF70ADF814000020ADF81600CA
:100ED000ADF8120004A9334802F05AFD00231A4667
:100EE0000321304803F063F901A803F090F80A20C9
:100EF000ADF80C0001A92B4802F0DDFF01212948C3
:100F000003F068FB01221146264803F0B8F80021DF
:100F1000244803F02DFB0121224803F095F807B087
:100F200000BD0146022904D003290BD0042919D1A0
:100F30000FE04FF08042928C10B200224FF08043BD
:100F40009A8411E0184A128810B20022164B1A80B7
:100F50000AE0144A2432128810B20022114B2433C2
:100F60001A8001E0002000BF00BF70470D4810301C
:100F700000880C481030008820F001000949103129
:100F8000088070474FF08040008A4FF08040008A10
:100F900020F001004FF080410882704700080140B6
:100FA000000C0140000800402404004008B5012165
:100FB000082002F0B5FB4FF47040ADF8000010209F
:100FC0008DF8030003208DF8020069463B4802F0CB
:100FD000EBF808BD0146002901DA484200E0084666
:100FE000704700B503460A46002B07DA0120344952
:100FF000086000203349C1F8B80106E000203049FC
:10100000086001202F49C1F8B8011846FFF7E2FF38
:101010002D490880002A08DA002029490C39086087
:1010200001202849C1F8B40107E0012024490C3906
:10103000086000202349C1F8B4011046FFF7CAFF39
:1010400021490C31088000BD2048006820498842B1
:1010500002DA08461D4908601C48006841F658310C
:10106000884202DD0846194908601A480068184994
:10107000884202DA0846174908601648006841F6B7
:101080005831884202DD084612490860704770B541
:101090000446204603F087FF05460F4A0F4B03F036
:1010A00095FF04D20020094908600A49086070BD14
:1010B000002006490860074908607047000C01409D
:1010C000BC81214200802142342C014010000020CC
:1010D000A8E4FFFF140000209A9999999999194062
:1010E00030B589B005460C460121C80202F018FB54
:1010F0000121042002F014FB4FF41060ADF8200031
:1011000018208DF8230003208DF8220008A91C4820
:1011100002F04AF8ADF81850ADF814400020ADF8D0
:101120001A00ADF8160005A9164802F031FC60203F
:10113000ADF804000120ADF806000020ADF80A006B
:10114000ADF80C0001A90F4802F05FFC01A90D48A1
:1011500002F035FD01210B4802F082FF0821094809
:1011600003F0A2F80821074803F0BDF80121054863
:1011700003F06AF80121034802F066FF09B030BDB0
:1011800000080140002C014000B587B001214FF458
:10119000027002F0C5FA4FF4004002F025FA012077
:1011A000ADF8040000208DF8070001A9324801F0D5
:1011B000FBFF324801F0E2FC002002908DF80C00A9
:1011C0008DF80D004FF46020049000200590012060
:1011D0008DF8180002A9294801F0F7FC01212748E1
:1011E00001F01FFD254801F03EFD00BF234801F03E
:1011F0003FFD0028FAD1214801F044FD00BF1F48FF
:1012000001F045FD0028FAD107B000BD10B5044635
:10121000072301222146194801F06FFD01211748DB
:1012200001F03FFD00BF0221144801F0ABFE002891
:10123000F9D0124801F0C8FD10BD2DE9FC5F08206F
:10124000FFF7E4FF009003F050FE80464FF0663257
:101250000B4B03F04AFD064600220A4B03F045FD06
:1012600004460022084B03F0B2FD824603F0C6FE9E
:1012700001900198BDE8FC9F000C01400024014052
:1012800066660A40000026400000B0403EB50546B4
:101290000C460121022002F050FAADF80450ADF8DE
:1012A00000400020ADF80600ADF802006946134882
:1012B00002F06EFB01224121104802F0E0FE012104
:1012C0000E4802F0C1FE3EBD3EB505460C4601216A
:1012D000082002F032FAADF80450ADF800400020CA
:1012E000ADF80600ADF802006946054802F050FB73
:1012F00001224121024802F0C2FE3EBD000400402E
:10130000000C004010B54FF48071F84801F0F9FF6F
:101310004FF40071F54801F0F4FF4FF40071F34809
:1013200001F0F1FF4FF48071F04801F0ECFF10BDC7
:1013300010B54FF48071ED4801F0E3FF4FF40071F8
:10134000EA4801F0E0FF4FF40071E84801F0D9FFEE
:1013500010BD10B54FF48071E44801F0D2FF4FF496
:101360008071E24801F0CFFF10BD2DE9F041054644
:101370002C464FF48071DD4801F0C5FF00261CE0CB
:10138000274607F08007802F04D1B900D74801F025
:10139000B8FF04E04FF40071D44801F0B4FF6006D8
:1013A000040E4FF48071D14801F0ABFF4FF480710F
:1013B000CE4801F0A8FF701CC6B2082EE0DBBDE8E5
:1013C000F08110B50446FFF79DFF7820FFF7CDFFB1
:1013D000FFF7BFFF0020FFF7C8FFFFF7BAFF204667
:1013E000FFF7C3FFFFF7B5FFFFF7A2FF10BD10B572
:1013F0000446FFF787FF7820FFF7B7FFFFF7A9FF45
:101400004020FFF7B2FFFFF7A4FF2046FFF7ADFF34
:10141000FFF79FFFFFF78CFF10BD70B504460D4628
:101420001DB1E0B2FFF7E3FF02E0E0B2FFF7C9FF52
:1014300070BD70B50646002418E004F1B00000212C
:10144000FFF7EBFF00210846FFF7E7FF0021102020
:10145000FFF7E3FF002505E001213046FFF7DDFF40
:10146000681CC5B2802DF7DB601CC4B2082CE4DB1D
:1014700070BD06E041F6650100E0491E0029FCD17F
:10148000401E0028F6D17047014605E0002001E02B
:10149000421CD0B27B28FBDB0A1EA1F10101F5D171
:1014A000704770B504460D4605F1B0000021FFF706
:1014B000B4FF102141EA14100021FFF7AEFF04F041
:1014C0000F000021FFF7A9FF70BD10B500218D208E
:1014D000FFF7A3FF00211420FFF79FFF0021AF209B
:1014E000FFF79BFF10BD10B500218D20FFF795FF82
:1014F00000211020FFF791FF0021AE20FFF78DFFA4
:1015000010BD70B5002418E004F1B0000021FFF711
:1015100084FF00210846FFF780FF00211020FFF71D
:101520007CFF002505E001210020FFF776FF681C05
:10153000C5B2802DF7DB601CC4B2082CE4DB70BDA3
:1015400070B5002418E004F1B0000021FFF765FF3A
:1015500000210846FFF761FF00211020FFF75DFF23
:10156000002505E001210846FFF757FF681CC5B2BA
:10157000802DF7DB601CC4B2082CE4DB70BD2DE9C4
:10158000F04707460E469046994600250024A8F1EC
:101590002000C5B27F2F02DD0027B01CC6B2B9F112
:1015A000100F24D131463846FFF77BFF002408E0B6
:1015B00004EB05114E4A505C0121FFF72EFF601C21
:1015C000C4B2082CF4DB701CC1B23846FFF769FFC7
:1015D000002409E004EB05110831454A505C012163
:1015E000FFF71BFF601CC4B2082CF3DB12E031468E
:1015F0003846FFF756FF00240AE005EB45013D4A57
:1016000002EB4101085D0121FFF707FF601CC4B236
:10161000062CF2DBBDE8F08710B50246012000E0A1
:1016200050430B1EA1F10104E1B2F9D110BD2DE927
:10163000FF5F074691461E460E9D4FF0000A0024AC
:1016400035E0301B401EC1B20A20FFF7E5FFB9FBB1
:10165000F0F00A21B0FBF1F201FB1208BAF1000F21
:1016600014D1701EA04211DDB8F1000F0CD1AB46B1
:1016700005EBDB71491001FB0471C8B22B46202237
:101680000199FFF77CFF10E04FF0010AAB4605EB34
:10169000DB71491001FB0471C8B208F13001CAB214
:1016A0002B460199FFF76BFF00BF601CC4B2B44228
:1016B000C7DBBDE8FF9F2DE9F04105460E46144605
:1016C0001F460EE022783B4631462846FFF757FF7B
:1016D00005F10800C5B2782D02DD0025B01CC6B2A8
:1016E000641C20780028EDD1BDE8F081000C014099
:1016F000A8540008805200082DE9F04180460E46AB
:101700001546002731464046FFF7CBFE00240AE08D
:10171000F74A02EB8511085D0121FFF77EFE781C78
:10172000C7B2601CC4B2102CF2DB701CC1B24046C0
:10173000FFF7B7FE00240CE06900491CEC4A02EBFD
:101740004111085D0121FFF768FE781CC7B2601CDB
:10175000C4B2102CF0DBBDE8F0812DE9F05F064645
:101760000F4690461C46DDF828A04FF0000BE1170D
:1017700004EB5171C910A4EBC10131B92046E11746
:1017800004EB5171C1F3C70506E02046E11704EBF5
:101790005171C910491CCDB23D4615E0294630466D
:1017A000FFF77FFEB1460BE059460BF1010B1AF82B
:1017B00001000121FFF731FE09F1010000F0FF09EE
:1017C000C145F1DB681CC5B2A542E7DBBDE8F09F6F
:1017D0002DE9FF5F86B014461D464FF0010A002038
:1017E0000390049005904FF00109002600BF834646
:1017F000002213462046294603F0E8FB09D285F073
:101800000040CDE900402046019903F094FB0646D4
:1018100004E02046294603F08EFB0646304603F0DE
:1018200053FB22462B46CDE9000103F05BFA074645
:1018300088460022AF4B3846414603F056FACDE9C0
:10184000000103F097FB834607E009EB89004FEAAC
:1018500040090AF1010000F0FF0A0A2096FBF0F0AF
:1018600090FBF9F00028F0D142F2107096FBF0F0F6
:101870000A2190FBF1F201FB1200C0B28DF80C00BE
:101880004FF47A7096FBF0F090FBF1F201FB12003E
:10189000C0B28DF80D00642096FBF0F090FBF1F2E1
:1018A00001FB1200C0B28DF80E000A2096FBF0F08A
:1018B00090FBF1F201FB1200C0B28DF80F000A207C
:1018C00096FBF0F100FB1160C0B28DF810002E20E5
:1018D0008DF811004FF47A70BBFBF0F00A21B0FBD9
:1018E000F1F201FB12008DF812006420BBFBF0F056
:1018F000B0FBF1F201FB12008DF813000A20BBFBD4
:10190000F0F0B0FBF1F201FB12008DF814000A2098
:10191000BBFBF0F100FB11B08DF81500002114980D
:10192000801D03AA1154894608E003A810F8090095
:10193000303003A901F8090009F10109B9F10A0FD2
:10194000F3DB002213462046294603F03FFB08D272
:101950000AF1010000F0FF0A2D20CAF1050103AAD7
:1019600050542E208DF8110000211498801D03AAD8
:101970001154CAF1050003A942180C23DDE9061031
:10198000FFF799FE0AB0BDE8F09F2DE9F04F89B04E
:101990008246894617469846DDF84CB001200790EC
:1019A00000200490059006900124002500BF002629
:1019B0004FEAC9604FEA10693846414603F0BBFA66
:1019C0000546284603F091FA3A464346CDE9000120
:1019D00003F088F9CDE902010022464BDDE902015E
:1019E00003F083F9CDE9000103F0C4FA064606E0EE
:1019F00004EB840044000798401CC0B207900A2002
:101A0000B5FBF0F0B0FBF4F00028F1D142F2107019
:101A1000B5FBF0F00A21B0FBF1F201FB12008DF8EA
:101A200010004FF47A70B5FBF0F0B0FBF1F201FB5F
:101A300012008DF811006420B5FBF0F0B0FBF1F25C
:101A400001FB12008DF812000A20B5FBF0F0B0FB8C
:101A5000F1F201FB12008DF813002E208DF8150015
:101A60004FF47A70B6FBF0F0B0FBF1F201FB12001C
:101A70008DF816006420B6FBF0F0B0FBF1F201FB2C
:101A800012008DF817000A20B6FBF0F0B0FBF1F25F
:101A900001FB12008DF818000A20B6FBF0F100FBE4
:101AA00011608DF8190000210BF1060004AA1154F1
:101AB000002405E004A8005D303004A90855641C2A
:101AC0000A2CF7DB2E208DF8150000210BF1060003
:101AD00004AA11541298C0F1050004A942180C235D
:101AE00051464846FFF7E7FD09B0BDE8F08F00001A
:101AF000A40000200088C3402DE9F04105460F46B0
:101B0000164600BF05EB45014906080E3946FFF7AA
:101B1000C8FC00240BE006F1100101EB4101FB4A77
:101B200002EB4101085D0121FFF777FC641C062CE4
:101B3000F1DBBDE8F0812DE9F04105460F46164680
:101B400000BF05EB45014906080E3946FFF7A9FC21
:101B5000002409E006EB4601EC4A02EB4101085D76
:101B60000121FFF75AFC641C062CF3DBBDE8F08171
:101B70002DE9F0470546894616463446002C22DA00
:101B80006442642094FBF0F100FB11400A2190FBB9
:101B9000F1F0C7B20A2094FBF0F100FB114000F015
:101BA000FF080D2249462846FFF7C5FF691CC8B249
:101BB0003A464946FFF7A0FFA91CC8B2424649462B
:101BC000FFF79AFF20E0642094FBF0F100FB114046
:101BD0000A2190FBF1F0C7B20A2094FBF0F100FB60
:101BE000114000F0FF080B2249462846FFF7A3FFEB
:101BF000691CC8B23A464946FFF77EFFA91CC8B225
:101C000042464946FFF778FFBDE8F0872DE9F047E7
:101C100005468A4616463446002C2DDA64420D22CB
:101C200051462846FFF787FF0A2094FBF0F100FB9E
:101C30001140C7B20A2094FBF0F00A2190FBF1F2A8
:101C400001FB120000F0FF08642094FBF0F000F0AC
:101C5000FF09E91CC8B23A465146FFF74DFFA91CDF
:101C6000C8B242465146FFF747FF691CC8B24A4610
:101C70005146FFF741FF2BE00B2251462846FFF764
:101C80005AFF0A2094FBF0F100FB1140C7B20A2072
:101C900094FBF0F00A2190FBF1F201FB120000F03E
:101CA000FF08642094FBF0F000F0FF09E91CC8B2C3
:101CB0003A465146FFF720FFA91CC8B2424651469A
:101CC000FFF71AFF691CC8B24A465146FFF714FFD6
:101CD000BDE8F0872DE9F05F05468B461646344691
:101CE000002C00DA64424FF47A7094FBF0F0C7B233
:101CF0004FF47A7094FBF0F100FB1140642190FBEB
:101D0000F1F000F0FF08642094FBF0F100FB1140BB
:101D10000A2190FBF1F000F0FF090A2094FBF0F19A
:101D200000FB114000F0FF0A3A4659462846FFF7EB
:101D3000E3FE691CC8B242465946FFF7DDFEA91C06
:101D4000C8B24A465946FFF7D7FEE91CC8B2524608
:101D50005946FFF7D1FEBDE8F09F2DE9F05F05463B
:101D60000E46144642F21070B4FBF0F0C7B242F2D5
:101D70001070B4FBF0F100FB11404FF47A71B0FB2E
:101D8000F1F000F0FF080846B4FBF0F100FB114051
:101D90006421B0FBF1F000F0FF096420B4FBF0F126
:101DA00000FB11400A21B0FBF1FA0A20B4FBF0F16C
:101DB00000FB114B3A4631462846FFF79DFE691C51
:101DC000C8B242463146FFF797FEA91CC8B24A4640
:101DD0003146FFF791FEE91CC8B252463146FFF783
:101DE0008BFE291DC8B25A463146FFF785FEBDE875
:101DF000F09F08B50121092001F092FC012144481F
:101E000001F0A3FA4FF44070ADF8000010208DF8F7
:101E1000030003208DF8020069463E4801F0C4F932
:101E20004FF440713B4801F06CFA4FF44870FEF7F4
:101E300086FB0021AE20FFF7F0FA00210846FFF7ED
:101E4000ECFA00211020FFF7E8FA00214020FFF70C
:101E5000E4FA0021B020FFF7E0FA00218120FFF72B
:101E6000DCFA0021FF20FFF7D8FA0021A120FFF7BC
:101E7000D4FA0021A620FFF7D0FA0021A820FFF70E
:101E8000CCFA00213F20FFF7C8FA0021C820FFF755
:101E9000C4FA0021D320FFF7C0FA00210846FFF75B
:101EA000BCFA0021D520FFF7B8FA00218020FFF707
:101EB000B4FA0021D820FFF7B0FA00210520FFF77F
:101EC000ACFA0021D920FFF7A8FA0021F120FFF792
:101ED000A4FA0021DA20FFF7A0FA00211220FFF770
:101EE0009CFA0021DB20FFF798FA00213020FFF751
:101EF00094FA00218D20FFF790FA00211420FFF7BB
:101F00008CFA0021AF20FFF788FA08BD8052000844
:101F100000023000000C014010B50C236CA200211F
:101F20000846FFF7C8FB0C236BA200215A20FFF7DD
:101F3000C2FB0C2369A201210020FFF7BCFB0C238C
:101F400067A201213C20FFF7B6FB0C2365A202210A
:101F50000020FFF7B0FB0C2364A202213C20FFF716
:101F6000AAFB0C2363A206210020FFF7A4FB10BDEF
:101F700038B56248006803F016F80446022022468D
:101F80000B46302100900020FFF722FC5C48012125
:101F900002680420FFF73AFE5A48012102680E2029
:101FA000FFF734FE5848022102680520FFF72EFE95
:101FB0005648022102681020FFF728FE5448007896
:101FC000612806D062281ED0632823D064287DD1E2
:101FD00045E00C234FA206213020FFF76CFB0C23B9
:101FE0004EA204210020FFF766FB4F48006802F074
:101FF000DAFF0446022022460B460A210090052003
:10200000FFF7E6FB62E00C2348A206213020FFF731
:1020100052FB5BE00C2348A206213020FFF74BFB6C
:1020200048480068C2B205210420FFF765FD464814
:10203000D0F81401C2B205210820FFF75DFD434826
:102040000068C2B205210C20FFF756FD4048D0F8C9
:102050001001C2B205211020FFF74EFD36E00C231F
:102060003CA206213020FFF726FB0C233AA20421D4
:102070000020FFF720FB0C2338A204213C20FFF7AF
:102080001AFB0C2336A205210020FFF714FB0C23BA
:1020900034A205213C20FFF70EFB334804210268DF
:1020A0000846FFF7B3FD3148042102680E20FFF710
:1020B000ADFD2F48052102680420FFF7A7FD2D483C
:1020C000052102680E20FFF7A1FD00BF00BF38BD4B
:1020D000424154203A000000560000004C3A0000F3
:1020E000523A00005350443A000000005455524EFA
:1020F0003A0000004D4F44453A0000000000002027
:10210000080000200C0000203C00002040000020BF
:1021100020000020535230340000000044697374E2
:10212000616E63653A00000004000020426C756532
:10213000746F6F7468000000547261636B696E673E
:102140000000000010012142000021420C812142C8
:1021500000802142505332004C583A004C593A000A
:1021600052583A0052593A0024000020280000201A
:102170002C000020300000201FB50121092001F0B3
:10218000CFFA4FF48060ADF80C0010208DF80F00EE
:1021900003208DF80E0003A9814801F005F84FF4E3
:1021A0000060ADF80C0028208DF80F0003A97C48D2
:1021B00000F0FAFF0B21012001F00CF94FF4006050
:1021C000019000208DF8080008208DF809000120FA
:1021D0008DF80A0001A800F007FF4FF4A06000F09E
:1021E0005FFC28208DF8000001208DF803000020FE
:1021F0008DF801008DF80200684600F056FC1FBD06
:102200002DE9F04F8FB00024664800686649B0FBA6
:10221000F1F0C0B20E904FF0000A10206349087030
:1022200040F2A460FEF767F94FF4006000F042FF4F
:10223000002875D047E04FF6FF704FF0E02148616D
:1022400088610846006940F00100086100BF4FF452
:102250000061534801F03BF80028F8D14FF0E0202E
:10226000D0F81890006920F001004FF0E0210861DB
:102270004FF6FF71A1EB090002F021FE0546514621
:1022800002F0C4FB82460E9802F019FE4849029003
:10229000504602F013FC0190029902F041FC4549BE
:1022A000039002F03DFC834602F07DFE07460022CB
:1022B000414B02F08CFD054602F0A0FE04A941F856
:1022C0002400601CC4B20A2CB5D1DDE9040102F07F
:1022D0009DFB0090069902F099FB0190079902F08E
:1022E00095FB0290089902F091FB8346099902F050
:1022F0008DFB03900A9902F089FB80460B9902F04E
:1023000085FB07460C9902F081FB06460D9902F009
:102310007DFB0546294902F003FC29490860002499
:102320004FF4006000F0D7FE0FB0BDE8F08F10B59D
:102330004FF480611A4800F0E4FF1420FEF7DBF848
:102340004FF48061164800F0DEFF10BD70B500BF8D
:1023500000BFFFF7ECFF00BF00BF4FF4FA70FEF7BD
:10236000EEF80021174802F003F90121154801F0A9
:102370006BFE00BF00BF0021124801F065FE11484E
:1023800002F019F94FF4AA7148434FF4FA6190FB37
:10239000F1F5284602F08AFD04460948046070BD44
:1023A000000C01404C00002000127A0022000020A6
:1023B0000000AA4300007A4400001D4000002041B4
:1023C00004000020000C004008B50121042001F0A9
:1023D000A7F93020ADF8000010208DF8030003208D
:1023E0008DF802006946F74800F0DEFE1020ADF8D7
:1023F00000008DF8030003208DF802006946F248C2
:1024000000F0D2FE0820ADF8000048208DF803004F
:102410006946ED4800F0C8FE08BD38B50446012005
:1024200000900020E9494870012000902DE0BDF89F
:102430000000204018B10120E549086002E00020BA
:10244000E34908600120E34908600520FEF753F8DE
:102450000020E149C1F890010520FEF74CF8012069
:10246000DD49C1F89001DD48D0F80C0130B1D74802
:102470004078BDF800100843D4494870BDF800000A
:102480004FF6FF7101EA40000090BDF80000FF2800
:10249000CDDD1020FEF72FF838BD10B50020CD4956
:1024A000091D0860CE490878FFF7B7FFCC49487886
:1024B000FFF7B3FF0120C849C1F89401C348407831
:1024C000732801D1002010BD0120FCE71CB50020BD
:1024D0000190012000900020BE49091D0860C049FC
:1024E0000878FFF79AFFBE494878FFF796FF022069
:1024F000019035E00120009026E00120B5490860F8
:102500000520FDF7F8FF0020B349C1F89001052030
:10251000FDF7F1FF0120B049C1F89001AF48D0F8B4
:102520000C0150B1A9489DF80410405CBDF80010A2
:102530000843A6499DF804208854BDF800004FF6D2
:10254000FF7101EA40000090BDF80000FF28D4DDD3
:102550001020FDF7D0FF9DF80400401CC0B2019090
:102560009DF804000928C5DB01209A49091D08606F
:102570001CBD002004E00021944A1154411CC8B243
:102580000928F8DB704710B5FFF7F3FFFFF79EFF50
:102590008E48C0788D49097940EA01209149088028
:1025A00000240FE0904810F81400401E012101FAA9
:1025B00000F08C490988084010B9601CC0B210BDF9
:1025C000601CC4B2102CEDDB0020F8E701467F4808
:1025D000405C704770B505460C4600207D49091DDA
:1025E00008601020FDF787FF0120FFF716FF42204B
:1025F000FFF713FF0020FFF710FF2846FFF70DFF3E
:102600002046FFF70AFF0020FFF707FF0020FFF733
:1026100004FF0020FFF701FF0020FFF7FEFE01206E
:102620006D49C1F894011020FDF765FF70BD10B52C
:1026300000206849091D08601020FDF75CFF01209B
:10264000FFF7EBFE4220FFF7E8FE0020FFF7E5FE74
:102650000020FFF7E2FE0020FFF7DFFE01205E49C9
:10266000C1F894011020FDF746FF10BD10B5002001
:102670005849091D08601020FDF73DFF0120FFF7B4
:10268000CCFE4320FFF7C9FE0020FFF7C6FE012065
:10269000FFF7C3FE0020FFF7C0FE0020FFF7BDFEDE
:1026A0000020FFF7BAFE0020FFF7B7FE0020FFF77B
:1026B000B4FE01204849C1F894011020FDF71BFF2A
:1026C00010BD10B500204349091D08600120FFF727
:1026D000A4FE4420FFF7A1FE0020FFF79EFE01208C
:1026E000FFF79BFE0320FFF798FE0020FFF795FE03
:1026F0000020FFF792FE0020FFF78FFE0020FFF77B
:102700008CFE01203449C1F894011020FDF7F3FE3E
:1027100010BD10B500202F49091D08601020FDF7DD
:10272000EAFE0120FFF779FE4D20FFF776FE00203C
:10273000FFF773FE0020FFF770FE0120FFF76DFE2C
:1027400001202549C1F894011020FDF7D4FE10BDE9
:1027500010B500201F49091D08601020FDF7CBFEB1
:102760000120FFF75AFE4320FFF757FE0020FFF736
:1027700054FE0020FFF751FE5A20FFF74EFE5A206C
:10278000FFF74BFE5A20FFF748FE5A20FFF745FEA1
:102790005A20FFF742FE01200F49C1F89401102092
:1027A000FDF7A9FE10BD10B5FFF741FFFFF73FFF92
:1027B000FFF73DFFFFF75AFFFFF783FFFFF7C8FF63
:1027C00010BD000000080140000C0140A8040020DA
:1027D000908121429001214200002142008021424B
:1027E00026040020240400202804002010B586B010
:1027F00004460121042000F093FF0121480400F069
:102800009CFF0420ADF8140003208DF8160018205A
:102810008DF8170005A94E4800F0C6FC0820ADF859
:10282000140004208DF8170005A9494800F0BCFCED
:1028300001940020ADF80800ADF80A00ADF80C00D6
:10284000ADF810000C20ADF80E0001A9414801F0D0
:102850001CFF012240F225513E4801F0AEFF01214C
:102860003C4801F09EFF06B010BD10B586B004468E
:102870000121082000F054FF0121880400F05DFFD1
:102880004FF48060ADF8140003208DF81600182076
:102890008DF8170005A9304800F086FC4FF4006061
:1028A000ADF8140004208DF8170005A92A4800F09F
:1028B0007BFC01940020ADF80800ADF80A00ADF8EB
:1028C0000C00ADF810000C20ADF80E0001A9234853
:1028D00001F0DBFE012240F22551204801F06DFF9E
:1028E00001211E4801F05DFF06B010BD412806DB46
:1028F000482804DCA0F14001194A117007E00828BB
:1029000002DC1749087002E00021154A1170704777
:1029100010B540F22551114802F034F838B10F4893
:1029200001F0B0FF0F4908600878FFF7DFFF10BD26
:1029300010B540F22551074802F024F838B1054897
:1029400001F0A0FF084908600878FFF7CFFF10BD2D
:102950000008014000440040000C014000480040D5
:1029600022000020480400204C04002010B58021E3
:102970003D4800F0ACFC3D4908704FF480613C4894
:1029800000F0A5FC394948704FF40061384800F068
:102990009EFC364988704021334800F098FC33494A
:1029A000C8700846007880B90846407801280CD1E4
:1029B00008468078012808D10846C07828B9462002
:1029C0002C4908602C4908604CE028480078012810
:1029D0000FD12648407860B92448807848B9234808
:1029E000C07830B90F20234908604620224908608A
:1029F00038E01E48007880B91C48407868B91B4808
:102A0000807850B91948C078012806D14620194964
:102A100008600F201849086024E01448007878B94D
:102A20001248407801280BD11048807840B90F48EF
:102A3000C07828B946200F4908600F49086011E0A6
:102A40000A48007870B90948407858B90748807832
:102A5000012807D10548C07820B9462005490860FB
:102A60000549086010BD0000000801405004002026
:102A7000000C0140180000201C0000200648804780
:102A800006480047FEE7FEE7FEE7FEE7FEE7FEE753
:102A9000FEE7FEE7FEE7FEE7C3030008ED000008DF
:102AA00031490143314A1160704770B5002100235C
:102AB0000F22C47804B32D4C246804F4E064C4F5F8
:102AC000E064210AC1F10403CA40447804FA03F126
:102AD0008478144021430901254C0678A1550478D7
:102AE00004F01F050124AC4005786D11AD0005F11F
:102AF000E025C5F8004109E0047804F01F05012431
:102B0000AC401C4D0678761145F8264070BD1A4A37
:102B10000A400243154B1B1F1A60704739B1134A14
:102B2000121D12680243114B1B1D1A6006E00F4A6A
:102B3000121D126882430D4B1B1D1A60704704283A
:102B400008D14FF0E021096941F004014FF0E02283
:102B5000116107E04FF0E021096921F004014FF015
:102B6000E0221161704700000000FA050CED00E062
:102B700000E400E080E100E080FFFF1F10B50446A4
:102B8000FA48844208D10121401500F0E3FD0021FC
:102B9000601500F0DFFD17E0F548844208D10121FF
:102BA000001500F0D7FD0021201500F0D3FD0BE04B
:102BB000F048844208D10121C80300F0CBFD002178
:102BC0004FF4004000F0C6FD10BD30B502460020B5
:102BD00000235068E84C20400D790C6844EA052435
:102BE000204350609068E54C2040D1E902542C43CA
:102BF0004D7944EA450420439060D06A20F4700087
:102C00000C7C641EE4B2234340EA0350D06230BD22
:102C100000210160017141718160C1600121017475
:102C2000704721B1826842F00102826003E082684D
:102C300022F001028260704721B1826842F4807202
:102C4000826003E0826822F480728260704710B56F
:102C50000023CBB21AB144681C43446002E04468CC
:102C60009C43446010BD816841F008018160704759
:102C7000014600208A6802F008020AB1012000E043
:102C800000207047816841F004018160704701466F
:102C900000208A6802F004020AB1012000E000204E
:102CA000704721B1826842F4A002826003E082682A
:102CB00022F4A00282607047014600208A6802F474
:102CC00080020AB1012000E00020704710B50A46DA
:102CD00000210023416821F46041531E41EA433141
:102CE000416010BD21B1426842F40062426003E0DD
:102CF000426822F4006242607047F0B504460D4617
:102D000000200021092D11DDE068A5F10A0606EB7F
:102D10004607072606FA07F18843A5F10A0606EBDF
:102D2000460603FA06F10843E0600CE0206905EB73
:102D30004507072606FA07F1884305EB450603FA1F
:102D400006F108432061072A0FDA606B561E06EB76
:102D500086071F2606FA07F18843561E06EB8606ED
:102D600005FA06F10843606322E00D2A0FDA206BB2
:102D7000D61F06EB86071F2606FA07F18843D61FE3
:102D800006EB860605FA06F10843206310E0E06AC8
:102D9000A2F10D0606EB86071F2606FA07F1884307
:102DA000A2F10D0606EB860605FA06F10843E0627D
:102DB000F0BD21B1826842F48012826003E0826833
:102DC00022F48012826070470146C86C80B270475E
:102DD00066484C300068704721B1426842F4806216
:102DE000426003E0426822F480624260704721B191
:102DF000426842F48052426003E0426822F480520A
:102E0000426070470A460021816821F4E041114385
:102E10008160704721B1826842F40042826003E021
:102E2000826822F400428260704721B1826842F4D5
:102E30000212826003E0826822F40212826070470C
:102E4000014600208A6802F400120AB1012000E065
:102E500000207047F0B504461546002000220026E9
:102E6000092911DDE068A1F10A0707EB470C0727E4
:102E700007FA0CF29043A1F10A0707EB470703FAA0
:102E800007F21043E0600CE0206901EB410C0727DA
:102E900007FA0CF2904301EB410703FA07F21043E3
:102EA0002061A06BC0F30156EF1C06F1010CA7EBEB
:102EB0000C0707EB870C1F2707FA0CF29043EF1C57
:102EC00006F1010CA7EB0C0707EB870701FA07F2E5
:102ED0001043A063F0BD10B50A4600210023816BAA
:102EE00021F44011531E41EA0351816310BD08B51E
:102EF000002300930090009B0B440093009B1A60FA
:102F000008BD08B5024600200090009201F128009B
:102F1000009B184400900098006880B208BD0A46E3
:102F200000214168164B19401143416070474162CE
:102F3000826270470A460021416821F01F01114357
:102F40004160704740B109490831096841F4000106
:102F5000064A0832116007E004490831096821F483
:102F60000001024A0832116070470000002401404D
:102F700000280140003C0140FFFEF0FFFDF7F1FF9B
:102F8000FFFD3FFF0246002013680B400BB10120FC
:102F900000E000207047CA430260704770B50246E7
:102FA0000020002300240B125568CEB205EA060467
:102FB00015681D4015B10CB1012000E0002070BD66
:102FC00000220A12D34303607047000000204449E6
:102FD0000860091D0860091D0860091D0860414856
:102FE0003F4914310860704700213D498279002A29
:102FF0003AD00A46126803689A430B461A600A1DC3
:10300000126803689A430B1D1A60027911440A681A
:1030100003681A430A60324A0832126803689A4306
:103020002F4B08331A601A1D126803689A432C4B01
:103030000C331A604279102A0ED11A1F12680368E5
:103040001A43274B08331A601A1D126803681A4383
:10305000234B0C331A600DE02149427911440A6870
:1030600003681A430A6005E0027911440A6803689C
:103070009A430A6070470021016001710C2141717F
:103080000021817170471649103109680143144AC3
:1030900010321160704701460020114A1432126844
:1030A0000A400AB1012000E0002070470C491431A9
:1030B00008607047014600200022094B1B6803EAA4
:1030C0000102074B14331B680B4013B10AB10120F6
:1030D00000E000207047024914310860704700008A
:1030E00000040140FFFF0F0010B50446CC488442A5
:1030F00008D10121042000F02DFB0021042000F064
:1031000029FB46E0C748844208D10121082000F08D
:1031100021FB0021082000F01DFB3AE0C248844258
:1031200008D10121102000F015FB0021102000F033
:1031300011FB2EE0BD48844208D10121202000F07F
:1031400009FB0021202000F005FB22E0B848844262
:1031500008D10121402000F0FDFA0021402000F0BC
:10316000F9FA16E0B348844208D10121802000F02A
:10317000F1FA0021802000F0EDFA0AE0AE48844226
:1031800007D10121801500F0E5FA0021A01500F01B
:10319000E1FA10BD10B50121084600F0DBFA00216C
:1031A000012000F0D7FA10BD2DE9F04102460025BC
:1031B0000026002000230024002791F803C00CF013
:1031C0000F0591F803C00CF0100CBCF1000F03D0F8
:1031D00091F802C04CEA050591F800C0BCF1000F5F
:1031E00031D0146800202BE04FF0010C0CFA00F3F2
:1031F000B1F800C00CEA03069E4220D183004FF0D4
:103200000F0C0CFA03F7BC4305FA03FC4CEA040468
:1032100091F803C0BCF1280F06D14FF0010C0CFA55
:1032200000FCC2F814C00AE091F803C0BCF1480FDA
:1032300005D14FF0010C0CFA00FCC2F810C0401C84
:103240000828D1D31460B1F800C0BCF1FF0F34DD01
:10325000546800202EE000F1080C4FF0010808FA35
:103260000CF3B1F800C00CEA03069E4221D18300A2
:103270004FF00F0C0CFA03F7BC4305FA03FC4CEAC1
:10328000040491F803C0BCF1280F05D100F1080C2B
:1032900008FA0CF8C2F8148091F803C0BCF1480F8A
:1032A00007D100F1080C4FF0010808FA0CF8C2F839
:1032B0001080401C0828CED35460BDE8F0814FF642
:1032C000FF710180022181700421C17070470246A4
:1032D000002093680B400BB1012000E000207047F4
:1032E0000146886880B2704702460020D3680B40D0
:1032F0000BB1012000E0002070470146C86880B291
:10330000704701617047416170470AB1016100E097
:1033100041617047C16070474FF480320A43826157
:103320008161826182698269704702460020434B55
:1033300018684FF68073184040EA021008433F4B6C
:10334000186070473E49C8617047F0B50A460023CF
:1033500000240021002500F00046B6F1004F02D104
:10336000364EF16901E0354E7168C0F3034583B212
:1033700000F44016B6F5401F08D121F070612F4EC1
:10338000766826F070662D4F7E6012E000F480169D
:10339000B6F5801F06D1032606FA05F4A14341F0D5
:1033A000706106E0460D360103FA06F6B14341F0BE
:1033B000706122B1460D360103FA06F6314300F082
:1033C0000046B6F1004F02D11C4EF16101E01B4EE8
:1033D0007160F0BD30B500228B071C0F0F2303FA7C
:1033E00004F2164B08338C1053F824309343134CDB
:1033F00008348D1044F8253023468C1053F82430BF
:103400008C07240F00FA04F423430C4C08348D106D
:1034100044F8253030BD0A49DC31086070470000AF
:1034200000080140000C0140001001400014014060
:1034300000180140001C0140002001400000014034
:1034400000002042DF48006840F00100DD490860CC
:1034500008464068DC490840DA4948600846006888
:10346000DA490840D74908600846006820F48020FF
:1034700008600846406820F4FE0048604FF41F00D2
:1034800088607047CF49096821F48031CD4A1160C6
:103490001146096821F480211160B0F5803F03D006
:1034A000B0F5802F0ED106E0C649096841F480319D
:1034B000C44A116007E0C349096841F4A021C14A28
:1034C000116000E000BF00BF704710B50146002248
:1034D000002300204A11012A02D1BA4C236806E0D9
:1034E000022A02D1B74C236A01E0B64C636A01F0AC
:1034F0001F02012494401C400CB1012000E0002078
:1035000010BD38B5002000900024002500BF3120F8
:10351000FFF7DBFF05460098401C00900098B0F5CF
:10352000A06F01D0002DF2D03120FFF7CEFF08B1FF
:10353000012400E00024204638BD01460020A14AB5
:10354000106820F0F80040EAC10010607047A04900
:1035500008607047024600209A4B586820F47C109F
:1035600042EA01031843974B586070479849086630
:10357000704701460020934A506820F0030008433A
:10358000506070478F48406800F00C00704701465B
:1035900000208C4A506820F0F000084350607047CB
:1035A00001460020874A506820F4E06008435060DC
:1035B000704701460020834A506820F4605040EA7A
:1035C000C1005060704729B17E4A527A02437D4B58
:1035D0005A7204E07B4A527A82437A4B5A7270479D
:1035E0007B49D8310860704701460020754A506811
:1035F00020F440400843506070470021714A203257
:103600001170704A82F82010012802D004280AD1D3
:1036100004E001216B4A2032117005E00521694A5E
:103620002032117000E000BF00BF70476949086098
:1036300070476449096A0143624A116270476549EB
:1036400044390860704730B500210022002400236F
:103650005C4D6D6805F00C0121B1042905D00829E5
:1036600023D105E05C4D056022E05B4D05601FE065
:10367000544D6D6805F47012524D6D6805F4803438
:10368000022505EB92421CB9544D554305600BE0F1
:103690004C4D6D6805F400351DB1504D5543056026
:1036A00002E04D4D5543056002E04B4D056000BF03
:1036B00000BF444D6D6805F0F0010909484D6B5C91
:1036C0000568DD4045603F4D6D6805F4E061090A1D
:1036D000434D6B5C4568DD4085603A4D6D6805F48F
:1036E0006051C90A3E4D6B5C4568DD40C560354D93
:1036F0006D6805F44041890B3A4D6B5CC568B5FBBC
:10370000F3F5056130BD29B12E4A526902432D4BB4
:103710005A6104E02B4A526982432A4B5A6170472E
:1037200029B1284A92690243264B9A6104E0254A4E
:1037300092698243234B9A61704729B1214AD26929
:103740000243204BDA6104E01E4AD26982431D4BDA
:10375000DA61704729B11B4AD2680243194BDA601B
:1037600004E0184AD2688243164BDA60704729B1E8
:10377000144A12690243134B1A6104E0114A126998
:103780008243104B1A6170471249403908607047F4
:103790000F49C86470470B49C87170470948406AAF
:1037A00040F0807007494862704701460020054A92
:1037B00092680A400AB1012000E0002070470149E8
:1037C00088727047001002400000FFF8FFFFF6FE0D
:1037D000000042428004424200127A0000093D008B
:1037E000540400206404002010B50446FE488442BE
:1037F00008D10121C014FFF7ADFF0021E014FFF74D
:10380000A9FFC4E0B4F1804F08D101210846FFF7B9
:10381000AEFF00210120FFF7AAFFB8E0F348844281
:1038200008D101210220FFF7A2FF00210220FFF7AB
:103830009EFFACE0EE48844208D101210420FFF74E
:1038400096FF00210420FFF792FFA0E0E9488442A0
:1038500008D101210820FFF78AFF00210820FFF787
:1038600086FF94E0E448844208D101211020FFF74C
:103870007EFF00211020FFF77AFF88E0DF488442B6
:1038800008D101212020FFF772FF00212020FFF73F
:103890006EFF7CE0DA48844208D101214014FFF732
:1038A00059FF00216014FFF755FF70E0D5488442AE
:1038B00009D10121C804FFF74DFF00214FF400207A
:1038C000FFF748FF63E0D048844209D10121080591
:1038D000FFF740FF00214FF48010FFF73BFF56E059
:1038E000CA48844209D101214805FFF733FF00216E
:1038F0004FF40010FFF72EFF49E0C548844208D17D
:1039000001214020FFF733FF00214020FFF72FFF68
:103910003DE0C048844208D101218020FFF727FF05
:1039200000218020FFF723FF31E0BB48844208D10B
:1039300001218015FFF71BFF0021A015FFF717FFDE
:1039400025E0B648844209D101210804FFF702FFAF
:1039500000214FF48030FFF7FDFE18E0B0488442AC
:1039600009D101214804FFF7F5FE00214FF4003092
:10397000FFF7F0FE0BE0AB48844208D10121880438
:10398000FFF7E8FE00214FF48020FFF7E3FE10BDB3
:1039900000220288944B98420ED0994B98420BD04B
:1039A000B0F1804F08D0914B984205D0904B98428F
:1039B00002D0904B984204D14FF68F731A404B8837
:1039C0001A438D4B984207D08C4B984204D04FF647
:1039D000FF431A40CB881A4302808B8883850B886B
:1039E0000385814B98420BD0854B984208D08B4B76
:1039F000984205D08A4B984202D08A4B984201D116
:103A00000B7A038601238382704770B5002400225D
:103A10000023058C4FF6FE7635400584028C8388A2
:103A2000048B4FF68F752C40B51E2C400D882C430F
:103A3000751E2A400D892A434D882A436A4DA842A3
:103A40000BD06F4DA84208D0744DA84205D0744DDC
:103A5000A84202D0734DA84213D14FF6F7752A4001
:103A60004D892A434FF6FB752A408D882A434FF62D
:103A7000FF652B404FF6FF552B408D892B43CD8999
:103A80002B4383800483CD888586028470BD70B506
:103A9000002400220023058C4FF6EF763540058484
:103AA000028C8388048B48F6FF752C404FF6FF4547
:103AB0002C400D884FF6FF7606EA05252C434FF67D
:103AC000DF752A400D8906EA05152A434D8806EA66
:103AD00005152A43444DA84202D0494DA8421DD1A4
:103AE0004FF67F752A404D894FF6FF7606EA051599
:103AF0002A434FF6BF752A408D8806EA05152A43EA
:103B00004FF6FF352B404FF2FF752B408D8906EAAB
:103B100085052B43CD8906EA85052B4383800483E5
:103B2000CD880587028470BD70B500240022002373
:103B3000058C4FF6FF6635400584028C8388848BA4
:103B40004FF68F752C404FF6FC752C400D882C439A
:103B50004FF6FF552A400D894FF6FF7606EA0525F8
:103B60002A434D8806EA05252A431F4DA84202D064
:103B7000234DA8421DD14FF2FF752A404D894FF6C3
:103B8000FF7606EA05252A434FF6FF352A408D8841
:103B900006EA05252A434EF6FF752B404DF6FF75C4
:103BA0002B408D8906EA05152B43CD8906EA0515BC
:103BB0002B4383808483CD888587028470BD70B554
:103BC000002200230024058C4EF6FF763540058444
:103BD000038C8488828B48F6FF752A404FF6FF4598
:103BE0002A400D8820E00000002C01400004004025
:103BF00000080040000C004000100040001400408D
:103C000000340140004C014000500140005401408C
:103C100000180040001C004000200040004001400F
:103C200000440140004801404FF6FF7606EA0525B2
:103C30002A434DF6FF752B400D8906EA05352B43C7
:103C40004D8806EA05352B43FA4DA84202D0FA4DBD
:103C5000A84208D14BF6FF752C408D894FF6FF76B0
:103C600006EA85152C4384808283CD88A0F84050D5
:103C7000038470BD828B4FF2FF331A408283828BA4
:103C80004FF6FF7303EA01231A4382837047F0B5AE
:103C90000C461546002200210026078C4EF6FF7CBC
:103CA00007EA0C070784828B018C4FF6FF7707EA3F
:103CB000043640F6FF473A404FF6FF7707EA0527FC
:103CC0003A434FF6FF7707EA03373A43D94FB842F2
:103CD0000ED0D94FB8420BD0B0F1804F08D0D74F9B
:103CE000B84205D0D64FB84202D0D64FB84206D11E
:103CF0004DF6FF77394046F48057394305E047F6E3
:103D0000FF57394044F48057394382830184F0BD22
:103D1000828B4FF6F3731A408283828B0A4382832D
:103D20007047F0B50C461546002200210026078C8E
:103D30004FF6FF6C07EA0C070784828B018C4FF665
:103D4000FF7707EA04264FF60C773A404FF6FF77E5
:103D500007EA03172F433A43B64FB8420ED0B64F87
:103D6000B8420BD0B0F1804F08D0B44FB84205D064
:103D7000B34FB84202D0B34FB84206D14FF6FF5707
:103D8000394046F48077394305E04FF2FF57394018
:103D900044F48077394382830184F0BD028B4FF273
:103DA000FF331A400283028B4FF6FF7303EA0123AD
:103DB0001A4302837047F0B50C46154600220021D5
:103DC0000026078C4FF6EF7C07EA0C070784028B6E
:103DD000018C4FF6FF7707EA041640F6FF473A409A
:103DE0004FF6FF7707EA03373A434FF6FF7707EAC4
:103DF00005273A438F4FB8420ED08F4FB8420BD0B1
:103E0000B0F1804F08D08D4FB84205D08C4FB842EA
:103E100002D08C4FB84206D14FF6DF77394046F0DA
:103E20001007394305E04FF65F77394044F010073B
:103E3000394302830184F0BD028B4FF6F3731A40BD
:103E40000283028B0A4302837047F0B50C46154685
:103E500000220021068C4FF6FE773E400684028B3E
:103E6000018C4FF60C7632407E1C06EA03162E4378
:103E70003243704EB0420ED06F4EB0420BD0B0F114
:103E8000804F08D06D4EB04205D06D4EB04202D08A
:103E90006C4EB04206D14FF6FD76314044F001063B
:103EA000314305E04FF6F576314044F001063143E9
:103EB00002830184F0BD70B505460C465D4885421D
:103EC0000ED05D4885420BD0B5F1804F08D05B48DD
:103ED000854205D05A48854202D05A48854200D1D1
:103EE00000E000BF208850B92389A2886188284655
:103EF000FFF7ABFFE1882846FFF79EFF25E020880B
:103F000004280AD12389A28861882846FFF753FF35
:103F1000E1882846FFF742FF17E0208808280AD1E9
:103F20002389A28861882846FFF7FBFEE18828469E
:103F3000FFF7EEFE09E02389A28861882846FFF793
:103F4000A6FEE1882846FFF795FE70BD2DE9F041F9
:103F500005460C4600260127608808B9022600E0C5
:103F60000026A088012801D1022700E0012720882F
:103F7000A0B92389A28861882846FFF766FFE188F7
:103F80002846FFF759FF23893A4631462846FFF76E
:103F900012FFE1882846FFF701FF13E02389A2887A
:103FA00061882846FFF707FFE1882846FFF7F6FEFD
:103FB00023893A4631462846FFF747FFE1882846DD
:103FC000FFF73AFFBDE8F0810A884B881A438B88D7
:103FD0001A43CB881A430B891A434B891A438B899E
:103FE0001A43A0F8442070474FF6FF7181800021EA
:103FF0000180C180418001727047002101804180B1
:104000008180C180018141818181C181704700210E
:1040100001804180012181800021C18001817047A0
:104020000021018041808180C180018141818181A5
:1040300070470000002C01400034014000040040A3
:1040400000080040000C004021B1028842F001024B
:10405000028004E002884FF6FE731A400280704727
:1040600031B1B0F8442042F40042A0F8442005E009
:10407000B0F84420C2F30E02A0F8442070471AB1F1
:1040800083890B43838102E083898B43838170475B
:104090008182704741EA0203A0F8483070471AB1A4
:1040A00083890B43838102E083898B43838170473B
:1040B00001894FF6F8721140018170470A460021CC
:1040C00001894FF68F73194011430181704730B554
:1040D00004460D4629462046FFF7F0FF208940F0B0
:1040E0000700208130BD2DE9F04104460D461646FB
:1040F0001F46602D06D13B46012231462046FFF780
:104100005AFE05E03B46012231462046FFF79DFE60
:1041100029462046FFF7D2FF208940F00700208182
:10412000BDE8F08130B50C4600210189C9B24FF6D7
:10413000FF7505EA0325154325432943018130BD59
:104140002DE9F04105460E461746984600244346A1
:104150003A4631462846FFF7E5FF2C894FF6F870BE
:10416000044044F007044FF68F70044044F070049C
:104170002C81BDE8F081F0B504460D4616461F4679
:104180003B46324629462046FFF7CCFF208940F4C3
:1041900080402081F0BD0185828270470A4600215F
:1041A00001884FF68F731940114301807047F0B5B5
:1041B0000C4615461E460021002200230189028B71
:1041C000038C4FF6F877394021434FF6FC473A40CD
:1041D00040F201173A434FF6DD773B404FF6FF7749
:1041E00007EA06172F433B43018102830384F0BD96
:1041F0000A460021018B4FF68F731940114301834A
:1042000070470A460021018B48F6FF7319404FF6AC
:10421000FF7303EA02231943018370470A46002112
:10422000818B4FF68F7319401143818370470A4683
:104230000021818B48F6FF7319404FF6FF7303EAA4
:10424000022319438183704721B1028842F0800222
:10425000028004E002884FF67F731A4002807047A4
:1042600021B1828842F00402828004E082884FF605
:10427000FB731A408280704721B1828842F00802A5
:10428000828004E082884FF6F7731A40828070477C
:1042900021B1828842F00102828004E082884FF6D8
:1042A000FE731A40828070470A460021018B4FF648
:1042B000F77319401143018370470A460021018BAF
:1042C0004FF2FF7319404FF6FF7303EA02231943BD
:1042D000018370470A460021818B4FF6F77319401E
:1042E0001143818370470A460021818B4FF2FF738F
:1042F00019404FF6FF7303EA022319438183704785
:104300000A460021018B4FF6FB73194011430183CC
:1043100070470A460021018B4FF6FF3319404FF6D4
:10432000FF7303EA02231943018370470A46002101
:10433000818B4FF6FB7319401143818370470A4606
:104340000021818B4FF6FF3319404FF6FF7303EACC
:1043500002231943818370470A460021018B4FF6DF
:104360007F7319401143018370470A460021018B76
:10437000C1F30E014FF6FF7303EA022319430183D1
:1043800070470A460021818B4FF67F731940114315
:10439000818370470A460021818BC1F30E014FF6DD
:1043A000FF7303EA02231943818370470A46002101
:1043B000018C4FF6FD7319401143018470470A4682
:1043C0000021018C4FF6F7731940114301847047A7
:1043D0000A460021018C4FF6DF7319404FF6FF7338
:1043E00003EA02131943018470470A460021018C35
:1043F0004FF67F7319404FF6FF7303EA0213194318
:10440000018470470A460021018C4FF6FF53194082
:104410004FF6FF7303EA02231943018470470A46EB
:104420000021018C4FF2FF7319404FF6FF7303EA2E
:1044300002231943018470470A460021018C4DF67E
:10444000FF7319404FF6FF7303EA023319430184E7
:10445000704730B5002301248C40A3B2048C9C43E8
:104460000484048C02FA01F5ADB22C43048430BDFF
:1044700030B5002304248C40A3B2048C9C430484F4
:10448000048C02FA01F5ADB22C43048430BD70B542
:104490000346002000241846183001258D40ACB298
:1044A0001D8CA5431D8409B1082909D100EB6100C9
:1044B000056825F0700505600568154305600EE088
:1044C0000D1FC5F34E052844056825F4E045056039
:1044D00005684FF6FF7606EA02263543056070BD93
:1044E00021B1028842F00202028004E002884FF605
:1044F000FD731A400280704721B1028842F0040225
:10450000028004E002884FF6FB731A400280704775
:1045100021B1828842F08002828004E082884FF6D6
:104520007F731A408280704702884FF6F7731A40F3
:10453000028002880A430280704782884FF68F7398
:104540001A40828082880A438280704702894FF62F
:10455000F8731A40028102890A4302817047028976
:104560004FF67F731A40028102890A430281704725
:1045700081847047818570478186704701877047C5
:1045800081877047A0F84010704702884FF6FF43BC
:104590001A40028002880A43028070470146888ED2
:1045A00070470146088F70470146888F7047014663
:1045B000B1F8400070470146888C70470146088D6D
:1045C000704702460020138A0B400BB1012000E027
:1045D00000207047CA430282704730B5024600206F
:1045E00000230024158A05EA0103958905EA0104E0
:1045F00013B10CB1012000E0002030BDCA4302829B
:104600007047000010B50446FB48844209D10121DF
:104610008803FFF79FF800214FF48040FFF79AF8D6
:1046200032E0F648844209D101214804FFF79FF89F
:1046300000214FF40030FFF79AF825E0F04884425B
:1046400009D101218804FFF792F800214FF480205E
:10465000FFF78DF818E0EB48844209D10121C80426
:10466000FFF785F800214FF40020FFF780F80BE0FA
:10467000E548844208D101210805FFF778F80021B8
:104680004FF48010FFF773F810BD2DE9F04786B0A6
:1046900005460E460024A24600BFA1460027B08969
:1046A00000B100BF2F462C8A4CF6FF700440F08802
:1046B00004432C82AC894EF6F3100440B088318953
:1046C0000843718908430443AC81AC8A4FF6FF402C
:1046D0000440B0890443AC8201A8FEF7B4FFC64889
:1046E000874202D1DDF810A001E0DDF80CA0A88916
:1046F00000F4004040B10AEBCA0000EB0A10316838
:104700004900B0FBF1F807E00AEBCA0000EB0A1021
:1047100031688900B0FBF1F86420B8FBF0F00401C7
:104720002009642101FB1089A88900F4004040B1F0
:10473000322000EBC900B0FBF1F000F007000443A9
:1047400008E0322000EB09106421B0FBF1F000F02A
:104750000F0004432C8106B0BDE8F0874FF41651DA
:10476000016000218180C18001810C2141810021F3
:104770008181704710B502460020108A4FF2FF0376
:1047800018400B884C8823438C882343CC882343D0
:104790001843108210BD0021018041808180C180BA
:1047A000704721B1828942F40052828104E08289FB
:1047B0004DF6FF731A4082817047F0B5034600241E
:1047C00000260025002040F66A17B94200D100BF3C
:1047D0001846C1F3421401F01F06012707FA06F537
:1047E000012C01D10C3004E0022C01D1103000E08A
:1047F00014301AB107682F43076002E00768AF431F
:104800000760F0BD1AB1838A0B43838202E0838A7A
:104810008B4383827047028A4FF6F0731A400282FC
:10482000028A0A430282704782894FF2FF731A405C
:10483000828182890A438281704721B1828942F054
:104840000202828104E082894FF6FD731A40828160
:104850007047028A4FF6DF731A400282028A0A43C7
:104860000282704721B1028A42F48042028204E04F
:10487000028A4BF6FF731A4002827047C1F30802A6
:104880008280704701468888C0F30800704781899C
:1048900041F0010181817047028BD2B20283028B09
:1048A00042EA012202837047028B02F47F420283B4
:1048B000028B0A430283704721B1828A42F02002B0
:1048C000828204E0828A4FF6DF731A408282704748
:1048D00021B1828A42F01002828204E0828A4FF67D
:1048E000EF731A408282704721B1828A42F0080237
:1048F000828204E0828A4FF6F7731A408282704700
:1049000021B1828942F40042828103E08289C2F3AC
:104910000E028281704721B1828A42F40062828253
:1049200004E0828A4FF2FF731A4082827047828AC3
:104930004FF6FB731A408282828A0A438282704752
:1049400021B1828A42F00202828204E0828A4FF61A
:10495000FD731A408282704702460020B1F5007F45
:1049600000D100BF13880B400BB1012000E00020F4
:10497000704701F40072B2F5007F00D100BFCA4356
:104980000280704770B502460024002300250020F5
:1049900040F66A16B14200D100BFC1F3421501F0E2
:1049A0001F03012606FA03F3012D02D19689334035
:1049B00006E0022D02D1168A334001E0968A334088
:1049C0000C12012606FA04F41688344013B10CB117
:1049D000012000E0002070BD10B50022002340F649
:1049E0006A14A14200D100BF0A1201249440A3B26C
:1049F000DC43048010BD000000380140004400404A
:104A000000480040004C004000500040F0B480EAF4
:104A10000102D40F4200B2EB410F02D20246084617
:104A200011464A0042D0C30DDDB2C1F3C752AD1AE0
:104A3000202D35DAC1F3160141F4000204B15242CF
:104A4000C5F1200602FA06F12A411044B3EBD05F0B
:104A500023D0C4B1012DA0EBC35009DCF0BC4FF052
:104A6000004202EAC352DBB200F5000000F030BBA6
:104A7000400000F1807000EBC350A0F1807040EA6C
:104A8000D170490009E0490841EAC071A0EBC35068
:104A900000F50000400800EBC350F0BC00F00FBB75
:104AA0006142012202EB4101001BF6E7F0BC7047B6
:104AB00081F00041AAE780F00040A7E780EA010208
:104AC00010B502F00043400022D04A001FD0010E72
:104AD00001EB1261C0F35600C2F3560240F400002D
:104AE00042F40002A0FB022000047F39140400D02D
:104AF000401C50EA124001D44000491EC2B20C06CC
:104B000004EBD010401C4008802A02D003E00020B3
:104B100010BD20F00100002900DA0020184310BD6C
:104B200030B480EA010202F0004530F0004221F08A
:104B3000004013D090B1C30DD40DC2F31601C0F3E1
:104B40001600E41A41F4000140F400027D34914261
:104B500001D3641C00E04900002C02DA30BC0020C4
:104B600070474FF400000023914201D3891A034398
:104B700040084FEA4101F7D151B1914202D14FF0C3
:104B8000004105E002D24FF0010101E06FF00101A8
:104B900003EBC450284430BC00F091BA2DE9FE4F1D
:104BA000804681EA0300C00F0C46009021F00041CE
:104BB00023F00045B8EB0200A94105D2404621464A
:104BC00090461C460B46024623F00040104347D057
:104BD000270DC7F30A00C3F30A510290401A01904F
:104BE00040286BDAC3F3130040F4801B0098924610
:104BF00020B10023D2EB030A63EB0B0B019859465B
:104C0000C0F14002504600F029FA06460D465046D3
:104C10005946019A00F041FA10EB08006141002466
:104C200087EA115284EAE7731A4340D0009A62B3CC
:104C3000019A012A4FEA075215DC001B61EB0201C1
:104C40004FF0004202EA0752CDE90042001C41F554
:104C5000801132462B4600F078FA03B0BDE8F08FA1
:104C600040462146F9E7001B61EB0201001C41F5BB
:104C7000801300185B412018A2F5001747EB0301D1
:104C800040EAD570B6196D4111E06D084FEA36065D
:104C900045EAC0754FEA0752001B61EB0201001C98
:104CA00041F5801149084FEA300000195141324660
:104CB0002B4603B0BDE8F04F00F038BA009801224F
:104CC00040000023D0EB020263EBE0730098214622
:104CD0004FEAE074B8EB000061EB0401E9E783F010
:104CE00000435BE781F0004158E72DE9FE4F81EA80
:104CF000030404F0004421F0004100944FF0000B45
:104D000023F0004350EA01045ED052EA03045BD072
:104D1000C3F30A54C1F30A552C44A4F2F3340194AA
:104D2000A0FB0254C1F3130141F48011C3F3130338
:104D300043F4801301FB024400FB034E840A970AEC
:104D400044EA815447EA8357A4FB076802958D0A19
:104D500005FB07854FEA932C04FB0C542705029DA5
:104D60004FEA065847EA1637B5EB08056EEB070C15
:104D7000870E920E47EA811742EA8312A7FB0201CF
:104D8000B6EB0B0164EB00042B0D43EA0C335E1809
:104D900044EB1C50DA465146E7FB0201C5F313040D
:104DA0004FEA0B3343EA14534FEA0432019C43EABF
:104DB0000603A4F10C040294009CCDE900B400F0B9
:104DC000C4F903B0BDE8F08F00200146F9E72DE9F2
:104DD000F04D81EA030404F0004B21F00045144635
:104DE0004FF0000A23F0004150EA050220D054EAB7
:104DF00001021DD0C5F30A570246C5F31303C1F3E0
:104E00001300C1F30A5640F4801543F48013A7EB56
:104E10000608101BD64608F2FD3873EB050002D3D6
:104E200008F1010801E092185B41B8F1000F03DAC4
:104E300000200146BDE8F08D00204FF480110646A9
:104E400084460EE0171B73EB050705D3121B63EBBB
:104E5000050306434CEA010C49084FEA300092185A
:104E60005B4150EA0107EDD152EA030012D082EA19
:104E7000040083EA0501084305D0101BAB4106D2AC
:104E80000122002306E000224FF0004302E06FF011
:104E9000010253101AEB06004CEB085110EB0A000C
:104EA00041EB0B01BDE8F04D00F040B9C10F80EAC5
:104EB000E0700844CA079623002100F009B9962340
:104EC0000022114600F004B90EB5C10F80EAE0706F
:104ED0000844CA07002140F233438DE80E000A4619
:104EE0000B4600F032F903B000BD0EB540F233417D
:104EF00002910021CDE900110A460B4600F025F988
:104F000003B000BD00F0004220F00040C10DC0F32E
:104F1000160040F400007F2901DA0020704796292E
:104F200003DCC1F19601C84001E096398840002AAF
:104F3000F4D04042704770B5C1F30A5201F0004509
:104F40000024C1F3130140F2FF3341F480119A426F
:104F500001DA002070BD40F233439A42A2F233429C
:104F600003DC524200F089F800E090402C43F1D07D
:104F7000404270BDC1F30A5210B5C1F3130140F2B3
:104F8000FF3341F480119A4201DA002010BD40F253
:104F900033439A42A2F2334203DC524200F06DF8EE
:104FA00010BD904010BD00F0004230F000400AD02B
:104FB000C10D01F56071C0F3160042EA0151C2084B
:104FC00040071143704700200146704730B5041E6A
:104FD00071F1000404DB4FF00044404264EB010136
:104FE000141E73F1000405DB1C464FF000435242CF
:104FF00063EB04038B4208BF824230BD01F00043E3
:1050000030B421F0004150EA010206D00A0DA2F5A9
:105010006072C1F31301002A02DC30BC002070472B
:10502000440F44EAC104C100E01830BC00EBC25098
:1050300000F045B8002801DBC0F10040002901DB89
:10504000C1F1004181427047002801DBC0F10040FE
:10505000002901DBC1F1004188427047202A04DBAE
:10506000203A00FA02F1002070479140C2F120037B
:1050700020FA03F3194390407047202A04DB203ABA
:1050800021FA02F00021704721FA02F3D040C2F168
:1050900020029140084319467047202A06DBCB17AF
:1050A000203A41FA02F043EAE07306E041FA02F3E3
:1050B000D040C2F1200291400843194670470029B0
:1050C000A8BF7047401C490008BF20F0010070478E
:1050D00010B4B0FA80FC00FA0CF050EA010404BFEE
:1050E00010BC704749B1CCF1200421FA04F411FA44
:1050F0000CF118BF012121430843A3EB0C01CB1D88
:105100004FEA00614FEA102042BF002010BC7047F8
:1051100000EBC35010440029A4BF10BC7047401CD2
:10512000490008BF20F0010010BC704710B5141EE4
:1051300073F1000408DA401C41F1000192185B4150
:105140001A4301D120F0010010BD2DE9F04D924627
:105150009B4611B1B1FA81F202E0B0FA80F220323E
:105160009046FFF77BFF04460F4640EA0A0041EAFB
:105170000B0153465A46084313D0114653EA010027
:1051800019D0C8F140025046FFF777FF05460E469A
:10519000504659464246FFF761FF084305D00120BB
:1051A00004E020463946BDE8F08D0020054346EA7C
:1051B000E0762C4337430A986305E40AA0EB080025
:1051C0000022FD0A44EA47540A3002D50020014675
:1051D000E9E7010510196941DDE908450019694150
:1051E000BDE8F04DA2E70000064C074D06E0E06880
:1051F00040F0010394E8070098471034AC42F6D31E
:10520000FAF778FF985A0008B85A000870B58C1859
:1052100010F8015B15F0070301D110F8013B2A11CA
:1052200006D110F8012B03E010F8016B01F8016BB7
:105230005B1EF9D12B0705D40023521E0DD401F8B3
:10524000013BFAE710F8013BCB1A921C03E013F87C
:10525000015B01F8015B521EF9D5A142D8D30020B1
:1052600070BD02E008C8121F08C1002AFAD17047B9
:105270007047002001E001C1121F002AFBD17047D6
:105280000000000000000000002F000000000700E8
:10529000070000147F147F1400242A7F2A12006262
:1052A000640813230036495522500000050300000E
:1052B00000001C224100000041221C000014083E96
:1052C00008140008083E0808000000A0600000085C
:1052D00008080808000060600000002010080402B0
:1052E000003E5149453E0000427F4000004261516E
:1052F0004946002141454B31001814127F10002708
:1053000045454539003C4A494930000171090503CA
:1053100000364949493600064949291E00003636FB
:10532000000000005636000000081422410000145E
:10533000141414140000412214080002015109063B
:1053400000324959513E007C1211127C007F4949BC
:105350004936003E41414122007F4141221C007FED
:1053600049494941007F09090901003E4149497AFB
:10537000007F0808087F0000417F41000020404175
:105380003F01007F08142241007F40404040007FE1
:10539000020C027F007F0408107F003E4141413E25
:1053A000007F09090906003E4151215E007F09196D
:1053B00029460046494949310001017F0101003F6A
:1053C0004040403F001F2040201F003F4038403FEA
:1053D000006314081463000708700807006151494E
:1053E000454300007F41410000552A552A550000E1
:1053F00041417F000004020102040040404040405F
:10540000000001020400002054545478007F4844F6
:10541000443800384444442000384444487F00382D
:105420005454541800087E0901020018A4A4A47C56
:10543000007F080404780000447D40000040808420
:105440007D00007F102844000000417F4000007C68
:1054500004180478007C0804047800384444443874
:1054600000FC242424180018242418FC007C0804C0
:10547000040800485454542000043F444020003C99
:105480004040207C001C2040201C003C4030403C20
:10549000004428102844001CA0A0A07C00446454B0
:1054A0004C441414141414140000000000000000F4
:1054B0000000000000000000000000F800000000F4
:1054C000000000333000000000100C06100C060035
:1054D000000000000000000040C07840C07840009C
:1054E000043F04043F040400007088FC08300000FE
:1054F000001820FF211E0000F008F000E018000056
:1055000000211C031E211E0000F00888700000000E
:105510001E2123241927211010160E000000000060
:105520000000000000000000000000E0180402007D
:10553000000000071820400000020418E0000000EE
:105540000040201807000000404080F080404000EC
:105550000202010F01020200000000F00000000042
:105560000101011F01010100000000000000000016
:1055700080B070000000000000000000000000008B
:105580000001010101010101000000000000000014
:1055900000303000000000000000000080601804AF
:1055A000006018060100000000E010080810E0008C
:1055B000000F102020100F00001010F80000000055
:1055C0000020203F2020000000700808088870009C
:1055D000003028242221300000300888884830001C
:1055E0000018202020110E000000C02010F800003C
:1055F00000070424243F240000F8088888080800D5
:105600000019212020110E0000E0108888180000E9
:10561000000F112020110E0000380808C8380800BB
:105620000000003F0000000000708808088870003B
:10563000001C222121221C0000E010080810E000BC
:105640000000312222110F00000000C0C000000045
:10565000000000303000000000000080000000006A
:105660000000806000000000000080402010080062
:10567000000102040810200040404040404040002B
:105680000404040404040400000810204080000006
:105690000020100804020100007048080808F0000B
:1056A0000000003036010000C030C828E810E000DB
:1056B0000718272423140B000000C038E000000066
:1056C000203C23020227382008F8888888700000D0
:1056D000203F202020110E00C030080808083800A4
:1056E000071820202010080008F808080810E0001B
:1056F000203F202020100F0008F88888E8081000BC
:10570000203F20202320180008F88888E80810008F
:10571000203F200003000000C030080808380000C7
:1057200007182020221E020008F808000008F808C8
:10573000203F210101213F20000808F8080800004F
:105740000020203F2020000000000808F808080082
:10575000C08080807F00000008F888C028180800FA
:10576000203F20012638200008F808000000000033
:10577000203F20202020300008F8F800F8F808002A
:10578000203F003F003F200008F830C00008F80824
:10579000203F200007183F00E01008080810E00034
:1057A0000F10202020100F0008F808080808F0004B
:1057B000203F210101010000E01008080810E0006E
:1057C0000F18242438504F0008F888888888700003
:1057D000203F2000030C30200070880808083800A3
:1057E0000038202121221C00180808F80808180099
:1057F0000000203F2000000008F808000008F8081A
:10580000001F202020201F000878880000C83808CA
:10581000000007380E010000F80800F80008F80042
:10582000033C0700073C03000818688080681808DC
:1058300020302C03032C30200838C800C83808005A
:105840000000203F2000000010080808C8380800A9
:105850002038262120201800000000FE020202004D
:105860000000007F40404000000C30C000000000FD
:10587000000000010638C00000020202FE00000025
:10588000004040407F0000000000040202020400CB
:105890000000000000000000000000000000000008
:1058A00080808080808080800002020400000000F0
:1058B00000000000000000000000808080800000E8
:1058C0000019242222223F2008F8008080000000D6
:1058D000003F112020110E00000000808080000099
:1058E000000E112020201100000000808088F800A8
:1058F000000E112020103F200000808080800000DA
:10590000001F222222221300008080F0888888183D
:105910000020203F20200000000080808080800048
:10592000006B94949493600008F8008080800000DD
:10593000203F210000203F200080989800000000B8
:105940000020203F202000000000008098980000E8
:1059500000C08080807F000008F800008080800008
:10596000203F24022D302000000808F8000000002D
:105970000020203F202000008080808080808000E8
:10598000203F20003F20003F80800080808000007A
:10599000203F210000203F20000080808080000008
:1059A000001F202020201F00808000808000000039
:1059B00080FFA12020110E00000000808080800068
:1059C000000E112020A0FF80808080008080800059
:1059D00020203F2120000100000080808080800086
:1059E0000033242424241900008080E080800000FB
:1059F0000000001F20200000808000000080800048
:105A0000001F202020103F208080800000808080A8
:105A100000010E3008060100808000800080808038
:105A20000F300C030C300F0000808000808080005D
:105A30000020312E0E312000808080000080808088
:105A400080818E7018060100008080808080800038
:105A50000021302C2221300000000000807C020256
:105A600000000000003F404000000000FF00000078
:105A700000000000FF0000000002027C8000000027
:105A80000040403F00000000000601010202040443
:105A90000000000000000000B85A000800000020CC
:105AA000680400000C520008745C000868040020C0
:105AB00050040000725200080120022C6384A24AA4
:105AC00004000916010203040607080933C8C302CB
:105AD00020C0325052281BF010012AFF050215F099
